{
  "contractName": "Crop_Supply_Chain",
  "abi": [
    {
      "inputs": [
        {
          "internalType": "uint256",
          "name": "",
          "type": "uint256"
        }
      ],
      "name": "farmers",
      "outputs": [
        {
          "internalType": "address",
          "name": "",
          "type": "address"
        }
      ],
      "stateMutability": "view",
      "type": "function",
      "constant": true
    },
    {
      "inputs": [
        {
          "internalType": "uint256",
          "name": "",
          "type": "uint256"
        }
      ],
      "name": "seed_producers",
      "outputs": [
        {
          "internalType": "address",
          "name": "",
          "type": "address"
        }
      ],
      "stateMutability": "view",
      "type": "function",
      "constant": true
    },
    {
      "inputs": [
        {
          "internalType": "address",
          "name": "add",
          "type": "address"
        },
        {
          "internalType": "enum Entity_Type",
          "name": "entity_type",
          "type": "uint8"
        }
      ],
      "name": "register",
      "outputs": [],
      "stateMutability": "nonpayable",
      "type": "function"
    },
    {
      "inputs": [
        {
          "internalType": "address",
          "name": "add",
          "type": "address"
        },
        {
          "internalType": "enum Entity_Type",
          "name": "entity_type",
          "type": "uint8"
        }
      ],
      "name": "deregister",
      "outputs": [],
      "stateMutability": "nonpayable",
      "type": "function"
    }
  ],
  "bytecode": "0x608060405234801561001057600080fd5b50610696806100206000396000f3fe608060405234801561001057600080fd5b506004361061004c5760003560e01c806307e49598146100515780631e4ca4051461006d5780638afdd66914610089578063d863c000146100b9575b600080fd5b61006b6004803603810190610066919061045b565b6100e9565b005b6100876004803603810190610082919061045b565b61018b565b005b6100a3600480360381019061009e91906104d1565b610355565b6040516100b0919061050d565b60405180910390f35b6100d360048036038101906100ce91906104d1565b610394565b6040516100e0919061050d565b60405180910390f35b60006001808111156100fe576100fd610528565b5b82600181111561011157610110610528565b5b0361011f5760009050610124565b600190505b80839080600181540180825580915050600190039060005260206000200160009091909190916101000a81548173ffffffffffffffffffffffffffffffffffffffff021916908373ffffffffffffffffffffffffffffffffffffffff160217905550505050565b60006001808111156101a05761019f610528565b5b8260018111156101b3576101b2610528565b5b036101c157600090506101c6565b600190505b60005b818054905081101561034e578373ffffffffffffffffffffffffffffffffffffffff168282815481106101ff576101fe610557565b5b9060005260206000200160009054906101000a900473ffffffffffffffffffffffffffffffffffffffff1673ffffffffffffffffffffffffffffffffffffffff160361033b57816001838054905061025791906105b5565b8154811061026857610267610557565b5b9060005260206000200160009054906101000a900473ffffffffffffffffffffffffffffffffffffffff168282815481106102a6576102a5610557565b5b9060005260206000200160006101000a81548173ffffffffffffffffffffffffffffffffffffffff021916908373ffffffffffffffffffffffffffffffffffffffff160217905550818054806102ff576102fe6105e9565b5b6001900381819060005260206000200160006101000a81549073ffffffffffffffffffffffffffffffffffffffff021916905590555050610351565b808061034690610618565b9150506101c9565b50505b5050565b6000818154811061036557600080fd5b906000526020600020016000915054906101000a900473ffffffffffffffffffffffffffffffffffffffff1681565b600181815481106103a457600080fd5b906000526020600020016000915054906101000a900473ffffffffffffffffffffffffffffffffffffffff1681565b600080fd5b600073ffffffffffffffffffffffffffffffffffffffff82169050919050565b6000610403826103d8565b9050919050565b610413816103f8565b811461041e57600080fd5b50565b6000813590506104308161040a565b92915050565b6002811061044357600080fd5b50565b60008135905061045581610436565b92915050565b60008060408385031215610472576104716103d3565b5b600061048085828601610421565b925050602061049185828601610446565b9150509250929050565b6000819050919050565b6104ae8161049b565b81146104b957600080fd5b50565b6000813590506104cb816104a5565b92915050565b6000602082840312156104e7576104e66103d3565b5b60006104f5848285016104bc565b91505092915050565b610507816103f8565b82525050565b600060208201905061052260008301846104fe565b92915050565b7f4e487b7100000000000000000000000000000000000000000000000000000000600052602160045260246000fd5b7f4e487b7100000000000000000000000000000000000000000000000000000000600052603260045260246000fd5b7f4e487b7100000000000000000000000000000000000000000000000000000000600052601160045260246000fd5b60006105c08261049b565b91506105cb8361049b565b92508282039050818111156105e3576105e2610586565b5b92915050565b7f4e487b7100000000000000000000000000000000000000000000000000000000600052603160045260246000fd5b60006106238261049b565b91507fffffffffffffffffffffffffffffffffffffffffffffffffffffffffffffffff820361065557610654610586565b5b60018201905091905056fea26469706673582212205b390d002a65c8431ebd85055dc1df4db12d46bfd2d0f13c74d89a9a0464b0d364736f6c63430008120033",
  "immutableReferences": {},
  "source": "//SPDX-License-Identifier: MIT\r\n\r\npragma solidity ^0.8.14;\r\n\r\nimport \"./Supply_Chain_Structs.sol\";\r\n\r\n\r\ncontract Crop_Supply_Chain{\r\n\r\n    address[] public farmers;\r\n    address[] public seed_producers;\r\n\r\n    //entity registration and deregistration done.\r\n    \r\n    function register(address add, Entity_Type entity_type) public{\r\n      address[] storage entities;\r\n      if(entity_type == Entity_Type.Farmer) entities = farmers;\r\n      /* else if(entity_type == Entity_Type.Seed_Producer) entities = seed_producers; */\r\n      else entities = seed_producers;\r\n\r\n      entities.push(add);\r\n    }\r\n\r\n    function deregister(address add, Entity_Type entity_type) public{\r\n      address[] storage entities;\r\n      if(entity_type == Entity_Type.Farmer) entities = farmers;\r\n      /* else if(entity_type == Entity_Type.Seed_Producer) entities = seed_producers; */\r\n      else entities = seed_producers;\r\n\r\n      for(uint i = 0; i < entities.length; i++){\r\n          if(entities[i] == add){\r\n              entities[i] = entities[entities.length-1];\r\n              entities.pop();\r\n              return;\r\n          }\r\n      }\r\n    } \r\n}\r\n",
  "sourcePath": "/home/samaygandhi/projects/crop_supply_chain/truffle/contracts/Crop_Supply_Chain.sol",
  "compiler": {
    "name": "solc",
    "version": "0.8.18+commit.87f61d96.Emscripten.clang"
  },
  "schemaVersion": "3.4.13",
  "updatedAt": "2023-03-25T04:13:27.714Z",
  "networkType": "ethereum",
  "devdoc": {
    "kind": "dev",
    "methods": {},
    "version": 1
  },
  "userdoc": {
    "kind": "user",
    "methods": {},
    "version": 1
  }
}