{
  "contractName": "Crop_Supply_Chain",
  "abi": [
    {
      "inputs": [
        {
          "internalType": "uint256",
          "name": "",
          "type": "uint256"
        }
      ],
      "name": "farmers",
      "outputs": [
        {
          "internalType": "string",
          "name": "",
          "type": "string"
        }
      ],
      "stateMutability": "view",
      "type": "function",
      "constant": true
    },
    {
      "inputs": [
        {
          "internalType": "uint256",
          "name": "",
          "type": "uint256"
        }
      ],
      "name": "seed_producers",
      "outputs": [
        {
          "internalType": "string",
          "name": "",
          "type": "string"
        }
      ],
      "stateMutability": "view",
      "type": "function",
      "constant": true
    },
    {
      "inputs": [
        {
          "internalType": "uint256",
          "name": "",
          "type": "uint256"
        }
      ],
      "name": "seeds",
      "outputs": [
        {
          "internalType": "string",
          "name": "",
          "type": "string"
        }
      ],
      "stateMutability": "view",
      "type": "function",
      "constant": true
    },
    {
      "inputs": [],
      "name": "get_farmers",
      "outputs": [
        {
          "internalType": "string[]",
          "name": "",
          "type": "string[]"
        }
      ],
      "stateMutability": "nonpayable",
      "type": "function"
    },
    {
      "inputs": [],
      "name": "get_seed_producers",
      "outputs": [
        {
          "internalType": "string[]",
          "name": "",
          "type": "string[]"
        }
      ],
      "stateMutability": "nonpayable",
      "type": "function"
    },
    {
      "inputs": [],
      "name": "get_seeds",
      "outputs": [
        {
          "internalType": "string[]",
          "name": "",
          "type": "string[]"
        }
      ],
      "stateMutability": "nonpayable",
      "type": "function"
    },
    {
      "inputs": [
        {
          "internalType": "string",
          "name": "add",
          "type": "string"
        },
        {
          "internalType": "string",
          "name": "entity_type",
          "type": "string"
        }
      ],
      "name": "register",
      "outputs": [],
      "stateMutability": "nonpayable",
      "type": "function"
    },
    {
      "inputs": [
        {
          "internalType": "string",
          "name": "add",
          "type": "string"
        },
        {
          "internalType": "string",
          "name": "entity_type",
          "type": "string"
        }
      ],
      "name": "deregister",
      "outputs": [],
      "stateMutability": "nonpayable",
      "type": "function"
    },
    {
      "inputs": [
        {
          "internalType": "string",
          "name": "old",
          "type": "string"
        },
        {
          "internalType": "string",
          "name": "latest",
          "type": "string"
        },
        {
          "internalType": "string",
          "name": "object_type",
          "type": "string"
        }
      ],
      "name": "update",
      "outputs": [],
      "stateMutability": "nonpayable",
      "type": "function"
    },
    {
      "inputs": [
        {
          "internalType": "string",
          "name": "add",
          "type": "string"
        },
        {
          "internalType": "string",
          "name": "object_type",
          "type": "string"
        }
      ],
      "name": "is_object_valid",
      "outputs": [
        {
          "internalType": "bool",
          "name": "",
          "type": "bool"
        }
      ],
      "stateMutability": "nonpayable",
      "type": "function"
    }
  ],
  "bytecode": "0x608060405234801561001057600080fd5b50611507806100206000396000f3fe608060405234801561001057600080fd5b506004361061009e5760003560e01c80638348dbc0116100665780638348dbc0146101335780638afdd66914610151578063d863c00014610181578063e3aa7abf146101b1578063f0503e80146101e15761009e565b80631b918318146100a3578063294b4860146100c157806331c3e456146100dd5780633ffbd47f146100f95780634563dace14610115575b600080fd5b6100ab610211565b6040516100b89190610b8e565b60405180910390f35b6100db60048036038101906100d69190610cf9565b6102ea565b005b6100f760048036038101906100f29190610d71565b610433565b005b610113600480360381019061010e9190610cf9565b61044c565b005b61011d6104d9565b60405161012a9190610b8e565b60405180910390f35b61013b6105b2565b6040516101489190610b8e565b60405180910390f35b61016b60048036038101906101669190610e4e565b61068b565b6040516101789190610ec5565b60405180910390f35b61019b60048036038101906101969190610e4e565b610737565b6040516101a89190610ec5565b60405180910390f35b6101cb60048036038101906101c69190610cf9565b6107e3565b6040516101d89190610f02565b60405180910390f35b6101fb60048036038101906101f69190610e4e565b610918565b6040516102089190610ec5565b60405180910390f35b60606000805480602002602001604051908101604052809291908181526020016000905b828210156102e157838290600052602060002001805461025490610f4c565b80601f016020809104026020016040519081016040528092919081815260200182805461028090610f4c565b80156102cd5780601f106102a2576101008083540402835291602001916102cd565b820191906000526020600020905b8154815290600101906020018083116102b057829003601f168201915b505050505081526020019060010190610235565b50505050905090565b600061032b826040518060400160405280600681526020017f4661726d657200000000000000000000000000000000000000000000000000008152506109c4565b15610339576000905061033e565b600290505b60005b818054905081101561042c57838051906020012082828154811061036857610367610f7d565b5b9060005260206000200160405161037f919061104f565b60405180910390200361041957816001838054905061039e9190611095565b815481106103af576103ae610f7d565b5b906000526020600020018282815481106103cc576103cb610f7d565b5b9060005260206000200190816103e291906112a0565b50818054806103f4576103f3611388565b5b60019003818190600052602060002001600061041091906109df565b9055505061042f565b8080610424906113b7565b915050610341565b50505b5050565b61043d828261044c565b61044783826102ea565b505050565b600061048d826040518060400160405280600681526020017f4661726d657200000000000000000000000000000000000000000000000000008152506109c4565b1561049b57600090506104a0565b600290505b80839080600181540180825580915050600190039060005260206000200160009091909190915090816104d391906113ff565b50505050565b60606001805480602002602001604051908101604052809291908181526020016000905b828210156105a957838290600052602060002001805461051c90610f4c565b80601f016020809104026020016040519081016040528092919081815260200182805461054890610f4c565b80156105955780601f1061056a57610100808354040283529160200191610595565b820191906000526020600020905b81548152906001019060200180831161057857829003601f168201915b5050505050815260200190600101906104fd565b50505050905090565b60606002805480602002602001604051908101604052809291908181526020016000905b828210156106825783829060005260206000200180546105f590610f4c565b80601f016020809104026020016040519081016040528092919081815260200182805461062190610f4c565b801561066e5780601f106106435761010080835404028352916020019161066e565b820191906000526020600020905b81548152906001019060200180831161065157829003601f168201915b5050505050815260200190600101906105d6565b50505050905090565b6000818154811061069b57600080fd5b9060005260206000200160009150905080546106b690610f4c565b80601f01602080910402602001604051908101604052809291908181526020018280546106e290610f4c565b801561072f5780601f106107045761010080835404028352916020019161072f565b820191906000526020600020905b81548152906001019060200180831161071257829003601f168201915b505050505081565b6001818154811061074757600080fd5b90600052602060002001600091509050805461076290610f4c565b80601f016020809104026020016040519081016040528092919081815260200182805461078e90610f4c565b80156107db5780601f106107b0576101008083540402835291602001916107db565b820191906000526020600020905b8154815290600101906020018083116107be57829003601f168201915b505050505081565b6000610824826040518060400160405280600481526020017f53656564000000000000000000000000000000000000000000000000000000008152506109c4565b1561090d5760005b60028054905081101561090b576108e9600282815481106108505761084f610f7d565b5b90600052602060002001805461086590610f4c565b80601f016020809104026020016040519081016040528092919081815260200182805461089190610f4c565b80156108de5780601f106108b3576101008083540402835291602001916108de565b820191906000526020600020905b8154815290600101906020018083116108c157829003601f168201915b5050505050856109c4565b156108f8576001915050610912565b8080610903906113b7565b91505061082c565b505b600090505b92915050565b6002818154811061092857600080fd5b90600052602060002001600091509050805461094390610f4c565b80601f016020809104026020016040519081016040528092919081815260200182805461096f90610f4c565b80156109bc5780601f10610991576101008083540402835291602001916109bc565b820191906000526020600020905b81548152906001019060200180831161099f57829003601f168201915b505050505081565b60008180519060200120838051906020012014905092915050565b5080546109eb90610f4c565b6000825580601f106109fd5750610a1c565b601f016020900490600052602060002090810190610a1b9190610a1f565b5b50565b5b80821115610a38576000816000905550600101610a20565b5090565b600081519050919050565b600082825260208201905092915050565b6000819050602082019050919050565b600081519050919050565b600082825260208201905092915050565b60005b83811015610aa2578082015181840152602081019050610a87565b60008484015250505050565b6000601f19601f8301169050919050565b6000610aca82610a68565b610ad48185610a73565b9350610ae4818560208601610a84565b610aed81610aae565b840191505092915050565b6000610b048383610abf565b905092915050565b6000602082019050919050565b6000610b2482610a3c565b610b2e8185610a47565b935083602082028501610b4085610a58565b8060005b85811015610b7c5784840389528151610b5d8582610af8565b9450610b6883610b0c565b925060208a01995050600181019050610b44565b50829750879550505050505092915050565b60006020820190508181036000830152610ba88184610b19565b905092915050565b6000604051905090565b600080fd5b600080fd5b600080fd5b600080fd5b7f4e487b7100000000000000000000000000000000000000000000000000000000600052604160045260246000fd5b610c0682610aae565b810181811067ffffffffffffffff82111715610c2557610c24610bce565b5b80604052505050565b6000610c38610bb0565b9050610c448282610bfd565b919050565b600067ffffffffffffffff821115610c6457610c63610bce565b5b610c6d82610aae565b9050602081019050919050565b82818337600083830152505050565b6000610c9c610c9784610c49565b610c2e565b905082815260208101848484011115610cb857610cb7610bc9565b5b610cc3848285610c7a565b509392505050565b600082601f830112610ce057610cdf610bc4565b5b8135610cf0848260208601610c89565b91505092915050565b60008060408385031215610d1057610d0f610bba565b5b600083013567ffffffffffffffff811115610d2e57610d2d610bbf565b5b610d3a85828601610ccb565b925050602083013567ffffffffffffffff811115610d5b57610d5a610bbf565b5b610d6785828601610ccb565b9150509250929050565b600080600060608486031215610d8a57610d89610bba565b5b600084013567ffffffffffffffff811115610da857610da7610bbf565b5b610db486828701610ccb565b935050602084013567ffffffffffffffff811115610dd557610dd4610bbf565b5b610de186828701610ccb565b925050604084013567ffffffffffffffff811115610e0257610e01610bbf565b5b610e0e86828701610ccb565b9150509250925092565b6000819050919050565b610e2b81610e18565b8114610e3657600080fd5b50565b600081359050610e4881610e22565b92915050565b600060208284031215610e6457610e63610bba565b5b6000610e7284828501610e39565b91505092915050565b600082825260208201905092915050565b6000610e9782610a68565b610ea18185610e7b565b9350610eb1818560208601610a84565b610eba81610aae565b840191505092915050565b60006020820190508181036000830152610edf8184610e8c565b905092915050565b60008115159050919050565b610efc81610ee7565b82525050565b6000602082019050610f176000830184610ef3565b92915050565b7f4e487b7100000000000000000000000000000000000000000000000000000000600052602260045260246000fd5b60006002820490506001821680610f6457607f821691505b602082108103610f7757610f76610f1d565b5b50919050565b7f4e487b7100000000000000000000000000000000000000000000000000000000600052603260045260246000fd5b600081905092915050565b60008190508160005260206000209050919050565b60008154610fd981610f4c565b610fe38186610fac565b94506001821660008114610ffe576001811461101357611046565b60ff1983168652811515820286019350611046565b61101c85610fb7565b60005b8381101561103e5781548189015260018201915060208101905061101f565b838801955050505b50505092915050565b600061105b8284610fcc565b915081905092915050565b7f4e487b7100000000000000000000000000000000000000000000000000000000600052601160045260246000fd5b60006110a082610e18565b91506110ab83610e18565b92508282039050818111156110c3576110c2611066565b5b92915050565b6000815490506110d881610f4c565b9050919050565b60008190508160005260206000209050919050565b60008190508160005260206000209050919050565b60006020601f8301049050919050565b600082821b905092915050565b6000600883026111567fffffffffffffffffffffffffffffffffffffffffffffffffffffffffffffffff82611119565b6111608683611119565b95508019841693508086168417925050509392505050565b6000819050919050565b600061119d61119861119384610e18565b611178565b610e18565b9050919050565b6000819050919050565b6111b783611182565b6111cb6111c3826111a4565b848454611126565b825550505050565b600090565b6111e06111d3565b6111eb8184846111ae565b505050565b5b8181101561120f576112046000826111d8565b6001810190506111f1565b5050565b601f82111561125457611225816110df565b61122e84611109565b8101602085101561123d578190505b61125161124985611109565b8301826111f0565b50505b505050565b600082821c905092915050565b600061127760001984600802611259565b1980831691505092915050565b60006112908383611266565b9150826002028217905092915050565b8181036112ae575050611386565b6112b7826110c9565b67ffffffffffffffff8111156112d0576112cf610bce565b5b6112da8254610f4c565b6112e5828285611213565b6000601f8311600181146113145760008415611302578287015490505b61130c8582611284565b86555061137f565b601f198416611322876110f4565b965061132d866110df565b60005b8281101561135557848901548255600182019150600185019450602081019050611330565b86831015611372578489015461136e601f891682611266565b8355505b6001600288020188555050505b5050505050505b565b7f4e487b7100000000000000000000000000000000000000000000000000000000600052603160045260246000fd5b60006113c282610e18565b91507fffffffffffffffffffffffffffffffffffffffffffffffffffffffffffffffff82036113f4576113f3611066565b5b600182019050919050565b61140882610a68565b67ffffffffffffffff81111561142157611420610bce565b5b61142b8254610f4c565b611436828285611213565b600060209050601f8311600181146114695760008415611457578287015190505b6114618582611284565b8655506114c9565b601f198416611477866110df565b60005b8281101561149f5784890151825560018201915060208501945060208101905061147a565b868310156114bc57848901516114b8601f891682611266565b8355505b6001600288020188555050505b50505050505056fea2646970667358221220ba764692af3e0153d0e14bb6d6ac35ee7214e35aff2413872fe39b3cc426319464736f6c63430008120033",
  "immutableReferences": {},
  "source": "//SPDX-License-Identifier: MIT\r\n\r\npragma solidity ^0.8.14;\r\npragma abicoder v2;\r\nimport \"./Supply_Chain_Structs.sol\";\r\nimport \"./Constants.sol\";\r\n\r\n//current address: 0x9Cc6F1A9f4D78376B73f617d5EABe83b5d74912e\r\n\r\ncontract Crop_Supply_Chain{\r\n\r\n    string[] public farmers;\r\n    string[] public seed_producers;\r\n    string[] public seeds;\r\n\r\n    //Helper functions\r\n    function compare_strings(string memory s1, string memory s2) private returns(bool) {\r\n      return keccak256(bytes(s1)) == keccak256(bytes(s2));\r\n    } \r\n\r\n    function get_farmers() public returns(string[] memory) {\r\n      return farmers;\r\n    }\r\n\r\n    function get_seed_producers() public returns(string[] memory) {\r\n      return seed_producers;\r\n    }\r\n\r\n    function get_seeds() public returns(string[] memory) {\r\n      return seeds;\r\n    }\r\n    //entity registration and deregistration done.\r\n    \r\n    function register(string memory add, string memory entity_type) public{\r\n      string[] storage entities;\r\n      if(compare_strings(entity_type, FARMER)) entities = farmers;\r\n      /* else if(entity_type == Entity_Type.Seed_Producer) entities = seed_producers; */\r\n      else entities = seeds;\r\n\r\n      entities.push(add);\r\n    }\r\n\r\n    function deregister(string memory add, string memory entity_type) public{\r\n     string[] storage entities;\r\n      if(compare_strings(entity_type, FARMER)) entities = farmers;\r\n            /* else if(entity_type == Entity_Type.Seed_Producer) entities = seed_producers; */\r\n            else entities = seeds;\r\n\r\n            for(uint i = 0; i < entities.length; i++){\r\n                if(keccak256(bytes(entities[i])) == keccak256(bytes(add))){\r\n                    entities[i] = entities[entities.length-1];\r\n                    entities.pop();\r\n                    return;\r\n                }\r\n            }\r\n    } \r\n\r\n    function update(string memory old, string memory latest, string memory object_type) public {\r\n      register(latest, object_type);\r\n      deregister(old, object_type);\r\n    }\r\n\r\n    function is_object_valid(string memory add, string memory object_type) public returns(bool){\r\n      if(compare_strings(object_type, SEED)){\r\n        for(uint i = 0; i < seeds.length; i++){\r\n          if(compare_strings(seeds[i], add)) \r\n            return true;\r\n        }\r\n      }\r\n\r\n      return false;\r\n    }\r\n\r\n\r\n    //ab aur kya karna hai socho\r\n    //1) Entity Registration done\r\n    //2) Seed Certification Process results\r\n\r\n\r\n    //Seed Certification Tests\r\n    // function add_certification_test_results(string memory test_results, string memory test_type)public{\r\n    //   //there are a compare things to be done here\r\n    //   //1) ad\r\n    //   if(compare_strings(test_type, EVAL_ORIGIN)){\r\n\r\n    //   }\r\n    //   else if(compare_strings(test_type, FIELD_INSPECTION)){\r\n\r\n    //   }\r\n    //   else if(compare_strings(test_type, SAMPLE_INSPECTION)){\r\n\r\n    //   }\r\n    //   else if(compare_strings(test_type, BULK_INSPECTION)){\r\n\r\n    //   }\r\n    //   else if(compare_strings(test_type, CONTROL_PLOT_TESTING)){\r\n\r\n    //   }\r\n    //   else if (compare_strings(test_type, GROW_OUT_TEST)){\r\n\r\n    //   }\r\n    // }\r\n}\r\n\r\n",
  "sourcePath": "/home/samaygandhi/projects/crop_supply_chain/truffle/contracts/Crop_Supply_Chain.sol",
  "compiler": {
    "name": "solc",
    "version": "0.8.18+commit.87f61d96.Emscripten.clang"
  },
  "schemaVersion": "3.4.13",
  "updatedAt": "2023-03-29T09:59:20.736Z",
  "networkType": "ethereum",
  "devdoc": {
    "kind": "dev",
    "methods": {},
    "version": 1
  },
  "userdoc": {
    "kind": "user",
    "methods": {},
    "version": 1
  }
}