{
  "contractName": "Crop_Supply_Chain",
  "abi": [
    {
      "inputs": [
        {
          "internalType": "uint256",
          "name": "",
          "type": "uint256"
        }
      ],
      "name": "farmers",
      "outputs": [
        {
          "internalType": "string",
          "name": "",
          "type": "string"
        }
      ],
      "stateMutability": "view",
      "type": "function",
      "constant": true
    },
    {
      "inputs": [
        {
          "internalType": "uint256",
          "name": "",
          "type": "uint256"
        }
      ],
      "name": "seed_producers",
      "outputs": [
        {
          "internalType": "string",
          "name": "",
          "type": "string"
        }
      ],
      "stateMutability": "view",
      "type": "function",
      "constant": true
    },
    {
      "inputs": [
        {
          "internalType": "uint256",
          "name": "",
          "type": "uint256"
        }
      ],
      "name": "seeds",
      "outputs": [
        {
          "internalType": "string",
          "name": "",
          "type": "string"
        }
      ],
      "stateMutability": "view",
      "type": "function",
      "constant": true
    },
    {
      "inputs": [],
      "name": "get_farmers",
      "outputs": [
        {
          "internalType": "string[]",
          "name": "",
          "type": "string[]"
        }
      ],
      "stateMutability": "nonpayable",
      "type": "function"
    },
    {
      "inputs": [],
      "name": "get_seed_producers",
      "outputs": [
        {
          "internalType": "string[]",
          "name": "",
          "type": "string[]"
        }
      ],
      "stateMutability": "nonpayable",
      "type": "function"
    },
    {
      "inputs": [],
      "name": "get_seeds",
      "outputs": [
        {
          "internalType": "string[]",
          "name": "",
          "type": "string[]"
        }
      ],
      "stateMutability": "nonpayable",
      "type": "function"
    },
    {
      "inputs": [
        {
          "internalType": "string",
          "name": "add",
          "type": "string"
        },
        {
          "internalType": "string",
          "name": "entity_type",
          "type": "string"
        }
      ],
      "name": "register",
      "outputs": [],
      "stateMutability": "nonpayable",
      "type": "function"
    },
    {
      "inputs": [
        {
          "internalType": "string",
          "name": "add",
          "type": "string"
        },
        {
          "internalType": "string",
          "name": "entity_type",
          "type": "string"
        }
      ],
      "name": "deregister",
      "outputs": [],
      "stateMutability": "nonpayable",
      "type": "function"
    },
    {
      "inputs": [
        {
          "internalType": "string",
          "name": "add",
          "type": "string"
        },
        {
          "internalType": "string",
          "name": "object_type",
          "type": "string"
        }
      ],
      "name": "is_object_valid",
      "outputs": [
        {
          "internalType": "bool",
          "name": "",
          "type": "bool"
        }
      ],
      "stateMutability": "nonpayable",
      "type": "function"
    }
  ],
  "bytecode": "0x608060405234801561001057600080fd5b50611420806100206000396000f3fe608060405234801561001057600080fd5b50600436106100935760003560e01c80638348dbc0116100665780638348dbc01461010c5780638afdd6691461012a578063d863c0001461015a578063e3aa7abf1461018a578063f0503e80146101ba57610093565b80631b91831814610098578063294b4860146100b65780633ffbd47f146100d25780634563dace146100ee575b600080fd5b6100a06101ea565b6040516100ad9190610b4e565b60405180910390f35b6100d060048036038101906100cb9190610cb9565b6102c3565b005b6100ec60048036038101906100e79190610cb9565b61040c565b005b6100f6610499565b6040516101039190610b4e565b60405180910390f35b610114610572565b6040516101219190610b4e565b60405180910390f35b610144600480360381019061013f9190610d67565b61064b565b6040516101519190610dde565b60405180910390f35b610174600480360381019061016f9190610d67565b6106f7565b6040516101819190610dde565b60405180910390f35b6101a4600480360381019061019f9190610cb9565b6107a3565b6040516101b19190610e1b565b60405180910390f35b6101d460048036038101906101cf9190610d67565b6108d8565b6040516101e19190610dde565b60405180910390f35b60606000805480602002602001604051908101604052809291908181526020016000905b828210156102ba57838290600052602060002001805461022d90610e65565b80601f016020809104026020016040519081016040528092919081815260200182805461025990610e65565b80156102a65780601f1061027b576101008083540402835291602001916102a6565b820191906000526020600020905b81548152906001019060200180831161028957829003601f168201915b50505050508152602001906001019061020e565b50505050905090565b6000610304826040518060400160405280600681526020017f4661726d65720000000000000000000000000000000000000000000000000000815250610984565b156103125760009050610317565b600290505b60005b818054905081101561040557838051906020012082828154811061034157610340610e96565b5b906000526020600020016040516103589190610f68565b6040518091039020036103f25781600183805490506103779190610fae565b8154811061038857610387610e96565b5b906000526020600020018282815481106103a5576103a4610e96565b5b9060005260206000200190816103bb91906111b9565b50818054806103cd576103cc6112a1565b5b6001900381819060005260206000200160006103e9919061099f565b90555050610408565b80806103fd906112d0565b91505061031a565b50505b5050565b600061044d826040518060400160405280600681526020017f4661726d65720000000000000000000000000000000000000000000000000000815250610984565b1561045b5760009050610460565b600290505b80839080600181540180825580915050600190039060005260206000200160009091909190915090816104939190611318565b50505050565b60606001805480602002602001604051908101604052809291908181526020016000905b828210156105695783829060005260206000200180546104dc90610e65565b80601f016020809104026020016040519081016040528092919081815260200182805461050890610e65565b80156105555780601f1061052a57610100808354040283529160200191610555565b820191906000526020600020905b81548152906001019060200180831161053857829003601f168201915b5050505050815260200190600101906104bd565b50505050905090565b60606002805480602002602001604051908101604052809291908181526020016000905b828210156106425783829060005260206000200180546105b590610e65565b80601f01602080910402602001604051908101604052809291908181526020018280546105e190610e65565b801561062e5780601f106106035761010080835404028352916020019161062e565b820191906000526020600020905b81548152906001019060200180831161061157829003601f168201915b505050505081526020019060010190610596565b50505050905090565b6000818154811061065b57600080fd5b90600052602060002001600091509050805461067690610e65565b80601f01602080910402602001604051908101604052809291908181526020018280546106a290610e65565b80156106ef5780601f106106c4576101008083540402835291602001916106ef565b820191906000526020600020905b8154815290600101906020018083116106d257829003601f168201915b505050505081565b6001818154811061070757600080fd5b90600052602060002001600091509050805461072290610e65565b80601f016020809104026020016040519081016040528092919081815260200182805461074e90610e65565b801561079b5780601f106107705761010080835404028352916020019161079b565b820191906000526020600020905b81548152906001019060200180831161077e57829003601f168201915b505050505081565b60006107e4826040518060400160405280600481526020017f5365656400000000000000000000000000000000000000000000000000000000815250610984565b156108cd5760005b6002805490508110156108cb576108a9600282815481106108105761080f610e96565b5b90600052602060002001805461082590610e65565b80601f016020809104026020016040519081016040528092919081815260200182805461085190610e65565b801561089e5780601f106108735761010080835404028352916020019161089e565b820191906000526020600020905b81548152906001019060200180831161088157829003601f168201915b505050505085610984565b156108b85760019150506108d2565b80806108c3906112d0565b9150506107ec565b505b600090505b92915050565b600281815481106108e857600080fd5b90600052602060002001600091509050805461090390610e65565b80601f016020809104026020016040519081016040528092919081815260200182805461092f90610e65565b801561097c5780601f106109515761010080835404028352916020019161097c565b820191906000526020600020905b81548152906001019060200180831161095f57829003601f168201915b505050505081565b60008180519060200120838051906020012014905092915050565b5080546109ab90610e65565b6000825580601f106109bd57506109dc565b601f0160209004906000526020600020908101906109db91906109df565b5b50565b5b808211156109f85760008160009055506001016109e0565b5090565b600081519050919050565b600082825260208201905092915050565b6000819050602082019050919050565b600081519050919050565b600082825260208201905092915050565b60005b83811015610a62578082015181840152602081019050610a47565b60008484015250505050565b6000601f19601f8301169050919050565b6000610a8a82610a28565b610a948185610a33565b9350610aa4818560208601610a44565b610aad81610a6e565b840191505092915050565b6000610ac48383610a7f565b905092915050565b6000602082019050919050565b6000610ae4826109fc565b610aee8185610a07565b935083602082028501610b0085610a18565b8060005b85811015610b3c5784840389528151610b1d8582610ab8565b9450610b2883610acc565b925060208a01995050600181019050610b04565b50829750879550505050505092915050565b60006020820190508181036000830152610b688184610ad9565b905092915050565b6000604051905090565b600080fd5b600080fd5b600080fd5b600080fd5b7f4e487b7100000000000000000000000000000000000000000000000000000000600052604160045260246000fd5b610bc682610a6e565b810181811067ffffffffffffffff82111715610be557610be4610b8e565b5b80604052505050565b6000610bf8610b70565b9050610c048282610bbd565b919050565b600067ffffffffffffffff821115610c2457610c23610b8e565b5b610c2d82610a6e565b9050602081019050919050565b82818337600083830152505050565b6000610c5c610c5784610c09565b610bee565b905082815260208101848484011115610c7857610c77610b89565b5b610c83848285610c3a565b509392505050565b600082601f830112610ca057610c9f610b84565b5b8135610cb0848260208601610c49565b91505092915050565b60008060408385031215610cd057610ccf610b7a565b5b600083013567ffffffffffffffff811115610cee57610ced610b7f565b5b610cfa85828601610c8b565b925050602083013567ffffffffffffffff811115610d1b57610d1a610b7f565b5b610d2785828601610c8b565b9150509250929050565b6000819050919050565b610d4481610d31565b8114610d4f57600080fd5b50565b600081359050610d6181610d3b565b92915050565b600060208284031215610d7d57610d7c610b7a565b5b6000610d8b84828501610d52565b91505092915050565b600082825260208201905092915050565b6000610db082610a28565b610dba8185610d94565b9350610dca818560208601610a44565b610dd381610a6e565b840191505092915050565b60006020820190508181036000830152610df88184610da5565b905092915050565b60008115159050919050565b610e1581610e00565b82525050565b6000602082019050610e306000830184610e0c565b92915050565b7f4e487b7100000000000000000000000000000000000000000000000000000000600052602260045260246000fd5b60006002820490506001821680610e7d57607f821691505b602082108103610e9057610e8f610e36565b5b50919050565b7f4e487b7100000000000000000000000000000000000000000000000000000000600052603260045260246000fd5b600081905092915050565b60008190508160005260206000209050919050565b60008154610ef281610e65565b610efc8186610ec5565b94506001821660008114610f175760018114610f2c57610f5f565b60ff1983168652811515820286019350610f5f565b610f3585610ed0565b60005b83811015610f5757815481890152600182019150602081019050610f38565b838801955050505b50505092915050565b6000610f748284610ee5565b915081905092915050565b7f4e487b7100000000000000000000000000000000000000000000000000000000600052601160045260246000fd5b6000610fb982610d31565b9150610fc483610d31565b9250828203905081811115610fdc57610fdb610f7f565b5b92915050565b600081549050610ff181610e65565b9050919050565b60008190508160005260206000209050919050565b60008190508160005260206000209050919050565b60006020601f8301049050919050565b600082821b905092915050565b60006008830261106f7fffffffffffffffffffffffffffffffffffffffffffffffffffffffffffffffff82611032565b6110798683611032565b95508019841693508086168417925050509392505050565b6000819050919050565b60006110b66110b16110ac84610d31565b611091565b610d31565b9050919050565b6000819050919050565b6110d08361109b565b6110e46110dc826110bd565b84845461103f565b825550505050565b600090565b6110f96110ec565b6111048184846110c7565b505050565b5b818110156111285761111d6000826110f1565b60018101905061110a565b5050565b601f82111561116d5761113e81610ff8565b61114784611022565b81016020851015611156578190505b61116a61116285611022565b830182611109565b50505b505050565b600082821c905092915050565b600061119060001984600802611172565b1980831691505092915050565b60006111a9838361117f565b9150826002028217905092915050565b8181036111c757505061129f565b6111d082610fe2565b67ffffffffffffffff8111156111e9576111e8610b8e565b5b6111f38254610e65565b6111fe82828561112c565b6000601f83116001811461122d576000841561121b578287015490505b611225858261119d565b865550611298565b601f19841661123b8761100d565b965061124686610ff8565b60005b8281101561126e57848901548255600182019150600185019450602081019050611249565b8683101561128b5784890154611287601f89168261117f565b8355505b6001600288020188555050505b5050505050505b565b7f4e487b7100000000000000000000000000000000000000000000000000000000600052603160045260246000fd5b60006112db82610d31565b91507fffffffffffffffffffffffffffffffffffffffffffffffffffffffffffffffff820361130d5761130c610f7f565b5b600182019050919050565b61132182610a28565b67ffffffffffffffff81111561133a57611339610b8e565b5b6113448254610e65565b61134f82828561112c565b600060209050601f8311600181146113825760008415611370578287015190505b61137a858261119d565b8655506113e2565b601f19841661139086610ff8565b60005b828110156113b857848901518255600182019150602085019450602081019050611393565b868310156113d557848901516113d1601f89168261117f565b8355505b6001600288020188555050505b50505050505056fea2646970667358221220c54c7500b11ddf0d69acce1106bb44222e4540a5e54bdc8a277a30ef8cab266b64736f6c63430008120033",
  "immutableReferences": {},
  "source": "//SPDX-License-Identifier: MIT\r\n\r\npragma solidity ^0.8.14;\r\npragma abicoder v2;\r\nimport \"./Supply_Chain_Structs.sol\";\r\nimport \"./Constants.sol\";\r\n\r\n//current address: 0x9Cc6F1A9f4D78376B73f617d5EABe83b5d74912e\r\n\r\ncontract Crop_Supply_Chain{\r\n\r\n    string[] public farmers;\r\n    string[] public seed_producers;\r\n    string[] public seeds;\r\n\r\n    //Helper functions\r\n    function compare_strings(string memory s1, string memory s2) private returns(bool) {\r\n      return keccak256(bytes(s1)) == keccak256(bytes(s2));\r\n    } \r\n\r\n    function get_farmers() public returns(string[] memory) {\r\n      return farmers;\r\n    }\r\n\r\n    function get_seed_producers() public returns(string[] memory) {\r\n      return seed_producers;\r\n    }\r\n\r\n    function get_seeds() public returns(string[] memory) {\r\n      return seeds;\r\n    }\r\n    //entity registration and deregistration done.\r\n    \r\n    function register(string memory add, string memory entity_type) public{\r\n      string[] storage entities;\r\n      if(compare_strings(entity_type, FARMER)) entities = farmers;\r\n      /* else if(entity_type == Entity_Type.Seed_Producer) entities = seed_producers; */\r\n      else entities = seeds;\r\n\r\n      entities.push(add);\r\n    }\r\n\r\n    function deregister(string memory add, string memory entity_type) public{\r\n     string[] storage entities;\r\n      if(compare_strings(entity_type, FARMER)) entities = farmers;\r\n            /* else if(entity_type == Entity_Type.Seed_Producer) entities = seed_producers; */\r\n            else entities = seeds;\r\n\r\n            for(uint i = 0; i < entities.length; i++){\r\n                if(keccak256(bytes(entities[i])) == keccak256(bytes(add))){\r\n                    entities[i] = entities[entities.length-1];\r\n                    entities.pop();\r\n                    return;\r\n                }\r\n            }\r\n    } \r\n\r\n    function is_object_valid(string memory add, string memory object_type) public returns(bool){\r\n      if(compare_strings(object_type, SEED)){\r\n        for(uint i = 0; i < seeds.length; i++){\r\n          if(compare_strings(seeds[i], add)) \r\n            return true;\r\n        }\r\n      }\r\n\r\n      return false;\r\n    }\r\n\r\n\r\n    //ab aur kya karna hai socho\r\n    //1) Entity Registration done\r\n    //2) Seed Certification Process results\r\n\r\n\r\n    //Seed Certification Tests\r\n    // function add_certification_test_results(string memory test_results, string memory test_type)public{\r\n    //   //there are a compare things to be done here\r\n    //   //1) ad\r\n    //   if(compare_strings(test_type, EVAL_ORIGIN)){\r\n\r\n    //   }\r\n    //   else if(compare_strings(test_type, FIELD_INSPECTION)){\r\n\r\n    //   }\r\n    //   else if(compare_strings(test_type, SAMPLE_INSPECTION)){\r\n\r\n    //   }\r\n    //   else if(compare_strings(test_type, BULK_INSPECTION)){\r\n\r\n    //   }\r\n    //   else if(compare_strings(test_type, CONTROL_PLOT_TESTING)){\r\n\r\n    //   }\r\n    //   else if (compare_strings(test_type, GROW_OUT_TEST)){\r\n\r\n    //   }\r\n    // }\r\n}\r\n\r\n",
  "sourcePath": "/home/samaygandhi/projects/crop_supply_chain/truffle/contracts/Crop_Supply_Chain.sol",
  "compiler": {
    "name": "solc",
    "version": "0.8.18+commit.87f61d96.Emscripten.clang"
  },
  "schemaVersion": "3.4.13",
  "updatedAt": "2023-03-29T07:21:59.792Z",
  "networkType": "ethereum",
  "devdoc": {
    "kind": "dev",
    "methods": {},
    "version": 1
  },
  "userdoc": {
    "kind": "user",
    "methods": {},
    "version": 1
  }
}