{
	"contracts/CertificationContract.sol": {
		"CertificationContract": {
			"abi": [
				{
					"inputs": [
						{
							"internalType": "string",
							"name": "",
							"type": "string"
						}
					],
					"name": "inspections",
					"outputs": [
						{
							"internalType": "string",
							"name": "ds_hash",
							"type": "string"
						},
						{
							"internalType": "uint256",
							"name": "application_timestamp",
							"type": "uint256"
						},
						{
							"internalType": "uint256",
							"name": "scheduled_inspection_timestamp",
							"type": "uint256"
						}
					],
					"stateMutability": "view",
					"type": "function"
				},
				{
					"inputs": [
						{
							"internalType": "string",
							"name": "ds_hash",
							"type": "string"
						}
					],
					"name": "request_inspection",
					"outputs": [],
					"stateMutability": "payable",
					"type": "function"
				},
				{
					"inputs": [
						{
							"internalType": "string",
							"name": "",
							"type": "string"
						}
					],
					"name": "sc_results",
					"outputs": [
						{
							"internalType": "string",
							"name": "sca_uid",
							"type": "string"
						},
						{
							"internalType": "string",
							"name": "field_inspection",
							"type": "string"
						},
						{
							"internalType": "string",
							"name": "bulk_inspection",
							"type": "string"
						},
						{
							"internalType": "string",
							"name": "eval_of_orign",
							"type": "string"
						},
						{
							"internalType": "string",
							"name": "sample_inspection",
							"type": "string"
						},
						{
							"internalType": "string",
							"name": "control_plot_testing",
							"type": "string"
						},
						{
							"internalType": "string",
							"name": "grow_out_test",
							"type": "string"
						}
					],
					"stateMutability": "view",
					"type": "function"
				},
				{
					"inputs": [
						{
							"internalType": "string",
							"name": "ds_hash",
							"type": "string"
						},
						{
							"internalType": "uint256",
							"name": "appointment_timestamp",
							"type": "uint256"
						}
					],
					"name": "schedule_inspection",
					"outputs": [],
					"stateMutability": "payable",
					"type": "function"
				},
				{
					"inputs": [
						{
							"internalType": "string",
							"name": "seed_hash",
							"type": "string"
						},
						{
							"internalType": "string",
							"name": "eval_of_orign",
							"type": "string"
						},
						{
							"internalType": "string",
							"name": "field_inspection",
							"type": "string"
						},
						{
							"internalType": "string",
							"name": "sample_inspection",
							"type": "string"
						},
						{
							"internalType": "string",
							"name": "bulk_inspection",
							"type": "string"
						},
						{
							"internalType": "string",
							"name": "control_plot_testing",
							"type": "string"
						},
						{
							"internalType": "string",
							"name": "grow_out_test",
							"type": "string"
						}
					],
					"name": "seed_certification_results",
					"outputs": [],
					"stateMutability": "payable",
					"type": "function"
				}
			],
			"devdoc": {
				"kind": "dev",
				"methods": {},
				"version": 1
			},
			"evm": {
				"assembly": "    /* \"contracts/CertificationContract.sol\":93:1289  contract CertificationContract{... */\n  mstore(0x40, 0x80)\n  callvalue\n  dup1\n  iszero\n  tag_1\n  jumpi\n  0x00\n  dup1\n  revert\ntag_1:\n  pop\n  dataSize(sub_0)\n  dup1\n  dataOffset(sub_0)\n  0x00\n  codecopy\n  0x00\n  return\nstop\n\nsub_0: assembly {\n        /* \"contracts/CertificationContract.sol\":93:1289  contract CertificationContract{... */\n      mstore(0x40, 0x80)\n      jumpi(tag_1, lt(calldatasize, 0x04))\n      shr(0xe0, calldataload(0x00))\n      dup1\n      0x225de452\n      eq\n      tag_2\n      jumpi\n      dup1\n      0x3ee6c95c\n      eq\n      tag_3\n      jumpi\n      dup1\n      0x4cd1341c\n      eq\n      tag_4\n      jumpi\n      dup1\n      0x59c90554\n      eq\n      tag_5\n      jumpi\n      dup1\n      0x7124fc8d\n      eq\n      tag_6\n      jumpi\n    tag_1:\n      0x00\n      dup1\n      revert\n        /* \"contracts/CertificationContract.sol\":642:1287  function seed_certification_results(string memory seed_hash, string memory eval_of_orign, string memory field_inspection, string memory sample_inspection, string memory bulk_inspection, string memory control_plot_testing, string memory grow_out_test)payable public{... */\n    tag_2:\n      tag_7\n      0x04\n      dup1\n      calldatasize\n      sub\n      dup2\n      add\n      swap1\n      tag_8\n      swap2\n      swap1\n      tag_9\n      jump\t// in\n    tag_8:\n      tag_10\n      jump\t// in\n    tag_7:\n      stop\n        /* \"contracts/CertificationContract.sol\":130:191  mapping(string => SeedCertificationResults) public sc_results */\n    tag_3:\n      callvalue\n      dup1\n      iszero\n      tag_11\n      jumpi\n      0x00\n      dup1\n      revert\n    tag_11:\n      pop\n      tag_12\n      0x04\n      dup1\n      calldatasize\n      sub\n      dup2\n      add\n      swap1\n      tag_13\n      swap2\n      swap1\n      tag_14\n      jump\t// in\n    tag_13:\n      tag_15\n      jump\t// in\n    tag_12:\n      mload(0x40)\n      tag_16\n      swap8\n      swap7\n      swap6\n      swap5\n      swap4\n      swap3\n      swap2\n      swap1\n      tag_17\n      jump\t// in\n    tag_16:\n      mload(0x40)\n      dup1\n      swap2\n      sub\n      swap1\n      return\n        /* \"contracts/CertificationContract.sol\":452:636  function schedule_inspection(string memory ds_hash, uint appointment_timestamp) payable public{... */\n    tag_4:\n      tag_18\n      0x04\n      dup1\n      calldatasize\n      sub\n      dup2\n      add\n      swap1\n      tag_19\n      swap2\n      swap1\n      tag_20\n      jump\t// in\n    tag_19:\n      tag_21\n      jump\t// in\n    tag_18:\n      stop\n        /* \"contracts/CertificationContract.sol\":197:245  mapping(string => Inspection) public inspections */\n    tag_5:\n      callvalue\n      dup1\n      iszero\n      tag_22\n      jumpi\n      0x00\n      dup1\n      revert\n    tag_22:\n      pop\n      tag_23\n      0x04\n      dup1\n      calldatasize\n      sub\n      dup2\n      add\n      swap1\n      tag_24\n      swap2\n      swap1\n      tag_14\n      jump\t// in\n    tag_24:\n      tag_25\n      jump\t// in\n    tag_23:\n      mload(0x40)\n      tag_26\n      swap4\n      swap3\n      swap2\n      swap1\n      tag_27\n      jump\t// in\n    tag_26:\n      mload(0x40)\n      dup1\n      swap2\n      sub\n      swap1\n      return\n        /* \"contracts/CertificationContract.sol\":252:446  function request_inspection(string memory ds_hash) payable public{... */\n    tag_6:\n      tag_28\n      0x04\n      dup1\n      calldatasize\n      sub\n      dup2\n      add\n      swap1\n      tag_29\n      swap2\n      swap1\n      tag_14\n      jump\t// in\n    tag_29:\n      tag_30\n      jump\t// in\n    tag_28:\n      stop\n        /* \"contracts/CertificationContract.sol\":642:1287  function seed_certification_results(string memory seed_hash, string memory eval_of_orign, string memory field_inspection, string memory sample_inspection, string memory bulk_inspection, string memory control_plot_testing, string memory grow_out_test)payable public{... */\n    tag_10:\n        /* \"contracts/CertificationContract.sol\":914:954  SeedCertificationResults storage results */\n      0x00\n        /* \"contracts/CertificationContract.sol\":957:967  sc_results */\n      dup1\n        /* \"contracts/CertificationContract.sol\":968:977  seed_hash */\n      dup9\n        /* \"contracts/CertificationContract.sol\":957:978  sc_results[seed_hash] */\n      mload(0x40)\n      tag_32\n      swap2\n      swap1\n      tag_33\n      jump\t// in\n    tag_32:\n      swap1\n      dup2\n      mstore\n      0x20\n      add\n      mload(0x40)\n      dup1\n      swap2\n      sub\n      swap1\n      keccak256\n        /* \"contracts/CertificationContract.sol\":914:978  SeedCertificationResults storage results = sc_results[seed_hash] */\n      swap1\n      pop\n        /* \"contracts/CertificationContract.sol\":1010:1023  eval_of_orign */\n      dup7\n        /* \"contracts/CertificationContract.sol\":986:993  results */\n      dup2\n        /* \"contracts/CertificationContract.sol\":986:1007  results.eval_of_orign */\n      0x03\n      add\n        /* \"contracts/CertificationContract.sol\":986:1023  results.eval_of_orign = eval_of_orign */\n      swap1\n      dup2\n      tag_34\n      swap2\n      swap1\n      tag_35\n      jump\t// in\n    tag_34:\n      pop\n        /* \"contracts/CertificationContract.sol\":1058:1074  field_inspection */\n      dup6\n        /* \"contracts/CertificationContract.sol\":1031:1038  results */\n      dup2\n        /* \"contracts/CertificationContract.sol\":1031:1055  results.field_inspection */\n      0x01\n      add\n        /* \"contracts/CertificationContract.sol\":1031:1074  results.field_inspection = field_inspection */\n      swap1\n      dup2\n      tag_36\n      swap2\n      swap1\n      tag_35\n      jump\t// in\n    tag_36:\n      pop\n        /* \"contracts/CertificationContract.sol\":1110:1127  sample_inspection */\n      dup5\n        /* \"contracts/CertificationContract.sol\":1082:1089  results */\n      dup2\n        /* \"contracts/CertificationContract.sol\":1082:1107  results.sample_inspection */\n      0x04\n      add\n        /* \"contracts/CertificationContract.sol\":1082:1127  results.sample_inspection = sample_inspection */\n      swap1\n      dup2\n      tag_37\n      swap2\n      swap1\n      tag_35\n      jump\t// in\n    tag_37:\n      pop\n        /* \"contracts/CertificationContract.sol\":1161:1176  bulk_inspection */\n      dup4\n        /* \"contracts/CertificationContract.sol\":1135:1142  results */\n      dup2\n        /* \"contracts/CertificationContract.sol\":1135:1158  results.bulk_inspection */\n      0x02\n      add\n        /* \"contracts/CertificationContract.sol\":1135:1176  results.bulk_inspection = bulk_inspection */\n      swap1\n      dup2\n      tag_38\n      swap2\n      swap1\n      tag_35\n      jump\t// in\n    tag_38:\n      pop\n        /* \"contracts/CertificationContract.sol\":1215:1235  control_plot_testing */\n      dup3\n        /* \"contracts/CertificationContract.sol\":1184:1191  results */\n      dup2\n        /* \"contracts/CertificationContract.sol\":1184:1212  results.control_plot_testing */\n      0x05\n      add\n        /* \"contracts/CertificationContract.sol\":1184:1235  results.control_plot_testing = control_plot_testing */\n      swap1\n      dup2\n      tag_39\n      swap2\n      swap1\n      tag_35\n      jump\t// in\n    tag_39:\n      pop\n        /* \"contracts/CertificationContract.sol\":1267:1280  grow_out_test */\n      dup2\n        /* \"contracts/CertificationContract.sol\":1243:1250  results */\n      dup2\n        /* \"contracts/CertificationContract.sol\":1243:1264  results.grow_out_test */\n      0x06\n      add\n        /* \"contracts/CertificationContract.sol\":1243:1280  results.grow_out_test = grow_out_test */\n      swap1\n      dup2\n      tag_40\n      swap2\n      swap1\n      tag_35\n      jump\t// in\n    tag_40:\n      pop\n        /* \"contracts/CertificationContract.sol\":906:1287  {... */\n      pop\n        /* \"contracts/CertificationContract.sol\":642:1287  function seed_certification_results(string memory seed_hash, string memory eval_of_orign, string memory field_inspection, string memory sample_inspection, string memory bulk_inspection, string memory control_plot_testing, string memory grow_out_test)payable public{... */\n      pop\n      pop\n      pop\n      pop\n      pop\n      pop\n      pop\n      jump\t// out\n        /* \"contracts/CertificationContract.sol\":130:191  mapping(string => SeedCertificationResults) public sc_results */\n    tag_15:\n      0x00\n      dup2\n      dup1\n      mload\n      0x20\n      dup2\n      add\n      dup3\n      add\n      dup1\n      mload\n      dup5\n      dup3\n      mstore\n      0x20\n      dup4\n      add\n      0x20\n      dup6\n      add\n      keccak256\n      dup2\n      dup4\n      mstore\n      dup1\n      swap6\n      pop\n      pop\n      pop\n      pop\n      pop\n      pop\n      0x00\n      swap2\n      pop\n      swap1\n      pop\n      dup1\n      0x00\n      add\n      dup1\n      sload\n      tag_41\n      swap1\n      tag_42\n      jump\t// in\n    tag_41:\n      dup1\n      0x1f\n      add\n      0x20\n      dup1\n      swap2\n      div\n      mul\n      0x20\n      add\n      mload(0x40)\n      swap1\n      dup2\n      add\n      0x40\n      mstore\n      dup1\n      swap3\n      swap2\n      swap1\n      dup2\n      dup2\n      mstore\n      0x20\n      add\n      dup3\n      dup1\n      sload\n      tag_43\n      swap1\n      tag_42\n      jump\t// in\n    tag_43:\n      dup1\n      iszero\n      tag_44\n      jumpi\n      dup1\n      0x1f\n      lt\n      tag_45\n      jumpi\n      0x0100\n      dup1\n      dup4\n      sload\n      div\n      mul\n      dup4\n      mstore\n      swap2\n      0x20\n      add\n      swap2\n      jump(tag_44)\n    tag_45:\n      dup3\n      add\n      swap2\n      swap1\n      0x00\n      mstore\n      keccak256(0x00, 0x20)\n      swap1\n    tag_46:\n      dup2\n      sload\n      dup2\n      mstore\n      swap1\n      0x01\n      add\n      swap1\n      0x20\n      add\n      dup1\n      dup4\n      gt\n      tag_46\n      jumpi\n      dup3\n      swap1\n      sub\n      0x1f\n      and\n      dup3\n      add\n      swap2\n    tag_44:\n      pop\n      pop\n      pop\n      pop\n      pop\n      swap1\n      dup1\n      0x01\n      add\n      dup1\n      sload\n      tag_47\n      swap1\n      tag_42\n      jump\t// in\n    tag_47:\n      dup1\n      0x1f\n      add\n      0x20\n      dup1\n      swap2\n      div\n      mul\n      0x20\n      add\n      mload(0x40)\n      swap1\n      dup2\n      add\n      0x40\n      mstore\n      dup1\n      swap3\n      swap2\n      swap1\n      dup2\n      dup2\n      mstore\n      0x20\n      add\n      dup3\n      dup1\n      sload\n      tag_48\n      swap1\n      tag_42\n      jump\t// in\n    tag_48:\n      dup1\n      iszero\n      tag_49\n      jumpi\n      dup1\n      0x1f\n      lt\n      tag_50\n      jumpi\n      0x0100\n      dup1\n      dup4\n      sload\n      div\n      mul\n      dup4\n      mstore\n      swap2\n      0x20\n      add\n      swap2\n      jump(tag_49)\n    tag_50:\n      dup3\n      add\n      swap2\n      swap1\n      0x00\n      mstore\n      keccak256(0x00, 0x20)\n      swap1\n    tag_51:\n      dup2\n      sload\n      dup2\n      mstore\n      swap1\n      0x01\n      add\n      swap1\n      0x20\n      add\n      dup1\n      dup4\n      gt\n      tag_51\n      jumpi\n      dup3\n      swap1\n      sub\n      0x1f\n      and\n      dup3\n      add\n      swap2\n    tag_49:\n      pop\n      pop\n      pop\n      pop\n      pop\n      swap1\n      dup1\n      0x02\n      add\n      dup1\n      sload\n      tag_52\n      swap1\n      tag_42\n      jump\t// in\n    tag_52:\n      dup1\n      0x1f\n      add\n      0x20\n      dup1\n      swap2\n      div\n      mul\n      0x20\n      add\n      mload(0x40)\n      swap1\n      dup2\n      add\n      0x40\n      mstore\n      dup1\n      swap3\n      swap2\n      swap1\n      dup2\n      dup2\n      mstore\n      0x20\n      add\n      dup3\n      dup1\n      sload\n      tag_53\n      swap1\n      tag_42\n      jump\t// in\n    tag_53:\n      dup1\n      iszero\n      tag_54\n      jumpi\n      dup1\n      0x1f\n      lt\n      tag_55\n      jumpi\n      0x0100\n      dup1\n      dup4\n      sload\n      div\n      mul\n      dup4\n      mstore\n      swap2\n      0x20\n      add\n      swap2\n      jump(tag_54)\n    tag_55:\n      dup3\n      add\n      swap2\n      swap1\n      0x00\n      mstore\n      keccak256(0x00, 0x20)\n      swap1\n    tag_56:\n      dup2\n      sload\n      dup2\n      mstore\n      swap1\n      0x01\n      add\n      swap1\n      0x20\n      add\n      dup1\n      dup4\n      gt\n      tag_56\n      jumpi\n      dup3\n      swap1\n      sub\n      0x1f\n      and\n      dup3\n      add\n      swap2\n    tag_54:\n      pop\n      pop\n      pop\n      pop\n      pop\n      swap1\n      dup1\n      0x03\n      add\n      dup1\n      sload\n      tag_57\n      swap1\n      tag_42\n      jump\t// in\n    tag_57:\n      dup1\n      0x1f\n      add\n      0x20\n      dup1\n      swap2\n      div\n      mul\n      0x20\n      add\n      mload(0x40)\n      swap1\n      dup2\n      add\n      0x40\n      mstore\n      dup1\n      swap3\n      swap2\n      swap1\n      dup2\n      dup2\n      mstore\n      0x20\n      add\n      dup3\n      dup1\n      sload\n      tag_58\n      swap1\n      tag_42\n      jump\t// in\n    tag_58:\n      dup1\n      iszero\n      tag_59\n      jumpi\n      dup1\n      0x1f\n      lt\n      tag_60\n      jumpi\n      0x0100\n      dup1\n      dup4\n      sload\n      div\n      mul\n      dup4\n      mstore\n      swap2\n      0x20\n      add\n      swap2\n      jump(tag_59)\n    tag_60:\n      dup3\n      add\n      swap2\n      swap1\n      0x00\n      mstore\n      keccak256(0x00, 0x20)\n      swap1\n    tag_61:\n      dup2\n      sload\n      dup2\n      mstore\n      swap1\n      0x01\n      add\n      swap1\n      0x20\n      add\n      dup1\n      dup4\n      gt\n      tag_61\n      jumpi\n      dup3\n      swap1\n      sub\n      0x1f\n      and\n      dup3\n      add\n      swap2\n    tag_59:\n      pop\n      pop\n      pop\n      pop\n      pop\n      swap1\n      dup1\n      0x04\n      add\n      dup1\n      sload\n      tag_62\n      swap1\n      tag_42\n      jump\t// in\n    tag_62:\n      dup1\n      0x1f\n      add\n      0x20\n      dup1\n      swap2\n      div\n      mul\n      0x20\n      add\n      mload(0x40)\n      swap1\n      dup2\n      add\n      0x40\n      mstore\n      dup1\n      swap3\n      swap2\n      swap1\n      dup2\n      dup2\n      mstore\n      0x20\n      add\n      dup3\n      dup1\n      sload\n      tag_63\n      swap1\n      tag_42\n      jump\t// in\n    tag_63:\n      dup1\n      iszero\n      tag_64\n      jumpi\n      dup1\n      0x1f\n      lt\n      tag_65\n      jumpi\n      0x0100\n      dup1\n      dup4\n      sload\n      div\n      mul\n      dup4\n      mstore\n      swap2\n      0x20\n      add\n      swap2\n      jump(tag_64)\n    tag_65:\n      dup3\n      add\n      swap2\n      swap1\n      0x00\n      mstore\n      keccak256(0x00, 0x20)\n      swap1\n    tag_66:\n      dup2\n      sload\n      dup2\n      mstore\n      swap1\n      0x01\n      add\n      swap1\n      0x20\n      add\n      dup1\n      dup4\n      gt\n      tag_66\n      jumpi\n      dup3\n      swap1\n      sub\n      0x1f\n      and\n      dup3\n      add\n      swap2\n    tag_64:\n      pop\n      pop\n      pop\n      pop\n      pop\n      swap1\n      dup1\n      0x05\n      add\n      dup1\n      sload\n      tag_67\n      swap1\n      tag_42\n      jump\t// in\n    tag_67:\n      dup1\n      0x1f\n      add\n      0x20\n      dup1\n      swap2\n      div\n      mul\n      0x20\n      add\n      mload(0x40)\n      swap1\n      dup2\n      add\n      0x40\n      mstore\n      dup1\n      swap3\n      swap2\n      swap1\n      dup2\n      dup2\n      mstore\n      0x20\n      add\n      dup3\n      dup1\n      sload\n      tag_68\n      swap1\n      tag_42\n      jump\t// in\n    tag_68:\n      dup1\n      iszero\n      tag_69\n      jumpi\n      dup1\n      0x1f\n      lt\n      tag_70\n      jumpi\n      0x0100\n      dup1\n      dup4\n      sload\n      div\n      mul\n      dup4\n      mstore\n      swap2\n      0x20\n      add\n      swap2\n      jump(tag_69)\n    tag_70:\n      dup3\n      add\n      swap2\n      swap1\n      0x00\n      mstore\n      keccak256(0x00, 0x20)\n      swap1\n    tag_71:\n      dup2\n      sload\n      dup2\n      mstore\n      swap1\n      0x01\n      add\n      swap1\n      0x20\n      add\n      dup1\n      dup4\n      gt\n      tag_71\n      jumpi\n      dup3\n      swap1\n      sub\n      0x1f\n      and\n      dup3\n      add\n      swap2\n    tag_69:\n      pop\n      pop\n      pop\n      pop\n      pop\n      swap1\n      dup1\n      0x06\n      add\n      dup1\n      sload\n      tag_72\n      swap1\n      tag_42\n      jump\t// in\n    tag_72:\n      dup1\n      0x1f\n      add\n      0x20\n      dup1\n      swap2\n      div\n      mul\n      0x20\n      add\n      mload(0x40)\n      swap1\n      dup2\n      add\n      0x40\n      mstore\n      dup1\n      swap3\n      swap2\n      swap1\n      dup2\n      dup2\n      mstore\n      0x20\n      add\n      dup3\n      dup1\n      sload\n      tag_73\n      swap1\n      tag_42\n      jump\t// in\n    tag_73:\n      dup1\n      iszero\n      tag_74\n      jumpi\n      dup1\n      0x1f\n      lt\n      tag_75\n      jumpi\n      0x0100\n      dup1\n      dup4\n      sload\n      div\n      mul\n      dup4\n      mstore\n      swap2\n      0x20\n      add\n      swap2\n      jump(tag_74)\n    tag_75:\n      dup3\n      add\n      swap2\n      swap1\n      0x00\n      mstore\n      keccak256(0x00, 0x20)\n      swap1\n    tag_76:\n      dup2\n      sload\n      dup2\n      mstore\n      swap1\n      0x01\n      add\n      swap1\n      0x20\n      add\n      dup1\n      dup4\n      gt\n      tag_76\n      jumpi\n      dup3\n      swap1\n      sub\n      0x1f\n      and\n      dup3\n      add\n      swap2\n    tag_74:\n      pop\n      pop\n      pop\n      pop\n      pop\n      swap1\n      pop\n      dup8\n      jump\t// out\n        /* \"contracts/CertificationContract.sol\":452:636  function schedule_inspection(string memory ds_hash, uint appointment_timestamp) payable public{... */\n    tag_21:\n        /* \"contracts/CertificationContract.sol\":608:629  appointment_timestamp */\n      dup1\n        /* \"contracts/CertificationContract.sol\":554:565  inspections */\n      0x01\n        /* \"contracts/CertificationContract.sol\":566:573  ds_hash */\n      dup4\n        /* \"contracts/CertificationContract.sol\":554:574  inspections[ds_hash] */\n      mload(0x40)\n      tag_78\n      swap2\n      swap1\n      tag_33\n      jump\t// in\n    tag_78:\n      swap1\n      dup2\n      mstore\n      0x20\n      add\n      mload(0x40)\n      dup1\n      swap2\n      sub\n      swap1\n      keccak256\n        /* \"contracts/CertificationContract.sol\":554:605  inspections[ds_hash].scheduled_inspection_timestamp */\n      0x02\n      add\n        /* \"contracts/CertificationContract.sol\":554:629  inspections[ds_hash].scheduled_inspection_timestamp = appointment_timestamp */\n      dup2\n      swap1\n      sstore\n      pop\n        /* \"contracts/CertificationContract.sol\":452:636  function schedule_inspection(string memory ds_hash, uint appointment_timestamp) payable public{... */\n      pop\n      pop\n      jump\t// out\n        /* \"contracts/CertificationContract.sol\":197:245  mapping(string => Inspection) public inspections */\n    tag_25:\n      0x01\n      dup2\n      dup1\n      mload\n      0x20\n      dup2\n      add\n      dup3\n      add\n      dup1\n      mload\n      dup5\n      dup3\n      mstore\n      0x20\n      dup4\n      add\n      0x20\n      dup6\n      add\n      keccak256\n      dup2\n      dup4\n      mstore\n      dup1\n      swap6\n      pop\n      pop\n      pop\n      pop\n      pop\n      pop\n      0x00\n      swap2\n      pop\n      swap1\n      pop\n      dup1\n      0x00\n      add\n      dup1\n      sload\n      tag_79\n      swap1\n      tag_42\n      jump\t// in\n    tag_79:\n      dup1\n      0x1f\n      add\n      0x20\n      dup1\n      swap2\n      div\n      mul\n      0x20\n      add\n      mload(0x40)\n      swap1\n      dup2\n      add\n      0x40\n      mstore\n      dup1\n      swap3\n      swap2\n      swap1\n      dup2\n      dup2\n      mstore\n      0x20\n      add\n      dup3\n      dup1\n      sload\n      tag_80\n      swap1\n      tag_42\n      jump\t// in\n    tag_80:\n      dup1\n      iszero\n      tag_81\n      jumpi\n      dup1\n      0x1f\n      lt\n      tag_82\n      jumpi\n      0x0100\n      dup1\n      dup4\n      sload\n      div\n      mul\n      dup4\n      mstore\n      swap2\n      0x20\n      add\n      swap2\n      jump(tag_81)\n    tag_82:\n      dup3\n      add\n      swap2\n      swap1\n      0x00\n      mstore\n      keccak256(0x00, 0x20)\n      swap1\n    tag_83:\n      dup2\n      sload\n      dup2\n      mstore\n      swap1\n      0x01\n      add\n      swap1\n      0x20\n      add\n      dup1\n      dup4\n      gt\n      tag_83\n      jumpi\n      dup3\n      swap1\n      sub\n      0x1f\n      and\n      dup3\n      add\n      swap2\n    tag_81:\n      pop\n      pop\n      pop\n      pop\n      pop\n      swap1\n      dup1\n      0x01\n      add\n      sload\n      swap1\n      dup1\n      0x02\n      add\n      sload\n      swap1\n      pop\n      dup4\n      jump\t// out\n        /* \"contracts/CertificationContract.sol\":252:446  function request_inspection(string memory ds_hash) payable public{... */\n    tag_30:\n        /* \"contracts/CertificationContract.sol\":327:356  Inspection storage inspection */\n      0x00\n        /* \"contracts/CertificationContract.sol\":359:370  inspections */\n      0x01\n        /* \"contracts/CertificationContract.sol\":371:378  ds_hash */\n      dup3\n        /* \"contracts/CertificationContract.sol\":359:379  inspections[ds_hash] */\n      mload(0x40)\n      tag_85\n      swap2\n      swap1\n      tag_33\n      jump\t// in\n    tag_85:\n      swap1\n      dup2\n      mstore\n      0x20\n      add\n      mload(0x40)\n      dup1\n      swap2\n      sub\n      swap1\n      keccak256\n        /* \"contracts/CertificationContract.sol\":327:379  Inspection storage inspection = inspections[ds_hash] */\n      swap1\n      pop\n        /* \"contracts/CertificationContract.sol\":424:439  block.timestamp */\n      timestamp\n        /* \"contracts/CertificationContract.sol\":389:399  inspection */\n      dup2\n        /* \"contracts/CertificationContract.sol\":389:421  inspection.application_timestamp */\n      0x01\n      add\n        /* \"contracts/CertificationContract.sol\":389:439  inspection.application_timestamp = block.timestamp */\n      dup2\n      swap1\n      sstore\n      pop\n        /* \"contracts/CertificationContract.sol\":317:446  {... */\n      pop\n        /* \"contracts/CertificationContract.sol\":252:446  function request_inspection(string memory ds_hash) payable public{... */\n      pop\n      jump\t// out\n        /* \"#utility.yul\":7:82   */\n    tag_86:\n        /* \"#utility.yul\":40:46   */\n      0x00\n        /* \"#utility.yul\":73:75   */\n      0x40\n        /* \"#utility.yul\":67:76   */\n      mload\n        /* \"#utility.yul\":57:76   */\n      swap1\n      pop\n        /* \"#utility.yul\":7:82   */\n      swap1\n      jump\t// out\n        /* \"#utility.yul\":88:205   */\n    tag_87:\n        /* \"#utility.yul\":197:198   */\n      0x00\n        /* \"#utility.yul\":194:195   */\n      dup1\n        /* \"#utility.yul\":187:199   */\n      revert\n        /* \"#utility.yul\":211:328   */\n    tag_88:\n        /* \"#utility.yul\":320:321   */\n      0x00\n        /* \"#utility.yul\":317:318   */\n      dup1\n        /* \"#utility.yul\":310:322   */\n      revert\n        /* \"#utility.yul\":334:451   */\n    tag_89:\n        /* \"#utility.yul\":443:444   */\n      0x00\n        /* \"#utility.yul\":440:441   */\n      dup1\n        /* \"#utility.yul\":433:445   */\n      revert\n        /* \"#utility.yul\":457:574   */\n    tag_90:\n        /* \"#utility.yul\":566:567   */\n      0x00\n        /* \"#utility.yul\":563:564   */\n      dup1\n        /* \"#utility.yul\":556:568   */\n      revert\n        /* \"#utility.yul\":580:682   */\n    tag_91:\n        /* \"#utility.yul\":621:627   */\n      0x00\n        /* \"#utility.yul\":672:674   */\n      0x1f\n        /* \"#utility.yul\":668:675   */\n      not\n        /* \"#utility.yul\":663:665   */\n      0x1f\n        /* \"#utility.yul\":656:661   */\n      dup4\n        /* \"#utility.yul\":652:666   */\n      add\n        /* \"#utility.yul\":648:676   */\n      and\n        /* \"#utility.yul\":638:676   */\n      swap1\n      pop\n        /* \"#utility.yul\":580:682   */\n      swap2\n      swap1\n      pop\n      jump\t// out\n        /* \"#utility.yul\":688:868   */\n    tag_92:\n        /* \"#utility.yul\":736:813   */\n      0x4e487b7100000000000000000000000000000000000000000000000000000000\n        /* \"#utility.yul\":733:734   */\n      0x00\n        /* \"#utility.yul\":726:814   */\n      mstore\n        /* \"#utility.yul\":833:837   */\n      0x41\n        /* \"#utility.yul\":830:831   */\n      0x04\n        /* \"#utility.yul\":823:838   */\n      mstore\n        /* \"#utility.yul\":857:861   */\n      0x24\n        /* \"#utility.yul\":854:855   */\n      0x00\n        /* \"#utility.yul\":847:862   */\n      revert\n        /* \"#utility.yul\":874:1155   */\n    tag_93:\n        /* \"#utility.yul\":957:984   */\n      tag_134\n        /* \"#utility.yul\":979:983   */\n      dup3\n        /* \"#utility.yul\":957:984   */\n      tag_91\n      jump\t// in\n    tag_134:\n        /* \"#utility.yul\":949:955   */\n      dup2\n        /* \"#utility.yul\":945:985   */\n      add\n        /* \"#utility.yul\":1087:1093   */\n      dup2\n        /* \"#utility.yul\":1075:1085   */\n      dup2\n        /* \"#utility.yul\":1072:1094   */\n      lt\n        /* \"#utility.yul\":1051:1069   */\n      0xffffffffffffffff\n        /* \"#utility.yul\":1039:1049   */\n      dup3\n        /* \"#utility.yul\":1036:1070   */\n      gt\n        /* \"#utility.yul\":1033:1095   */\n      or\n        /* \"#utility.yul\":1030:1118   */\n      iszero\n      tag_135\n      jumpi\n        /* \"#utility.yul\":1098:1116   */\n      tag_136\n      tag_92\n      jump\t// in\n    tag_136:\n        /* \"#utility.yul\":1030:1118   */\n    tag_135:\n        /* \"#utility.yul\":1138:1148   */\n      dup1\n        /* \"#utility.yul\":1134:1136   */\n      0x40\n        /* \"#utility.yul\":1127:1149   */\n      mstore\n        /* \"#utility.yul\":917:1155   */\n      pop\n        /* \"#utility.yul\":874:1155   */\n      pop\n      pop\n      jump\t// out\n        /* \"#utility.yul\":1161:1290   */\n    tag_94:\n        /* \"#utility.yul\":1195:1201   */\n      0x00\n        /* \"#utility.yul\":1222:1242   */\n      tag_138\n      tag_86\n      jump\t// in\n    tag_138:\n        /* \"#utility.yul\":1212:1242   */\n      swap1\n      pop\n        /* \"#utility.yul\":1251:1284   */\n      tag_139\n        /* \"#utility.yul\":1279:1283   */\n      dup3\n        /* \"#utility.yul\":1271:1277   */\n      dup3\n        /* \"#utility.yul\":1251:1284   */\n      tag_93\n      jump\t// in\n    tag_139:\n        /* \"#utility.yul\":1161:1290   */\n      swap2\n      swap1\n      pop\n      jump\t// out\n        /* \"#utility.yul\":1296:1604   */\n    tag_95:\n        /* \"#utility.yul\":1358:1362   */\n      0x00\n        /* \"#utility.yul\":1448:1466   */\n      0xffffffffffffffff\n        /* \"#utility.yul\":1440:1446   */\n      dup3\n        /* \"#utility.yul\":1437:1467   */\n      gt\n        /* \"#utility.yul\":1434:1490   */\n      iszero\n      tag_141\n      jumpi\n        /* \"#utility.yul\":1470:1488   */\n      tag_142\n      tag_92\n      jump\t// in\n    tag_142:\n        /* \"#utility.yul\":1434:1490   */\n    tag_141:\n        /* \"#utility.yul\":1508:1537   */\n      tag_143\n        /* \"#utility.yul\":1530:1536   */\n      dup3\n        /* \"#utility.yul\":1508:1537   */\n      tag_91\n      jump\t// in\n    tag_143:\n        /* \"#utility.yul\":1500:1537   */\n      swap1\n      pop\n        /* \"#utility.yul\":1592:1596   */\n      0x20\n        /* \"#utility.yul\":1586:1590   */\n      dup2\n        /* \"#utility.yul\":1582:1597   */\n      add\n        /* \"#utility.yul\":1574:1597   */\n      swap1\n      pop\n        /* \"#utility.yul\":1296:1604   */\n      swap2\n      swap1\n      pop\n      jump\t// out\n        /* \"#utility.yul\":1610:1756   */\n    tag_96:\n        /* \"#utility.yul\":1707:1713   */\n      dup3\n        /* \"#utility.yul\":1702:1705   */\n      dup2\n        /* \"#utility.yul\":1697:1700   */\n      dup4\n        /* \"#utility.yul\":1684:1714   */\n      calldatacopy\n        /* \"#utility.yul\":1748:1749   */\n      0x00\n        /* \"#utility.yul\":1739:1745   */\n      dup4\n        /* \"#utility.yul\":1734:1737   */\n      dup4\n        /* \"#utility.yul\":1730:1746   */\n      add\n        /* \"#utility.yul\":1723:1750   */\n      mstore\n        /* \"#utility.yul\":1610:1756   */\n      pop\n      pop\n      pop\n      jump\t// out\n        /* \"#utility.yul\":1762:2187   */\n    tag_97:\n        /* \"#utility.yul\":1840:1845   */\n      0x00\n        /* \"#utility.yul\":1865:1931   */\n      tag_146\n        /* \"#utility.yul\":1881:1930   */\n      tag_147\n        /* \"#utility.yul\":1923:1929   */\n      dup5\n        /* \"#utility.yul\":1881:1930   */\n      tag_95\n      jump\t// in\n    tag_147:\n        /* \"#utility.yul\":1865:1931   */\n      tag_94\n      jump\t// in\n    tag_146:\n        /* \"#utility.yul\":1856:1931   */\n      swap1\n      pop\n        /* \"#utility.yul\":1954:1960   */\n      dup3\n        /* \"#utility.yul\":1947:1952   */\n      dup2\n        /* \"#utility.yul\":1940:1961   */\n      mstore\n        /* \"#utility.yul\":1992:1996   */\n      0x20\n        /* \"#utility.yul\":1985:1990   */\n      dup2\n        /* \"#utility.yul\":1981:1997   */\n      add\n        /* \"#utility.yul\":2030:2033   */\n      dup5\n        /* \"#utility.yul\":2021:2027   */\n      dup5\n        /* \"#utility.yul\":2016:2019   */\n      dup5\n        /* \"#utility.yul\":2012:2028   */\n      add\n        /* \"#utility.yul\":2009:2034   */\n      gt\n        /* \"#utility.yul\":2006:2118   */\n      iszero\n      tag_148\n      jumpi\n        /* \"#utility.yul\":2037:2116   */\n      tag_149\n      tag_90\n      jump\t// in\n    tag_149:\n        /* \"#utility.yul\":2006:2118   */\n    tag_148:\n        /* \"#utility.yul\":2127:2181   */\n      tag_150\n        /* \"#utility.yul\":2174:2180   */\n      dup5\n        /* \"#utility.yul\":2169:2172   */\n      dup3\n        /* \"#utility.yul\":2164:2167   */\n      dup6\n        /* \"#utility.yul\":2127:2181   */\n      tag_96\n      jump\t// in\n    tag_150:\n        /* \"#utility.yul\":1846:2187   */\n      pop\n        /* \"#utility.yul\":1762:2187   */\n      swap4\n      swap3\n      pop\n      pop\n      pop\n      jump\t// out\n        /* \"#utility.yul\":2207:2547   */\n    tag_98:\n        /* \"#utility.yul\":2263:2268   */\n      0x00\n        /* \"#utility.yul\":2312:2315   */\n      dup3\n        /* \"#utility.yul\":2305:2309   */\n      0x1f\n        /* \"#utility.yul\":2297:2303   */\n      dup4\n        /* \"#utility.yul\":2293:2310   */\n      add\n        /* \"#utility.yul\":2289:2316   */\n      slt\n        /* \"#utility.yul\":2279:2401   */\n      tag_152\n      jumpi\n        /* \"#utility.yul\":2320:2399   */\n      tag_153\n      tag_89\n      jump\t// in\n    tag_153:\n        /* \"#utility.yul\":2279:2401   */\n    tag_152:\n        /* \"#utility.yul\":2437:2443   */\n      dup2\n        /* \"#utility.yul\":2424:2444   */\n      calldataload\n        /* \"#utility.yul\":2462:2541   */\n      tag_154\n        /* \"#utility.yul\":2537:2540   */\n      dup5\n        /* \"#utility.yul\":2529:2535   */\n      dup3\n        /* \"#utility.yul\":2522:2526   */\n      0x20\n        /* \"#utility.yul\":2514:2520   */\n      dup7\n        /* \"#utility.yul\":2510:2527   */\n      add\n        /* \"#utility.yul\":2462:2541   */\n      tag_97\n      jump\t// in\n    tag_154:\n        /* \"#utility.yul\":2453:2541   */\n      swap2\n      pop\n        /* \"#utility.yul\":2269:2547   */\n      pop\n        /* \"#utility.yul\":2207:2547   */\n      swap3\n      swap2\n      pop\n      pop\n      jump\t// out\n        /* \"#utility.yul\":2553:5016   */\n    tag_9:\n        /* \"#utility.yul\":2736:2742   */\n      0x00\n        /* \"#utility.yul\":2744:2750   */\n      dup1\n        /* \"#utility.yul\":2752:2758   */\n      0x00\n        /* \"#utility.yul\":2760:2766   */\n      dup1\n        /* \"#utility.yul\":2768:2774   */\n      0x00\n        /* \"#utility.yul\":2776:2782   */\n      dup1\n        /* \"#utility.yul\":2784:2790   */\n      0x00\n        /* \"#utility.yul\":2833:2836   */\n      0xe0\n        /* \"#utility.yul\":2821:2830   */\n      dup9\n        /* \"#utility.yul\":2812:2819   */\n      dup11\n        /* \"#utility.yul\":2808:2831   */\n      sub\n        /* \"#utility.yul\":2804:2837   */\n      slt\n        /* \"#utility.yul\":2801:2921   */\n      iszero\n      tag_156\n      jumpi\n        /* \"#utility.yul\":2840:2919   */\n      tag_157\n      tag_87\n      jump\t// in\n    tag_157:\n        /* \"#utility.yul\":2801:2921   */\n    tag_156:\n        /* \"#utility.yul\":2988:2989   */\n      0x00\n        /* \"#utility.yul\":2977:2986   */\n      dup9\n        /* \"#utility.yul\":2973:2990   */\n      add\n        /* \"#utility.yul\":2960:2991   */\n      calldataload\n        /* \"#utility.yul\":3018:3036   */\n      0xffffffffffffffff\n        /* \"#utility.yul\":3010:3016   */\n      dup2\n        /* \"#utility.yul\":3007:3037   */\n      gt\n        /* \"#utility.yul\":3004:3121   */\n      iszero\n      tag_158\n      jumpi\n        /* \"#utility.yul\":3040:3119   */\n      tag_159\n      tag_88\n      jump\t// in\n    tag_159:\n        /* \"#utility.yul\":3004:3121   */\n    tag_158:\n        /* \"#utility.yul\":3145:3208   */\n      tag_160\n        /* \"#utility.yul\":3200:3207   */\n      dup11\n        /* \"#utility.yul\":3191:3197   */\n      dup3\n        /* \"#utility.yul\":3180:3189   */\n      dup12\n        /* \"#utility.yul\":3176:3198   */\n      add\n        /* \"#utility.yul\":3145:3208   */\n      tag_98\n      jump\t// in\n    tag_160:\n        /* \"#utility.yul\":3135:3208   */\n      swap8\n      pop\n        /* \"#utility.yul\":2931:3218   */\n      pop\n        /* \"#utility.yul\":3285:3287   */\n      0x20\n        /* \"#utility.yul\":3274:3283   */\n      dup9\n        /* \"#utility.yul\":3270:3288   */\n      add\n        /* \"#utility.yul\":3257:3289   */\n      calldataload\n        /* \"#utility.yul\":3316:3334   */\n      0xffffffffffffffff\n        /* \"#utility.yul\":3308:3314   */\n      dup2\n        /* \"#utility.yul\":3305:3335   */\n      gt\n        /* \"#utility.yul\":3302:3419   */\n      iszero\n      tag_161\n      jumpi\n        /* \"#utility.yul\":3338:3417   */\n      tag_162\n      tag_88\n      jump\t// in\n    tag_162:\n        /* \"#utility.yul\":3302:3419   */\n    tag_161:\n        /* \"#utility.yul\":3443:3506   */\n      tag_163\n        /* \"#utility.yul\":3498:3505   */\n      dup11\n        /* \"#utility.yul\":3489:3495   */\n      dup3\n        /* \"#utility.yul\":3478:3487   */\n      dup12\n        /* \"#utility.yul\":3474:3496   */\n      add\n        /* \"#utility.yul\":3443:3506   */\n      tag_98\n      jump\t// in\n    tag_163:\n        /* \"#utility.yul\":3433:3506   */\n      swap7\n      pop\n        /* \"#utility.yul\":3228:3516   */\n      pop\n        /* \"#utility.yul\":3583:3585   */\n      0x40\n        /* \"#utility.yul\":3572:3581   */\n      dup9\n        /* \"#utility.yul\":3568:3586   */\n      add\n        /* \"#utility.yul\":3555:3587   */\n      calldataload\n        /* \"#utility.yul\":3614:3632   */\n      0xffffffffffffffff\n        /* \"#utility.yul\":3606:3612   */\n      dup2\n        /* \"#utility.yul\":3603:3633   */\n      gt\n        /* \"#utility.yul\":3600:3717   */\n      iszero\n      tag_164\n      jumpi\n        /* \"#utility.yul\":3636:3715   */\n      tag_165\n      tag_88\n      jump\t// in\n    tag_165:\n        /* \"#utility.yul\":3600:3717   */\n    tag_164:\n        /* \"#utility.yul\":3741:3804   */\n      tag_166\n        /* \"#utility.yul\":3796:3803   */\n      dup11\n        /* \"#utility.yul\":3787:3793   */\n      dup3\n        /* \"#utility.yul\":3776:3785   */\n      dup12\n        /* \"#utility.yul\":3772:3794   */\n      add\n        /* \"#utility.yul\":3741:3804   */\n      tag_98\n      jump\t// in\n    tag_166:\n        /* \"#utility.yul\":3731:3804   */\n      swap6\n      pop\n        /* \"#utility.yul\":3526:3814   */\n      pop\n        /* \"#utility.yul\":3881:3883   */\n      0x60\n        /* \"#utility.yul\":3870:3879   */\n      dup9\n        /* \"#utility.yul\":3866:3884   */\n      add\n        /* \"#utility.yul\":3853:3885   */\n      calldataload\n        /* \"#utility.yul\":3912:3930   */\n      0xffffffffffffffff\n        /* \"#utility.yul\":3904:3910   */\n      dup2\n        /* \"#utility.yul\":3901:3931   */\n      gt\n        /* \"#utility.yul\":3898:4015   */\n      iszero\n      tag_167\n      jumpi\n        /* \"#utility.yul\":3934:4013   */\n      tag_168\n      tag_88\n      jump\t// in\n    tag_168:\n        /* \"#utility.yul\":3898:4015   */\n    tag_167:\n        /* \"#utility.yul\":4039:4102   */\n      tag_169\n        /* \"#utility.yul\":4094:4101   */\n      dup11\n        /* \"#utility.yul\":4085:4091   */\n      dup3\n        /* \"#utility.yul\":4074:4083   */\n      dup12\n        /* \"#utility.yul\":4070:4092   */\n      add\n        /* \"#utility.yul\":4039:4102   */\n      tag_98\n      jump\t// in\n    tag_169:\n        /* \"#utility.yul\":4029:4102   */\n      swap5\n      pop\n        /* \"#utility.yul\":3824:4112   */\n      pop\n        /* \"#utility.yul\":4179:4182   */\n      0x80\n        /* \"#utility.yul\":4168:4177   */\n      dup9\n        /* \"#utility.yul\":4164:4183   */\n      add\n        /* \"#utility.yul\":4151:4184   */\n      calldataload\n        /* \"#utility.yul\":4211:4229   */\n      0xffffffffffffffff\n        /* \"#utility.yul\":4203:4209   */\n      dup2\n        /* \"#utility.yul\":4200:4230   */\n      gt\n        /* \"#utility.yul\":4197:4314   */\n      iszero\n      tag_170\n      jumpi\n        /* \"#utility.yul\":4233:4312   */\n      tag_171\n      tag_88\n      jump\t// in\n    tag_171:\n        /* \"#utility.yul\":4197:4314   */\n    tag_170:\n        /* \"#utility.yul\":4338:4401   */\n      tag_172\n        /* \"#utility.yul\":4393:4400   */\n      dup11\n        /* \"#utility.yul\":4384:4390   */\n      dup3\n        /* \"#utility.yul\":4373:4382   */\n      dup12\n        /* \"#utility.yul\":4369:4391   */\n      add\n        /* \"#utility.yul\":4338:4401   */\n      tag_98\n      jump\t// in\n    tag_172:\n        /* \"#utility.yul\":4328:4401   */\n      swap4\n      pop\n        /* \"#utility.yul\":4122:4411   */\n      pop\n        /* \"#utility.yul\":4478:4481   */\n      0xa0\n        /* \"#utility.yul\":4467:4476   */\n      dup9\n        /* \"#utility.yul\":4463:4482   */\n      add\n        /* \"#utility.yul\":4450:4483   */\n      calldataload\n        /* \"#utility.yul\":4510:4528   */\n      0xffffffffffffffff\n        /* \"#utility.yul\":4502:4508   */\n      dup2\n        /* \"#utility.yul\":4499:4529   */\n      gt\n        /* \"#utility.yul\":4496:4613   */\n      iszero\n      tag_173\n      jumpi\n        /* \"#utility.yul\":4532:4611   */\n      tag_174\n      tag_88\n      jump\t// in\n    tag_174:\n        /* \"#utility.yul\":4496:4613   */\n    tag_173:\n        /* \"#utility.yul\":4637:4700   */\n      tag_175\n        /* \"#utility.yul\":4692:4699   */\n      dup11\n        /* \"#utility.yul\":4683:4689   */\n      dup3\n        /* \"#utility.yul\":4672:4681   */\n      dup12\n        /* \"#utility.yul\":4668:4690   */\n      add\n        /* \"#utility.yul\":4637:4700   */\n      tag_98\n      jump\t// in\n    tag_175:\n        /* \"#utility.yul\":4627:4700   */\n      swap3\n      pop\n        /* \"#utility.yul\":4421:4710   */\n      pop\n        /* \"#utility.yul\":4777:4780   */\n      0xc0\n        /* \"#utility.yul\":4766:4775   */\n      dup9\n        /* \"#utility.yul\":4762:4781   */\n      add\n        /* \"#utility.yul\":4749:4782   */\n      calldataload\n        /* \"#utility.yul\":4809:4827   */\n      0xffffffffffffffff\n        /* \"#utility.yul\":4801:4807   */\n      dup2\n        /* \"#utility.yul\":4798:4828   */\n      gt\n        /* \"#utility.yul\":4795:4912   */\n      iszero\n      tag_176\n      jumpi\n        /* \"#utility.yul\":4831:4910   */\n      tag_177\n      tag_88\n      jump\t// in\n    tag_177:\n        /* \"#utility.yul\":4795:4912   */\n    tag_176:\n        /* \"#utility.yul\":4936:4999   */\n      tag_178\n        /* \"#utility.yul\":4991:4998   */\n      dup11\n        /* \"#utility.yul\":4982:4988   */\n      dup3\n        /* \"#utility.yul\":4971:4980   */\n      dup12\n        /* \"#utility.yul\":4967:4989   */\n      add\n        /* \"#utility.yul\":4936:4999   */\n      tag_98\n      jump\t// in\n    tag_178:\n        /* \"#utility.yul\":4926:4999   */\n      swap2\n      pop\n        /* \"#utility.yul\":4720:5009   */\n      pop\n        /* \"#utility.yul\":2553:5016   */\n      swap3\n      swap6\n      swap9\n      swap2\n      swap5\n      swap8\n      pop\n      swap3\n      swap6\n      pop\n      jump\t// out\n        /* \"#utility.yul\":5022:5531   */\n    tag_14:\n        /* \"#utility.yul\":5091:5097   */\n      0x00\n        /* \"#utility.yul\":5140:5142   */\n      0x20\n        /* \"#utility.yul\":5128:5137   */\n      dup3\n        /* \"#utility.yul\":5119:5126   */\n      dup5\n        /* \"#utility.yul\":5115:5138   */\n      sub\n        /* \"#utility.yul\":5111:5143   */\n      slt\n        /* \"#utility.yul\":5108:5227   */\n      iszero\n      tag_180\n      jumpi\n        /* \"#utility.yul\":5146:5225   */\n      tag_181\n      tag_87\n      jump\t// in\n    tag_181:\n        /* \"#utility.yul\":5108:5227   */\n    tag_180:\n        /* \"#utility.yul\":5294:5295   */\n      0x00\n        /* \"#utility.yul\":5283:5292   */\n      dup3\n        /* \"#utility.yul\":5279:5296   */\n      add\n        /* \"#utility.yul\":5266:5297   */\n      calldataload\n        /* \"#utility.yul\":5324:5342   */\n      0xffffffffffffffff\n        /* \"#utility.yul\":5316:5322   */\n      dup2\n        /* \"#utility.yul\":5313:5343   */\n      gt\n        /* \"#utility.yul\":5310:5427   */\n      iszero\n      tag_182\n      jumpi\n        /* \"#utility.yul\":5346:5425   */\n      tag_183\n      tag_88\n      jump\t// in\n    tag_183:\n        /* \"#utility.yul\":5310:5427   */\n    tag_182:\n        /* \"#utility.yul\":5451:5514   */\n      tag_184\n        /* \"#utility.yul\":5506:5513   */\n      dup5\n        /* \"#utility.yul\":5497:5503   */\n      dup3\n        /* \"#utility.yul\":5486:5495   */\n      dup6\n        /* \"#utility.yul\":5482:5504   */\n      add\n        /* \"#utility.yul\":5451:5514   */\n      tag_98\n      jump\t// in\n    tag_184:\n        /* \"#utility.yul\":5441:5514   */\n      swap2\n      pop\n        /* \"#utility.yul\":5237:5524   */\n      pop\n        /* \"#utility.yul\":5022:5531   */\n      swap3\n      swap2\n      pop\n      pop\n      jump\t// out\n        /* \"#utility.yul\":5537:5636   */\n    tag_99:\n        /* \"#utility.yul\":5589:5595   */\n      0x00\n        /* \"#utility.yul\":5623:5628   */\n      dup2\n        /* \"#utility.yul\":5617:5629   */\n      mload\n        /* \"#utility.yul\":5607:5629   */\n      swap1\n      pop\n        /* \"#utility.yul\":5537:5636   */\n      swap2\n      swap1\n      pop\n      jump\t// out\n        /* \"#utility.yul\":5642:5811   */\n    tag_100:\n        /* \"#utility.yul\":5726:5737   */\n      0x00\n        /* \"#utility.yul\":5760:5766   */\n      dup3\n        /* \"#utility.yul\":5755:5758   */\n      dup3\n        /* \"#utility.yul\":5748:5767   */\n      mstore\n        /* \"#utility.yul\":5800:5804   */\n      0x20\n        /* \"#utility.yul\":5795:5798   */\n      dup3\n        /* \"#utility.yul\":5791:5805   */\n      add\n        /* \"#utility.yul\":5776:5805   */\n      swap1\n      pop\n        /* \"#utility.yul\":5642:5811   */\n      swap3\n      swap2\n      pop\n      pop\n      jump\t// out\n        /* \"#utility.yul\":5817:6063   */\n    tag_101:\n        /* \"#utility.yul\":5898:5899   */\n      0x00\n        /* \"#utility.yul\":5908:6021   */\n    tag_188:\n        /* \"#utility.yul\":5922:5928   */\n      dup4\n        /* \"#utility.yul\":5919:5920   */\n      dup2\n        /* \"#utility.yul\":5916:5929   */\n      lt\n        /* \"#utility.yul\":5908:6021   */\n      iszero\n      tag_190\n      jumpi\n        /* \"#utility.yul\":6007:6008   */\n      dup1\n        /* \"#utility.yul\":6002:6005   */\n      dup3\n        /* \"#utility.yul\":5998:6009   */\n      add\n        /* \"#utility.yul\":5992:6010   */\n      mload\n        /* \"#utility.yul\":5988:5989   */\n      dup2\n        /* \"#utility.yul\":5983:5986   */\n      dup5\n        /* \"#utility.yul\":5979:5990   */\n      add\n        /* \"#utility.yul\":5972:6011   */\n      mstore\n        /* \"#utility.yul\":5944:5946   */\n      0x20\n        /* \"#utility.yul\":5941:5942   */\n      dup2\n        /* \"#utility.yul\":5937:5947   */\n      add\n        /* \"#utility.yul\":5932:5947   */\n      swap1\n      pop\n        /* \"#utility.yul\":5908:6021   */\n      jump(tag_188)\n    tag_190:\n        /* \"#utility.yul\":6055:6056   */\n      0x00\n        /* \"#utility.yul\":6046:6052   */\n      dup5\n        /* \"#utility.yul\":6041:6044   */\n      dup5\n        /* \"#utility.yul\":6037:6053   */\n      add\n        /* \"#utility.yul\":6030:6057   */\n      mstore\n        /* \"#utility.yul\":5879:6063   */\n      pop\n        /* \"#utility.yul\":5817:6063   */\n      pop\n      pop\n      pop\n      jump\t// out\n        /* \"#utility.yul\":6069:6446   */\n    tag_102:\n        /* \"#utility.yul\":6157:6160   */\n      0x00\n        /* \"#utility.yul\":6185:6224   */\n      tag_192\n        /* \"#utility.yul\":6218:6223   */\n      dup3\n        /* \"#utility.yul\":6185:6224   */\n      tag_99\n      jump\t// in\n    tag_192:\n        /* \"#utility.yul\":6240:6311   */\n      tag_193\n        /* \"#utility.yul\":6304:6310   */\n      dup2\n        /* \"#utility.yul\":6299:6302   */\n      dup6\n        /* \"#utility.yul\":6240:6311   */\n      tag_100\n      jump\t// in\n    tag_193:\n        /* \"#utility.yul\":6233:6311   */\n      swap4\n      pop\n        /* \"#utility.yul\":6320:6385   */\n      tag_194\n        /* \"#utility.yul\":6378:6384   */\n      dup2\n        /* \"#utility.yul\":6373:6376   */\n      dup6\n        /* \"#utility.yul\":6366:6370   */\n      0x20\n        /* \"#utility.yul\":6359:6364   */\n      dup7\n        /* \"#utility.yul\":6355:6371   */\n      add\n        /* \"#utility.yul\":6320:6385   */\n      tag_101\n      jump\t// in\n    tag_194:\n        /* \"#utility.yul\":6410:6439   */\n      tag_195\n        /* \"#utility.yul\":6432:6438   */\n      dup2\n        /* \"#utility.yul\":6410:6439   */\n      tag_91\n      jump\t// in\n    tag_195:\n        /* \"#utility.yul\":6405:6408   */\n      dup5\n        /* \"#utility.yul\":6401:6440   */\n      add\n        /* \"#utility.yul\":6394:6440   */\n      swap2\n      pop\n        /* \"#utility.yul\":6161:6446   */\n      pop\n        /* \"#utility.yul\":6069:6446   */\n      swap3\n      swap2\n      pop\n      pop\n      jump\t// out\n        /* \"#utility.yul\":6452:7975   */\n    tag_17:\n        /* \"#utility.yul\":6853:6857   */\n      0x00\n        /* \"#utility.yul\":6891:6894   */\n      0xe0\n        /* \"#utility.yul\":6880:6889   */\n      dup3\n        /* \"#utility.yul\":6876:6895   */\n      add\n        /* \"#utility.yul\":6868:6895   */\n      swap1\n      pop\n        /* \"#utility.yul\":6941:6950   */\n      dup2\n        /* \"#utility.yul\":6935:6939   */\n      dup2\n        /* \"#utility.yul\":6931:6951   */\n      sub\n        /* \"#utility.yul\":6927:6928   */\n      0x00\n        /* \"#utility.yul\":6916:6925   */\n      dup4\n        /* \"#utility.yul\":6912:6929   */\n      add\n        /* \"#utility.yul\":6905:6952   */\n      mstore\n        /* \"#utility.yul\":6969:7047   */\n      tag_197\n        /* \"#utility.yul\":7042:7046   */\n      dup2\n        /* \"#utility.yul\":7033:7039   */\n      dup11\n        /* \"#utility.yul\":6969:7047   */\n      tag_102\n      jump\t// in\n    tag_197:\n        /* \"#utility.yul\":6961:7047   */\n      swap1\n      pop\n        /* \"#utility.yul\":7094:7103   */\n      dup2\n        /* \"#utility.yul\":7088:7092   */\n      dup2\n        /* \"#utility.yul\":7084:7104   */\n      sub\n        /* \"#utility.yul\":7079:7081   */\n      0x20\n        /* \"#utility.yul\":7068:7077   */\n      dup4\n        /* \"#utility.yul\":7064:7082   */\n      add\n        /* \"#utility.yul\":7057:7105   */\n      mstore\n        /* \"#utility.yul\":7122:7200   */\n      tag_198\n        /* \"#utility.yul\":7195:7199   */\n      dup2\n        /* \"#utility.yul\":7186:7192   */\n      dup10\n        /* \"#utility.yul\":7122:7200   */\n      tag_102\n      jump\t// in\n    tag_198:\n        /* \"#utility.yul\":7114:7200   */\n      swap1\n      pop\n        /* \"#utility.yul\":7247:7256   */\n      dup2\n        /* \"#utility.yul\":7241:7245   */\n      dup2\n        /* \"#utility.yul\":7237:7257   */\n      sub\n        /* \"#utility.yul\":7232:7234   */\n      0x40\n        /* \"#utility.yul\":7221:7230   */\n      dup4\n        /* \"#utility.yul\":7217:7235   */\n      add\n        /* \"#utility.yul\":7210:7258   */\n      mstore\n        /* \"#utility.yul\":7275:7353   */\n      tag_199\n        /* \"#utility.yul\":7348:7352   */\n      dup2\n        /* \"#utility.yul\":7339:7345   */\n      dup9\n        /* \"#utility.yul\":7275:7353   */\n      tag_102\n      jump\t// in\n    tag_199:\n        /* \"#utility.yul\":7267:7353   */\n      swap1\n      pop\n        /* \"#utility.yul\":7400:7409   */\n      dup2\n        /* \"#utility.yul\":7394:7398   */\n      dup2\n        /* \"#utility.yul\":7390:7410   */\n      sub\n        /* \"#utility.yul\":7385:7387   */\n      0x60\n        /* \"#utility.yul\":7374:7383   */\n      dup4\n        /* \"#utility.yul\":7370:7388   */\n      add\n        /* \"#utility.yul\":7363:7411   */\n      mstore\n        /* \"#utility.yul\":7428:7506   */\n      tag_200\n        /* \"#utility.yul\":7501:7505   */\n      dup2\n        /* \"#utility.yul\":7492:7498   */\n      dup8\n        /* \"#utility.yul\":7428:7506   */\n      tag_102\n      jump\t// in\n    tag_200:\n        /* \"#utility.yul\":7420:7506   */\n      swap1\n      pop\n        /* \"#utility.yul\":7554:7563   */\n      dup2\n        /* \"#utility.yul\":7548:7552   */\n      dup2\n        /* \"#utility.yul\":7544:7564   */\n      sub\n        /* \"#utility.yul\":7538:7541   */\n      0x80\n        /* \"#utility.yul\":7527:7536   */\n      dup4\n        /* \"#utility.yul\":7523:7542   */\n      add\n        /* \"#utility.yul\":7516:7565   */\n      mstore\n        /* \"#utility.yul\":7582:7660   */\n      tag_201\n        /* \"#utility.yul\":7655:7659   */\n      dup2\n        /* \"#utility.yul\":7646:7652   */\n      dup7\n        /* \"#utility.yul\":7582:7660   */\n      tag_102\n      jump\t// in\n    tag_201:\n        /* \"#utility.yul\":7574:7660   */\n      swap1\n      pop\n        /* \"#utility.yul\":7708:7717   */\n      dup2\n        /* \"#utility.yul\":7702:7706   */\n      dup2\n        /* \"#utility.yul\":7698:7718   */\n      sub\n        /* \"#utility.yul\":7692:7695   */\n      0xa0\n        /* \"#utility.yul\":7681:7690   */\n      dup4\n        /* \"#utility.yul\":7677:7696   */\n      add\n        /* \"#utility.yul\":7670:7719   */\n      mstore\n        /* \"#utility.yul\":7736:7814   */\n      tag_202\n        /* \"#utility.yul\":7809:7813   */\n      dup2\n        /* \"#utility.yul\":7800:7806   */\n      dup6\n        /* \"#utility.yul\":7736:7814   */\n      tag_102\n      jump\t// in\n    tag_202:\n        /* \"#utility.yul\":7728:7814   */\n      swap1\n      pop\n        /* \"#utility.yul\":7862:7871   */\n      dup2\n        /* \"#utility.yul\":7856:7860   */\n      dup2\n        /* \"#utility.yul\":7852:7872   */\n      sub\n        /* \"#utility.yul\":7846:7849   */\n      0xc0\n        /* \"#utility.yul\":7835:7844   */\n      dup4\n        /* \"#utility.yul\":7831:7850   */\n      add\n        /* \"#utility.yul\":7824:7873   */\n      mstore\n        /* \"#utility.yul\":7890:7968   */\n      tag_203\n        /* \"#utility.yul\":7963:7967   */\n      dup2\n        /* \"#utility.yul\":7954:7960   */\n      dup5\n        /* \"#utility.yul\":7890:7968   */\n      tag_102\n      jump\t// in\n    tag_203:\n        /* \"#utility.yul\":7882:7968   */\n      swap1\n      pop\n        /* \"#utility.yul\":6452:7975   */\n      swap9\n      swap8\n      pop\n      pop\n      pop\n      pop\n      pop\n      pop\n      pop\n      pop\n      jump\t// out\n        /* \"#utility.yul\":7981:8058   */\n    tag_103:\n        /* \"#utility.yul\":8018:8025   */\n      0x00\n        /* \"#utility.yul\":8047:8052   */\n      dup2\n        /* \"#utility.yul\":8036:8052   */\n      swap1\n      pop\n        /* \"#utility.yul\":7981:8058   */\n      swap2\n      swap1\n      pop\n      jump\t// out\n        /* \"#utility.yul\":8064:8186   */\n    tag_104:\n        /* \"#utility.yul\":8137:8161   */\n      tag_206\n        /* \"#utility.yul\":8155:8160   */\n      dup2\n        /* \"#utility.yul\":8137:8161   */\n      tag_103\n      jump\t// in\n    tag_206:\n        /* \"#utility.yul\":8130:8135   */\n      dup2\n        /* \"#utility.yul\":8127:8162   */\n      eq\n        /* \"#utility.yul\":8117:8180   */\n      tag_207\n      jumpi\n        /* \"#utility.yul\":8176:8177   */\n      0x00\n        /* \"#utility.yul\":8173:8174   */\n      dup1\n        /* \"#utility.yul\":8166:8178   */\n      revert\n        /* \"#utility.yul\":8117:8180   */\n    tag_207:\n        /* \"#utility.yul\":8064:8186   */\n      pop\n      jump\t// out\n        /* \"#utility.yul\":8192:8331   */\n    tag_105:\n        /* \"#utility.yul\":8238:8243   */\n      0x00\n        /* \"#utility.yul\":8276:8282   */\n      dup2\n        /* \"#utility.yul\":8263:8283   */\n      calldataload\n        /* \"#utility.yul\":8254:8283   */\n      swap1\n      pop\n        /* \"#utility.yul\":8292:8325   */\n      tag_209\n        /* \"#utility.yul\":8319:8324   */\n      dup2\n        /* \"#utility.yul\":8292:8325   */\n      tag_104\n      jump\t// in\n    tag_209:\n        /* \"#utility.yul\":8192:8331   */\n      swap3\n      swap2\n      pop\n      pop\n      jump\t// out\n        /* \"#utility.yul\":8337:8991   */\n    tag_20:\n        /* \"#utility.yul\":8415:8421   */\n      0x00\n        /* \"#utility.yul\":8423:8429   */\n      dup1\n        /* \"#utility.yul\":8472:8474   */\n      0x40\n        /* \"#utility.yul\":8460:8469   */\n      dup4\n        /* \"#utility.yul\":8451:8458   */\n      dup6\n        /* \"#utility.yul\":8447:8470   */\n      sub\n        /* \"#utility.yul\":8443:8475   */\n      slt\n        /* \"#utility.yul\":8440:8559   */\n      iszero\n      tag_211\n      jumpi\n        /* \"#utility.yul\":8478:8557   */\n      tag_212\n      tag_87\n      jump\t// in\n    tag_212:\n        /* \"#utility.yul\":8440:8559   */\n    tag_211:\n        /* \"#utility.yul\":8626:8627   */\n      0x00\n        /* \"#utility.yul\":8615:8624   */\n      dup4\n        /* \"#utility.yul\":8611:8628   */\n      add\n        /* \"#utility.yul\":8598:8629   */\n      calldataload\n        /* \"#utility.yul\":8656:8674   */\n      0xffffffffffffffff\n        /* \"#utility.yul\":8648:8654   */\n      dup2\n        /* \"#utility.yul\":8645:8675   */\n      gt\n        /* \"#utility.yul\":8642:8759   */\n      iszero\n      tag_213\n      jumpi\n        /* \"#utility.yul\":8678:8757   */\n      tag_214\n      tag_88\n      jump\t// in\n    tag_214:\n        /* \"#utility.yul\":8642:8759   */\n    tag_213:\n        /* \"#utility.yul\":8783:8846   */\n      tag_215\n        /* \"#utility.yul\":8838:8845   */\n      dup6\n        /* \"#utility.yul\":8829:8835   */\n      dup3\n        /* \"#utility.yul\":8818:8827   */\n      dup7\n        /* \"#utility.yul\":8814:8836   */\n      add\n        /* \"#utility.yul\":8783:8846   */\n      tag_98\n      jump\t// in\n    tag_215:\n        /* \"#utility.yul\":8773:8846   */\n      swap3\n      pop\n        /* \"#utility.yul\":8569:8856   */\n      pop\n        /* \"#utility.yul\":8895:8897   */\n      0x20\n        /* \"#utility.yul\":8921:8974   */\n      tag_216\n        /* \"#utility.yul\":8966:8973   */\n      dup6\n        /* \"#utility.yul\":8957:8963   */\n      dup3\n        /* \"#utility.yul\":8946:8955   */\n      dup7\n        /* \"#utility.yul\":8942:8964   */\n      add\n        /* \"#utility.yul\":8921:8974   */\n      tag_105\n      jump\t// in\n    tag_216:\n        /* \"#utility.yul\":8911:8974   */\n      swap2\n      pop\n        /* \"#utility.yul\":8866:8984   */\n      pop\n        /* \"#utility.yul\":8337:8991   */\n      swap3\n      pop\n      swap3\n      swap1\n      pop\n      jump\t// out\n        /* \"#utility.yul\":8997:9115   */\n    tag_106:\n        /* \"#utility.yul\":9084:9108   */\n      tag_218\n        /* \"#utility.yul\":9102:9107   */\n      dup2\n        /* \"#utility.yul\":9084:9108   */\n      tag_103\n      jump\t// in\n    tag_218:\n        /* \"#utility.yul\":9079:9082   */\n      dup3\n        /* \"#utility.yul\":9072:9109   */\n      mstore\n        /* \"#utility.yul\":8997:9115   */\n      pop\n      pop\n      jump\t// out\n        /* \"#utility.yul\":9121:9654   */\n    tag_27:\n        /* \"#utility.yul\":9290:9294   */\n      0x00\n        /* \"#utility.yul\":9328:9330   */\n      0x60\n        /* \"#utility.yul\":9317:9326   */\n      dup3\n        /* \"#utility.yul\":9313:9331   */\n      add\n        /* \"#utility.yul\":9305:9331   */\n      swap1\n      pop\n        /* \"#utility.yul\":9377:9386   */\n      dup2\n        /* \"#utility.yul\":9371:9375   */\n      dup2\n        /* \"#utility.yul\":9367:9387   */\n      sub\n        /* \"#utility.yul\":9363:9364   */\n      0x00\n        /* \"#utility.yul\":9352:9361   */\n      dup4\n        /* \"#utility.yul\":9348:9365   */\n      add\n        /* \"#utility.yul\":9341:9388   */\n      mstore\n        /* \"#utility.yul\":9405:9483   */\n      tag_220\n        /* \"#utility.yul\":9478:9482   */\n      dup2\n        /* \"#utility.yul\":9469:9475   */\n      dup7\n        /* \"#utility.yul\":9405:9483   */\n      tag_102\n      jump\t// in\n    tag_220:\n        /* \"#utility.yul\":9397:9483   */\n      swap1\n      pop\n        /* \"#utility.yul\":9493:9565   */\n      tag_221\n        /* \"#utility.yul\":9561:9563   */\n      0x20\n        /* \"#utility.yul\":9550:9559   */\n      dup4\n        /* \"#utility.yul\":9546:9564   */\n      add\n        /* \"#utility.yul\":9537:9543   */\n      dup6\n        /* \"#utility.yul\":9493:9565   */\n      tag_106\n      jump\t// in\n    tag_221:\n        /* \"#utility.yul\":9575:9647   */\n      tag_222\n        /* \"#utility.yul\":9643:9645   */\n      0x40\n        /* \"#utility.yul\":9632:9641   */\n      dup4\n        /* \"#utility.yul\":9628:9646   */\n      add\n        /* \"#utility.yul\":9619:9625   */\n      dup5\n        /* \"#utility.yul\":9575:9647   */\n      tag_106\n      jump\t// in\n    tag_222:\n        /* \"#utility.yul\":9121:9654   */\n      swap5\n      swap4\n      pop\n      pop\n      pop\n      pop\n      jump\t// out\n        /* \"#utility.yul\":9660:9808   */\n    tag_107:\n        /* \"#utility.yul\":9762:9773   */\n      0x00\n        /* \"#utility.yul\":9799:9802   */\n      dup2\n        /* \"#utility.yul\":9784:9802   */\n      swap1\n      pop\n        /* \"#utility.yul\":9660:9808   */\n      swap3\n      swap2\n      pop\n      pop\n      jump\t// out\n        /* \"#utility.yul\":9814:10204   */\n    tag_108:\n        /* \"#utility.yul\":9920:9923   */\n      0x00\n        /* \"#utility.yul\":9948:9987   */\n      tag_225\n        /* \"#utility.yul\":9981:9986   */\n      dup3\n        /* \"#utility.yul\":9948:9987   */\n      tag_99\n      jump\t// in\n    tag_225:\n        /* \"#utility.yul\":10003:10092   */\n      tag_226\n        /* \"#utility.yul\":10085:10091   */\n      dup2\n        /* \"#utility.yul\":10080:10083   */\n      dup6\n        /* \"#utility.yul\":10003:10092   */\n      tag_107\n      jump\t// in\n    tag_226:\n        /* \"#utility.yul\":9996:10092   */\n      swap4\n      pop\n        /* \"#utility.yul\":10101:10166   */\n      tag_227\n        /* \"#utility.yul\":10159:10165   */\n      dup2\n        /* \"#utility.yul\":10154:10157   */\n      dup6\n        /* \"#utility.yul\":10147:10151   */\n      0x20\n        /* \"#utility.yul\":10140:10145   */\n      dup7\n        /* \"#utility.yul\":10136:10152   */\n      add\n        /* \"#utility.yul\":10101:10166   */\n      tag_101\n      jump\t// in\n    tag_227:\n        /* \"#utility.yul\":10191:10197   */\n      dup1\n        /* \"#utility.yul\":10186:10189   */\n      dup5\n        /* \"#utility.yul\":10182:10198   */\n      add\n        /* \"#utility.yul\":10175:10198   */\n      swap2\n      pop\n        /* \"#utility.yul\":9924:10204   */\n      pop\n        /* \"#utility.yul\":9814:10204   */\n      swap3\n      swap2\n      pop\n      pop\n      jump\t// out\n        /* \"#utility.yul\":10210:10485   */\n    tag_33:\n        /* \"#utility.yul\":10342:10345   */\n      0x00\n        /* \"#utility.yul\":10364:10459   */\n      tag_229\n        /* \"#utility.yul\":10455:10458   */\n      dup3\n        /* \"#utility.yul\":10446:10452   */\n      dup5\n        /* \"#utility.yul\":10364:10459   */\n      tag_108\n      jump\t// in\n    tag_229:\n        /* \"#utility.yul\":10357:10459   */\n      swap2\n      pop\n        /* \"#utility.yul\":10476:10479   */\n      dup2\n        /* \"#utility.yul\":10469:10479   */\n      swap1\n      pop\n        /* \"#utility.yul\":10210:10485   */\n      swap3\n      swap2\n      pop\n      pop\n      jump\t// out\n        /* \"#utility.yul\":10491:10671   */\n    tag_109:\n        /* \"#utility.yul\":10539:10616   */\n      0x4e487b7100000000000000000000000000000000000000000000000000000000\n        /* \"#utility.yul\":10536:10537   */\n      0x00\n        /* \"#utility.yul\":10529:10617   */\n      mstore\n        /* \"#utility.yul\":10636:10640   */\n      0x22\n        /* \"#utility.yul\":10633:10634   */\n      0x04\n        /* \"#utility.yul\":10626:10641   */\n      mstore\n        /* \"#utility.yul\":10660:10664   */\n      0x24\n        /* \"#utility.yul\":10657:10658   */\n      0x00\n        /* \"#utility.yul\":10650:10665   */\n      revert\n        /* \"#utility.yul\":10677:10997   */\n    tag_42:\n        /* \"#utility.yul\":10721:10727   */\n      0x00\n        /* \"#utility.yul\":10758:10759   */\n      0x02\n        /* \"#utility.yul\":10752:10756   */\n      dup3\n        /* \"#utility.yul\":10748:10760   */\n      div\n        /* \"#utility.yul\":10738:10760   */\n      swap1\n      pop\n        /* \"#utility.yul\":10805:10806   */\n      0x01\n        /* \"#utility.yul\":10799:10803   */\n      dup3\n        /* \"#utility.yul\":10795:10807   */\n      and\n        /* \"#utility.yul\":10826:10844   */\n      dup1\n        /* \"#utility.yul\":10816:10897   */\n      tag_232\n      jumpi\n        /* \"#utility.yul\":10882:10886   */\n      0x7f\n        /* \"#utility.yul\":10874:10880   */\n      dup3\n        /* \"#utility.yul\":10870:10887   */\n      and\n        /* \"#utility.yul\":10860:10887   */\n      swap2\n      pop\n        /* \"#utility.yul\":10816:10897   */\n    tag_232:\n        /* \"#utility.yul\":10944:10946   */\n      0x20\n        /* \"#utility.yul\":10936:10942   */\n      dup3\n        /* \"#utility.yul\":10933:10947   */\n      lt\n        /* \"#utility.yul\":10913:10931   */\n      dup2\n        /* \"#utility.yul\":10910:10948   */\n      sub\n        /* \"#utility.yul\":10907:10991   */\n      tag_233\n      jumpi\n        /* \"#utility.yul\":10963:10981   */\n      tag_234\n      tag_109\n      jump\t// in\n    tag_234:\n        /* \"#utility.yul\":10907:10991   */\n    tag_233:\n        /* \"#utility.yul\":10728:10997   */\n      pop\n        /* \"#utility.yul\":10677:10997   */\n      swap2\n      swap1\n      pop\n      jump\t// out\n        /* \"#utility.yul\":11003:11144   */\n    tag_110:\n        /* \"#utility.yul\":11052:11056   */\n      0x00\n        /* \"#utility.yul\":11075:11078   */\n      dup2\n        /* \"#utility.yul\":11067:11078   */\n      swap1\n      pop\n        /* \"#utility.yul\":11098:11101   */\n      dup2\n        /* \"#utility.yul\":11095:11096   */\n      0x00\n        /* \"#utility.yul\":11088:11102   */\n      mstore\n        /* \"#utility.yul\":11132:11136   */\n      0x20\n        /* \"#utility.yul\":11129:11130   */\n      0x00\n        /* \"#utility.yul\":11119:11137   */\n      keccak256\n        /* \"#utility.yul\":11111:11137   */\n      swap1\n      pop\n        /* \"#utility.yul\":11003:11144   */\n      swap2\n      swap1\n      pop\n      jump\t// out\n        /* \"#utility.yul\":11150:11243   */\n    tag_111:\n        /* \"#utility.yul\":11187:11193   */\n      0x00\n        /* \"#utility.yul\":11234:11236   */\n      0x20\n        /* \"#utility.yul\":11229:11231   */\n      0x1f\n        /* \"#utility.yul\":11222:11227   */\n      dup4\n        /* \"#utility.yul\":11218:11232   */\n      add\n        /* \"#utility.yul\":11214:11237   */\n      div\n        /* \"#utility.yul\":11204:11237   */\n      swap1\n      pop\n        /* \"#utility.yul\":11150:11243   */\n      swap2\n      swap1\n      pop\n      jump\t// out\n        /* \"#utility.yul\":11249:11356   */\n    tag_112:\n        /* \"#utility.yul\":11293:11301   */\n      0x00\n        /* \"#utility.yul\":11343:11348   */\n      dup3\n        /* \"#utility.yul\":11337:11341   */\n      dup3\n        /* \"#utility.yul\":11333:11349   */\n      shl\n        /* \"#utility.yul\":11312:11349   */\n      swap1\n      pop\n        /* \"#utility.yul\":11249:11356   */\n      swap3\n      swap2\n      pop\n      pop\n      jump\t// out\n        /* \"#utility.yul\":11362:11755   */\n    tag_113:\n        /* \"#utility.yul\":11431:11437   */\n      0x00\n        /* \"#utility.yul\":11481:11482   */\n      0x08\n        /* \"#utility.yul\":11469:11479   */\n      dup4\n        /* \"#utility.yul\":11465:11483   */\n      mul\n        /* \"#utility.yul\":11504:11601   */\n      tag_239\n        /* \"#utility.yul\":11534:11600   */\n      0xffffffffffffffffffffffffffffffffffffffffffffffffffffffffffffffff\n        /* \"#utility.yul\":11523:11532   */\n      dup3\n        /* \"#utility.yul\":11504:11601   */\n      tag_112\n      jump\t// in\n    tag_239:\n        /* \"#utility.yul\":11622:11661   */\n      tag_240\n        /* \"#utility.yul\":11652:11660   */\n      dup7\n        /* \"#utility.yul\":11641:11650   */\n      dup4\n        /* \"#utility.yul\":11622:11661   */\n      tag_112\n      jump\t// in\n    tag_240:\n        /* \"#utility.yul\":11610:11661   */\n      swap6\n      pop\n        /* \"#utility.yul\":11694:11698   */\n      dup1\n        /* \"#utility.yul\":11690:11699   */\n      not\n        /* \"#utility.yul\":11683:11688   */\n      dup5\n        /* \"#utility.yul\":11679:11700   */\n      and\n        /* \"#utility.yul\":11670:11700   */\n      swap4\n      pop\n        /* \"#utility.yul\":11743:11747   */\n      dup1\n        /* \"#utility.yul\":11733:11741   */\n      dup7\n        /* \"#utility.yul\":11729:11748   */\n      and\n        /* \"#utility.yul\":11722:11727   */\n      dup5\n        /* \"#utility.yul\":11719:11749   */\n      or\n        /* \"#utility.yul\":11709:11749   */\n      swap3\n      pop\n        /* \"#utility.yul\":11438:11755   */\n      pop\n      pop\n        /* \"#utility.yul\":11362:11755   */\n      swap4\n      swap3\n      pop\n      pop\n      pop\n      jump\t// out\n        /* \"#utility.yul\":11761:11821   */\n    tag_114:\n        /* \"#utility.yul\":11789:11792   */\n      0x00\n        /* \"#utility.yul\":11810:11815   */\n      dup2\n        /* \"#utility.yul\":11803:11815   */\n      swap1\n      pop\n        /* \"#utility.yul\":11761:11821   */\n      swap2\n      swap1\n      pop\n      jump\t// out\n        /* \"#utility.yul\":11827:11969   */\n    tag_115:\n        /* \"#utility.yul\":11877:11886   */\n      0x00\n        /* \"#utility.yul\":11910:11963   */\n      tag_243\n        /* \"#utility.yul\":11928:11962   */\n      tag_244\n        /* \"#utility.yul\":11937:11961   */\n      tag_245\n        /* \"#utility.yul\":11955:11960   */\n      dup5\n        /* \"#utility.yul\":11937:11961   */\n      tag_103\n      jump\t// in\n    tag_245:\n        /* \"#utility.yul\":11928:11962   */\n      tag_114\n      jump\t// in\n    tag_244:\n        /* \"#utility.yul\":11910:11963   */\n      tag_103\n      jump\t// in\n    tag_243:\n        /* \"#utility.yul\":11897:11963   */\n      swap1\n      pop\n        /* \"#utility.yul\":11827:11969   */\n      swap2\n      swap1\n      pop\n      jump\t// out\n        /* \"#utility.yul\":11975:12050   */\n    tag_116:\n        /* \"#utility.yul\":12018:12021   */\n      0x00\n        /* \"#utility.yul\":12039:12044   */\n      dup2\n        /* \"#utility.yul\":12032:12044   */\n      swap1\n      pop\n        /* \"#utility.yul\":11975:12050   */\n      swap2\n      swap1\n      pop\n      jump\t// out\n        /* \"#utility.yul\":12056:12325   */\n    tag_117:\n        /* \"#utility.yul\":12166:12205   */\n      tag_248\n        /* \"#utility.yul\":12197:12204   */\n      dup4\n        /* \"#utility.yul\":12166:12205   */\n      tag_115\n      jump\t// in\n    tag_248:\n        /* \"#utility.yul\":12227:12318   */\n      tag_249\n        /* \"#utility.yul\":12276:12317   */\n      tag_250\n        /* \"#utility.yul\":12300:12316   */\n      dup3\n        /* \"#utility.yul\":12276:12317   */\n      tag_116\n      jump\t// in\n    tag_250:\n        /* \"#utility.yul\":12268:12274   */\n      dup5\n        /* \"#utility.yul\":12261:12265   */\n      dup5\n        /* \"#utility.yul\":12255:12266   */\n      sload\n        /* \"#utility.yul\":12227:12318   */\n      tag_113\n      jump\t// in\n    tag_249:\n        /* \"#utility.yul\":12221:12225   */\n      dup3\n        /* \"#utility.yul\":12214:12319   */\n      sstore\n        /* \"#utility.yul\":12132:12325   */\n      pop\n        /* \"#utility.yul\":12056:12325   */\n      pop\n      pop\n      pop\n      jump\t// out\n        /* \"#utility.yul\":12331:12404   */\n    tag_118:\n        /* \"#utility.yul\":12376:12379   */\n      0x00\n        /* \"#utility.yul\":12331:12404   */\n      swap1\n      jump\t// out\n        /* \"#utility.yul\":12410:12599   */\n    tag_119:\n        /* \"#utility.yul\":12487:12519   */\n      tag_253\n      tag_118\n      jump\t// in\n    tag_253:\n        /* \"#utility.yul\":12528:12593   */\n      tag_254\n        /* \"#utility.yul\":12586:12592   */\n      dup2\n        /* \"#utility.yul\":12578:12584   */\n      dup5\n        /* \"#utility.yul\":12572:12576   */\n      dup5\n        /* \"#utility.yul\":12528:12593   */\n      tag_117\n      jump\t// in\n    tag_254:\n        /* \"#utility.yul\":12463:12599   */\n      pop\n        /* \"#utility.yul\":12410:12599   */\n      pop\n      pop\n      jump\t// out\n        /* \"#utility.yul\":12605:12791   */\n    tag_120:\n        /* \"#utility.yul\":12665:12785   */\n    tag_256:\n        /* \"#utility.yul\":12682:12685   */\n      dup2\n        /* \"#utility.yul\":12675:12680   */\n      dup2\n        /* \"#utility.yul\":12672:12686   */\n      lt\n        /* \"#utility.yul\":12665:12785   */\n      iszero\n      tag_258\n      jumpi\n        /* \"#utility.yul\":12736:12775   */\n      tag_259\n        /* \"#utility.yul\":12773:12774   */\n      0x00\n        /* \"#utility.yul\":12766:12771   */\n      dup3\n        /* \"#utility.yul\":12736:12775   */\n      tag_119\n      jump\t// in\n    tag_259:\n        /* \"#utility.yul\":12709:12710   */\n      0x01\n        /* \"#utility.yul\":12702:12707   */\n      dup2\n        /* \"#utility.yul\":12698:12711   */\n      add\n        /* \"#utility.yul\":12689:12711   */\n      swap1\n      pop\n        /* \"#utility.yul\":12665:12785   */\n      jump(tag_256)\n    tag_258:\n        /* \"#utility.yul\":12605:12791   */\n      pop\n      pop\n      jump\t// out\n        /* \"#utility.yul\":12797:13340   */\n    tag_121:\n        /* \"#utility.yul\":12898:12900   */\n      0x1f\n        /* \"#utility.yul\":12893:12896   */\n      dup3\n        /* \"#utility.yul\":12890:12901   */\n      gt\n        /* \"#utility.yul\":12887:13333   */\n      iszero\n      tag_261\n      jumpi\n        /* \"#utility.yul\":12932:12970   */\n      tag_262\n        /* \"#utility.yul\":12964:12969   */\n      dup2\n        /* \"#utility.yul\":12932:12970   */\n      tag_110\n      jump\t// in\n    tag_262:\n        /* \"#utility.yul\":13016:13045   */\n      tag_263\n        /* \"#utility.yul\":13034:13044   */\n      dup5\n        /* \"#utility.yul\":13016:13045   */\n      tag_111\n      jump\t// in\n    tag_263:\n        /* \"#utility.yul\":13006:13014   */\n      dup2\n        /* \"#utility.yul\":13002:13046   */\n      add\n        /* \"#utility.yul\":13199:13201   */\n      0x20\n        /* \"#utility.yul\":13187:13197   */\n      dup6\n        /* \"#utility.yul\":13184:13202   */\n      lt\n        /* \"#utility.yul\":13181:13230   */\n      iszero\n      tag_264\n      jumpi\n        /* \"#utility.yul\":13220:13228   */\n      dup2\n        /* \"#utility.yul\":13205:13228   */\n      swap1\n      pop\n        /* \"#utility.yul\":13181:13230   */\n    tag_264:\n        /* \"#utility.yul\":13243:13323   */\n      tag_265\n        /* \"#utility.yul\":13299:13321   */\n      tag_266\n        /* \"#utility.yul\":13317:13320   */\n      dup6\n        /* \"#utility.yul\":13299:13321   */\n      tag_111\n      jump\t// in\n    tag_266:\n        /* \"#utility.yul\":13289:13297   */\n      dup4\n        /* \"#utility.yul\":13285:13322   */\n      add\n        /* \"#utility.yul\":13272:13283   */\n      dup3\n        /* \"#utility.yul\":13243:13323   */\n      tag_120\n      jump\t// in\n    tag_265:\n        /* \"#utility.yul\":12902:13333   */\n      pop\n      pop\n        /* \"#utility.yul\":12887:13333   */\n    tag_261:\n        /* \"#utility.yul\":12797:13340   */\n      pop\n      pop\n      pop\n      jump\t// out\n        /* \"#utility.yul\":13346:13463   */\n    tag_122:\n        /* \"#utility.yul\":13400:13408   */\n      0x00\n        /* \"#utility.yul\":13450:13455   */\n      dup3\n        /* \"#utility.yul\":13444:13448   */\n      dup3\n        /* \"#utility.yul\":13440:13456   */\n      shr\n        /* \"#utility.yul\":13419:13456   */\n      swap1\n      pop\n        /* \"#utility.yul\":13346:13463   */\n      swap3\n      swap2\n      pop\n      pop\n      jump\t// out\n        /* \"#utility.yul\":13469:13638   */\n    tag_123:\n        /* \"#utility.yul\":13513:13519   */\n      0x00\n        /* \"#utility.yul\":13546:13597   */\n      tag_269\n        /* \"#utility.yul\":13594:13595   */\n      0x00\n        /* \"#utility.yul\":13590:13596   */\n      not\n        /* \"#utility.yul\":13582:13587   */\n      dup5\n        /* \"#utility.yul\":13579:13580   */\n      0x08\n        /* \"#utility.yul\":13575:13588   */\n      mul\n        /* \"#utility.yul\":13546:13597   */\n      tag_122\n      jump\t// in\n    tag_269:\n        /* \"#utility.yul\":13542:13598   */\n      not\n        /* \"#utility.yul\":13627:13631   */\n      dup1\n        /* \"#utility.yul\":13621:13625   */\n      dup4\n        /* \"#utility.yul\":13617:13632   */\n      and\n        /* \"#utility.yul\":13607:13632   */\n      swap2\n      pop\n        /* \"#utility.yul\":13520:13638   */\n      pop\n        /* \"#utility.yul\":13469:13638   */\n      swap3\n      swap2\n      pop\n      pop\n      jump\t// out\n        /* \"#utility.yul\":13643:13938   */\n    tag_124:\n        /* \"#utility.yul\":13719:13723   */\n      0x00\n        /* \"#utility.yul\":13865:13894   */\n      tag_271\n        /* \"#utility.yul\":13890:13893   */\n      dup4\n        /* \"#utility.yul\":13884:13888   */\n      dup4\n        /* \"#utility.yul\":13865:13894   */\n      tag_123\n      jump\t// in\n    tag_271:\n        /* \"#utility.yul\":13857:13894   */\n      swap2\n      pop\n        /* \"#utility.yul\":13927:13930   */\n      dup3\n        /* \"#utility.yul\":13924:13925   */\n      0x02\n        /* \"#utility.yul\":13920:13931   */\n      mul\n        /* \"#utility.yul\":13914:13918   */\n      dup3\n        /* \"#utility.yul\":13911:13932   */\n      or\n        /* \"#utility.yul\":13903:13932   */\n      swap1\n      pop\n        /* \"#utility.yul\":13643:13938   */\n      swap3\n      swap2\n      pop\n      pop\n      jump\t// out\n        /* \"#utility.yul\":13943:15338   */\n    tag_35:\n        /* \"#utility.yul\":14060:14097   */\n      tag_273\n        /* \"#utility.yul\":14093:14096   */\n      dup3\n        /* \"#utility.yul\":14060:14097   */\n      tag_99\n      jump\t// in\n    tag_273:\n        /* \"#utility.yul\":14162:14180   */\n      0xffffffffffffffff\n        /* \"#utility.yul\":14154:14160   */\n      dup2\n        /* \"#utility.yul\":14151:14181   */\n      gt\n        /* \"#utility.yul\":14148:14204   */\n      iszero\n      tag_274\n      jumpi\n        /* \"#utility.yul\":14184:14202   */\n      tag_275\n      tag_92\n      jump\t// in\n    tag_275:\n        /* \"#utility.yul\":14148:14204   */\n    tag_274:\n        /* \"#utility.yul\":14228:14266   */\n      tag_276\n        /* \"#utility.yul\":14260:14264   */\n      dup3\n        /* \"#utility.yul\":14254:14265   */\n      sload\n        /* \"#utility.yul\":14228:14266   */\n      tag_42\n      jump\t// in\n    tag_276:\n        /* \"#utility.yul\":14313:14380   */\n      tag_277\n        /* \"#utility.yul\":14373:14379   */\n      dup3\n        /* \"#utility.yul\":14365:14371   */\n      dup3\n        /* \"#utility.yul\":14359:14363   */\n      dup6\n        /* \"#utility.yul\":14313:14380   */\n      tag_121\n      jump\t// in\n    tag_277:\n        /* \"#utility.yul\":14407:14408   */\n      0x00\n        /* \"#utility.yul\":14431:14435   */\n      0x20\n        /* \"#utility.yul\":14418:14435   */\n      swap1\n      pop\n        /* \"#utility.yul\":14463:14465   */\n      0x1f\n        /* \"#utility.yul\":14455:14461   */\n      dup4\n        /* \"#utility.yul\":14452:14466   */\n      gt\n        /* \"#utility.yul\":14480:14481   */\n      0x01\n        /* \"#utility.yul\":14475:15093   */\n      dup2\n      eq\n      tag_279\n      jumpi\n        /* \"#utility.yul\":15137:15138   */\n      0x00\n        /* \"#utility.yul\":15154:15160   */\n      dup5\n        /* \"#utility.yul\":15151:15228   */\n      iszero\n      tag_280\n      jumpi\n        /* \"#utility.yul\":15203:15212   */\n      dup3\n        /* \"#utility.yul\":15198:15201   */\n      dup8\n        /* \"#utility.yul\":15194:15213   */\n      add\n        /* \"#utility.yul\":15188:15214   */\n      mload\n        /* \"#utility.yul\":15179:15214   */\n      swap1\n      pop\n        /* \"#utility.yul\":15151:15228   */\n    tag_280:\n        /* \"#utility.yul\":15254:15321   */\n      tag_281\n        /* \"#utility.yul\":15314:15320   */\n      dup6\n        /* \"#utility.yul\":15307:15312   */\n      dup3\n        /* \"#utility.yul\":15254:15321   */\n      tag_124\n      jump\t// in\n    tag_281:\n        /* \"#utility.yul\":15248:15252   */\n      dup7\n        /* \"#utility.yul\":15241:15322   */\n      sstore\n        /* \"#utility.yul\":15110:15332   */\n      pop\n        /* \"#utility.yul\":14445:15332   */\n      jump(tag_278)\n        /* \"#utility.yul\":14475:15093   */\n    tag_279:\n        /* \"#utility.yul\":14527:14531   */\n      0x1f\n        /* \"#utility.yul\":14523:14532   */\n      not\n        /* \"#utility.yul\":14515:14521   */\n      dup5\n        /* \"#utility.yul\":14511:14533   */\n      and\n        /* \"#utility.yul\":14561:14598   */\n      tag_282\n        /* \"#utility.yul\":14593:14597   */\n      dup7\n        /* \"#utility.yul\":14561:14598   */\n      tag_110\n      jump\t// in\n    tag_282:\n        /* \"#utility.yul\":14620:14621   */\n      0x00\n        /* \"#utility.yul\":14634:14842   */\n    tag_283:\n        /* \"#utility.yul\":14648:14655   */\n      dup3\n        /* \"#utility.yul\":14645:14646   */\n      dup2\n        /* \"#utility.yul\":14642:14656   */\n      lt\n        /* \"#utility.yul\":14634:14842   */\n      iszero\n      tag_285\n      jumpi\n        /* \"#utility.yul\":14727:14736   */\n      dup5\n        /* \"#utility.yul\":14722:14725   */\n      dup10\n        /* \"#utility.yul\":14718:14737   */\n      add\n        /* \"#utility.yul\":14712:14738   */\n      mload\n        /* \"#utility.yul\":14704:14710   */\n      dup3\n        /* \"#utility.yul\":14697:14739   */\n      sstore\n        /* \"#utility.yul\":14778:14779   */\n      0x01\n        /* \"#utility.yul\":14770:14776   */\n      dup3\n        /* \"#utility.yul\":14766:14780   */\n      add\n        /* \"#utility.yul\":14756:14780   */\n      swap2\n      pop\n        /* \"#utility.yul\":14825:14827   */\n      0x20\n        /* \"#utility.yul\":14814:14823   */\n      dup6\n        /* \"#utility.yul\":14810:14828   */\n      add\n        /* \"#utility.yul\":14797:14828   */\n      swap5\n      pop\n        /* \"#utility.yul\":14671:14675   */\n      0x20\n        /* \"#utility.yul\":14668:14669   */\n      dup2\n        /* \"#utility.yul\":14664:14676   */\n      add\n        /* \"#utility.yul\":14659:14676   */\n      swap1\n      pop\n        /* \"#utility.yul\":14634:14842   */\n      jump(tag_283)\n    tag_285:\n        /* \"#utility.yul\":14870:14876   */\n      dup7\n        /* \"#utility.yul\":14861:14868   */\n      dup4\n        /* \"#utility.yul\":14858:14877   */\n      lt\n        /* \"#utility.yul\":14855:15034   */\n      iszero\n      tag_286\n      jumpi\n        /* \"#utility.yul\":14928:14937   */\n      dup5\n        /* \"#utility.yul\":14923:14926   */\n      dup10\n        /* \"#utility.yul\":14919:14938   */\n      add\n        /* \"#utility.yul\":14913:14939   */\n      mload\n        /* \"#utility.yul\":14971:15019   */\n      tag_287\n        /* \"#utility.yul\":15013:15017   */\n      0x1f\n        /* \"#utility.yul\":15005:15011   */\n      dup10\n        /* \"#utility.yul\":15001:15018   */\n      and\n        /* \"#utility.yul\":14990:14999   */\n      dup3\n        /* \"#utility.yul\":14971:15019   */\n      tag_123\n      jump\t// in\n    tag_287:\n        /* \"#utility.yul\":14963:14969   */\n      dup4\n        /* \"#utility.yul\":14956:15020   */\n      sstore\n        /* \"#utility.yul\":14878:15034   */\n      pop\n        /* \"#utility.yul\":14855:15034   */\n    tag_286:\n        /* \"#utility.yul\":15080:15081   */\n      0x01\n        /* \"#utility.yul\":15076:15077   */\n      0x02\n        /* \"#utility.yul\":15068:15074   */\n      dup9\n        /* \"#utility.yul\":15064:15078   */\n      mul\n        /* \"#utility.yul\":15060:15082   */\n      add\n        /* \"#utility.yul\":15054:15058   */\n      dup9\n        /* \"#utility.yul\":15047:15083   */\n      sstore\n        /* \"#utility.yul\":14482:15093   */\n      pop\n      pop\n      pop\n        /* \"#utility.yul\":14445:15332   */\n    tag_278:\n      pop\n        /* \"#utility.yul\":14035:15338   */\n      pop\n      pop\n      pop\n        /* \"#utility.yul\":13943:15338   */\n      pop\n      pop\n      jump\t// out\n\n    auxdata: 0xa2646970667358221220c861e9e23b3f249fc3187cecf033f06b37ffc120ecbf2dea3ac7ad1d93d3781e64736f6c63430008120033\n}\n",
				"bytecode": {
					"linkReferences": {},
					"object": "608060405234801561001057600080fd5b50610f5b806100206000396000f3fe60806040526004361061004a5760003560e01c8063225de4521461004f5780633ee6c95c1461006b5780634cd1341c146100ae57806359c90554146100ca5780637124fc8d14610109575b600080fd5b61006960048036038101906100649190610847565b610125565b005b34801561007757600080fd5b50610092600480360381019061008d91906109ad565b6101bc565b6040516100a59796959493929190610a75565b60405180910390f35b6100c860048036038101906100c39190610b4b565b6105cc565b005b3480156100d657600080fd5b506100f160048036038101906100ec91906109ad565b6105f6565b60405161010093929190610bb6565b60405180910390f35b610123600480360381019061011e91906109ad565b6106be565b005b600080886040516101369190610c30565b90815260200160405180910390209050868160030190816101579190610e53565b50858160010190816101699190610e53565b508481600401908161017b9190610e53565b508381600201908161018d9190610e53565b508281600501908161019f9190610e53565b50818160060190816101b19190610e53565b505050505050505050565b6000818051602081018201805184825260208301602085012081835280955050505050506000915090508060000180546101f590610c76565b80601f016020809104026020016040519081016040528092919081815260200182805461022190610c76565b801561026e5780601f106102435761010080835404028352916020019161026e565b820191906000526020600020905b81548152906001019060200180831161025157829003601f168201915b50505050509080600101805461028390610c76565b80601f01602080910402602001604051908101604052809291908181526020018280546102af90610c76565b80156102fc5780601f106102d1576101008083540402835291602001916102fc565b820191906000526020600020905b8154815290600101906020018083116102df57829003601f168201915b50505050509080600201805461031190610c76565b80601f016020809104026020016040519081016040528092919081815260200182805461033d90610c76565b801561038a5780601f1061035f5761010080835404028352916020019161038a565b820191906000526020600020905b81548152906001019060200180831161036d57829003601f168201915b50505050509080600301805461039f90610c76565b80601f01602080910402602001604051908101604052809291908181526020018280546103cb90610c76565b80156104185780601f106103ed57610100808354040283529160200191610418565b820191906000526020600020905b8154815290600101906020018083116103fb57829003601f168201915b50505050509080600401805461042d90610c76565b80601f016020809104026020016040519081016040528092919081815260200182805461045990610c76565b80156104a65780601f1061047b576101008083540402835291602001916104a6565b820191906000526020600020905b81548152906001019060200180831161048957829003601f168201915b5050505050908060050180546104bb90610c76565b80601f01602080910402602001604051908101604052809291908181526020018280546104e790610c76565b80156105345780601f1061050957610100808354040283529160200191610534565b820191906000526020600020905b81548152906001019060200180831161051757829003601f168201915b50505050509080600601805461054990610c76565b80601f016020809104026020016040519081016040528092919081815260200182805461057590610c76565b80156105c25780601f10610597576101008083540402835291602001916105c2565b820191906000526020600020905b8154815290600101906020018083116105a557829003601f168201915b5050505050905087565b806001836040516105dd9190610c30565b9081526020016040518091039020600201819055505050565b60018180516020810182018051848252602083016020850120818352809550505050505060009150905080600001805461062f90610c76565b80601f016020809104026020016040519081016040528092919081815260200182805461065b90610c76565b80156106a85780601f1061067d576101008083540402835291602001916106a8565b820191906000526020600020905b81548152906001019060200180831161068b57829003601f168201915b5050505050908060010154908060020154905083565b60006001826040516106d09190610c30565b908152602001604051809103902090504281600101819055505050565b6000604051905090565b600080fd5b600080fd5b600080fd5b600080fd5b6000601f19601f8301169050919050565b7f4e487b7100000000000000000000000000000000000000000000000000000000600052604160045260246000fd5b6107548261070b565b810181811067ffffffffffffffff821117156107735761077261071c565b5b80604052505050565b60006107866106ed565b9050610792828261074b565b919050565b600067ffffffffffffffff8211156107b2576107b161071c565b5b6107bb8261070b565b9050602081019050919050565b82818337600083830152505050565b60006107ea6107e584610797565b61077c565b90508281526020810184848401111561080657610805610706565b5b6108118482856107c8565b509392505050565b600082601f83011261082e5761082d610701565b5b813561083e8482602086016107d7565b91505092915050565b600080600080600080600060e0888a031215610866576108656106f7565b5b600088013567ffffffffffffffff811115610884576108836106fc565b5b6108908a828b01610819565b975050602088013567ffffffffffffffff8111156108b1576108b06106fc565b5b6108bd8a828b01610819565b965050604088013567ffffffffffffffff8111156108de576108dd6106fc565b5b6108ea8a828b01610819565b955050606088013567ffffffffffffffff81111561090b5761090a6106fc565b5b6109178a828b01610819565b945050608088013567ffffffffffffffff811115610938576109376106fc565b5b6109448a828b01610819565b93505060a088013567ffffffffffffffff811115610965576109646106fc565b5b6109718a828b01610819565b92505060c088013567ffffffffffffffff811115610992576109916106fc565b5b61099e8a828b01610819565b91505092959891949750929550565b6000602082840312156109c3576109c26106f7565b5b600082013567ffffffffffffffff8111156109e1576109e06106fc565b5b6109ed84828501610819565b91505092915050565b600081519050919050565b600082825260208201905092915050565b60005b83811015610a30578082015181840152602081019050610a15565b60008484015250505050565b6000610a47826109f6565b610a518185610a01565b9350610a61818560208601610a12565b610a6a8161070b565b840191505092915050565b600060e0820190508181036000830152610a8f818a610a3c565b90508181036020830152610aa38189610a3c565b90508181036040830152610ab78188610a3c565b90508181036060830152610acb8187610a3c565b90508181036080830152610adf8186610a3c565b905081810360a0830152610af38185610a3c565b905081810360c0830152610b078184610a3c565b905098975050505050505050565b6000819050919050565b610b2881610b15565b8114610b3357600080fd5b50565b600081359050610b4581610b1f565b92915050565b60008060408385031215610b6257610b616106f7565b5b600083013567ffffffffffffffff811115610b8057610b7f6106fc565b5b610b8c85828601610819565b9250506020610b9d85828601610b36565b9150509250929050565b610bb081610b15565b82525050565b60006060820190508181036000830152610bd08186610a3c565b9050610bdf6020830185610ba7565b610bec6040830184610ba7565b949350505050565b600081905092915050565b6000610c0a826109f6565b610c148185610bf4565b9350610c24818560208601610a12565b80840191505092915050565b6000610c3c8284610bff565b915081905092915050565b7f4e487b7100000000000000000000000000000000000000000000000000000000600052602260045260246000fd5b60006002820490506001821680610c8e57607f821691505b602082108103610ca157610ca0610c47565b5b50919050565b60008190508160005260206000209050919050565b60006020601f8301049050919050565b600082821b905092915050565b600060088302610d097fffffffffffffffffffffffffffffffffffffffffffffffffffffffffffffffff82610ccc565b610d138683610ccc565b95508019841693508086168417925050509392505050565b6000819050919050565b6000610d50610d4b610d4684610b15565b610d2b565b610b15565b9050919050565b6000819050919050565b610d6a83610d35565b610d7e610d7682610d57565b848454610cd9565b825550505050565b600090565b610d93610d86565b610d9e818484610d61565b505050565b5b81811015610dc257610db7600082610d8b565b600181019050610da4565b5050565b601f821115610e0757610dd881610ca7565b610de184610cbc565b81016020851015610df0578190505b610e04610dfc85610cbc565b830182610da3565b50505b505050565b600082821c905092915050565b6000610e2a60001984600802610e0c565b1980831691505092915050565b6000610e438383610e19565b9150826002028217905092915050565b610e5c826109f6565b67ffffffffffffffff811115610e7557610e7461071c565b5b610e7f8254610c76565b610e8a828285610dc6565b600060209050601f831160018114610ebd5760008415610eab578287015190505b610eb58582610e37565b865550610f1d565b601f198416610ecb86610ca7565b60005b82811015610ef357848901518255600182019150602085019450602081019050610ece565b86831015610f105784890151610f0c601f891682610e19565b8355505b6001600288020188555050505b50505050505056fea2646970667358221220c861e9e23b3f249fc3187cecf033f06b37ffc120ecbf2dea3ac7ad1d93d3781e64736f6c63430008120033",
					"opcodes": "PUSH1 0x80 PUSH1 0x40 MSTORE CALLVALUE DUP1 ISZERO PUSH2 0x10 JUMPI PUSH1 0x0 DUP1 REVERT JUMPDEST POP PUSH2 0xF5B DUP1 PUSH2 0x20 PUSH1 0x0 CODECOPY PUSH1 0x0 RETURN INVALID PUSH1 0x80 PUSH1 0x40 MSTORE PUSH1 0x4 CALLDATASIZE LT PUSH2 0x4A JUMPI PUSH1 0x0 CALLDATALOAD PUSH1 0xE0 SHR DUP1 PUSH4 0x225DE452 EQ PUSH2 0x4F JUMPI DUP1 PUSH4 0x3EE6C95C EQ PUSH2 0x6B JUMPI DUP1 PUSH4 0x4CD1341C EQ PUSH2 0xAE JUMPI DUP1 PUSH4 0x59C90554 EQ PUSH2 0xCA JUMPI DUP1 PUSH4 0x7124FC8D EQ PUSH2 0x109 JUMPI JUMPDEST PUSH1 0x0 DUP1 REVERT JUMPDEST PUSH2 0x69 PUSH1 0x4 DUP1 CALLDATASIZE SUB DUP2 ADD SWAP1 PUSH2 0x64 SWAP2 SWAP1 PUSH2 0x847 JUMP JUMPDEST PUSH2 0x125 JUMP JUMPDEST STOP JUMPDEST CALLVALUE DUP1 ISZERO PUSH2 0x77 JUMPI PUSH1 0x0 DUP1 REVERT JUMPDEST POP PUSH2 0x92 PUSH1 0x4 DUP1 CALLDATASIZE SUB DUP2 ADD SWAP1 PUSH2 0x8D SWAP2 SWAP1 PUSH2 0x9AD JUMP JUMPDEST PUSH2 0x1BC JUMP JUMPDEST PUSH1 0x40 MLOAD PUSH2 0xA5 SWAP8 SWAP7 SWAP6 SWAP5 SWAP4 SWAP3 SWAP2 SWAP1 PUSH2 0xA75 JUMP JUMPDEST PUSH1 0x40 MLOAD DUP1 SWAP2 SUB SWAP1 RETURN JUMPDEST PUSH2 0xC8 PUSH1 0x4 DUP1 CALLDATASIZE SUB DUP2 ADD SWAP1 PUSH2 0xC3 SWAP2 SWAP1 PUSH2 0xB4B JUMP JUMPDEST PUSH2 0x5CC JUMP JUMPDEST STOP JUMPDEST CALLVALUE DUP1 ISZERO PUSH2 0xD6 JUMPI PUSH1 0x0 DUP1 REVERT JUMPDEST POP PUSH2 0xF1 PUSH1 0x4 DUP1 CALLDATASIZE SUB DUP2 ADD SWAP1 PUSH2 0xEC SWAP2 SWAP1 PUSH2 0x9AD JUMP JUMPDEST PUSH2 0x5F6 JUMP JUMPDEST PUSH1 0x40 MLOAD PUSH2 0x100 SWAP4 SWAP3 SWAP2 SWAP1 PUSH2 0xBB6 JUMP JUMPDEST PUSH1 0x40 MLOAD DUP1 SWAP2 SUB SWAP1 RETURN JUMPDEST PUSH2 0x123 PUSH1 0x4 DUP1 CALLDATASIZE SUB DUP2 ADD SWAP1 PUSH2 0x11E SWAP2 SWAP1 PUSH2 0x9AD JUMP JUMPDEST PUSH2 0x6BE JUMP JUMPDEST STOP JUMPDEST PUSH1 0x0 DUP1 DUP9 PUSH1 0x40 MLOAD PUSH2 0x136 SWAP2 SWAP1 PUSH2 0xC30 JUMP JUMPDEST SWAP1 DUP2 MSTORE PUSH1 0x20 ADD PUSH1 0x40 MLOAD DUP1 SWAP2 SUB SWAP1 KECCAK256 SWAP1 POP DUP7 DUP2 PUSH1 0x3 ADD SWAP1 DUP2 PUSH2 0x157 SWAP2 SWAP1 PUSH2 0xE53 JUMP JUMPDEST POP DUP6 DUP2 PUSH1 0x1 ADD SWAP1 DUP2 PUSH2 0x169 SWAP2 SWAP1 PUSH2 0xE53 JUMP JUMPDEST POP DUP5 DUP2 PUSH1 0x4 ADD SWAP1 DUP2 PUSH2 0x17B SWAP2 SWAP1 PUSH2 0xE53 JUMP JUMPDEST POP DUP4 DUP2 PUSH1 0x2 ADD SWAP1 DUP2 PUSH2 0x18D SWAP2 SWAP1 PUSH2 0xE53 JUMP JUMPDEST POP DUP3 DUP2 PUSH1 0x5 ADD SWAP1 DUP2 PUSH2 0x19F SWAP2 SWAP1 PUSH2 0xE53 JUMP JUMPDEST POP DUP2 DUP2 PUSH1 0x6 ADD SWAP1 DUP2 PUSH2 0x1B1 SWAP2 SWAP1 PUSH2 0xE53 JUMP JUMPDEST POP POP POP POP POP POP POP POP POP JUMP JUMPDEST PUSH1 0x0 DUP2 DUP1 MLOAD PUSH1 0x20 DUP2 ADD DUP3 ADD DUP1 MLOAD DUP5 DUP3 MSTORE PUSH1 0x20 DUP4 ADD PUSH1 0x20 DUP6 ADD KECCAK256 DUP2 DUP4 MSTORE DUP1 SWAP6 POP POP POP POP POP POP PUSH1 0x0 SWAP2 POP SWAP1 POP DUP1 PUSH1 0x0 ADD DUP1 SLOAD PUSH2 0x1F5 SWAP1 PUSH2 0xC76 JUMP JUMPDEST DUP1 PUSH1 0x1F ADD PUSH1 0x20 DUP1 SWAP2 DIV MUL PUSH1 0x20 ADD PUSH1 0x40 MLOAD SWAP1 DUP2 ADD PUSH1 0x40 MSTORE DUP1 SWAP3 SWAP2 SWAP1 DUP2 DUP2 MSTORE PUSH1 0x20 ADD DUP3 DUP1 SLOAD PUSH2 0x221 SWAP1 PUSH2 0xC76 JUMP JUMPDEST DUP1 ISZERO PUSH2 0x26E JUMPI DUP1 PUSH1 0x1F LT PUSH2 0x243 JUMPI PUSH2 0x100 DUP1 DUP4 SLOAD DIV MUL DUP4 MSTORE SWAP2 PUSH1 0x20 ADD SWAP2 PUSH2 0x26E JUMP JUMPDEST DUP3 ADD SWAP2 SWAP1 PUSH1 0x0 MSTORE PUSH1 0x20 PUSH1 0x0 KECCAK256 SWAP1 JUMPDEST DUP2 SLOAD DUP2 MSTORE SWAP1 PUSH1 0x1 ADD SWAP1 PUSH1 0x20 ADD DUP1 DUP4 GT PUSH2 0x251 JUMPI DUP3 SWAP1 SUB PUSH1 0x1F AND DUP3 ADD SWAP2 JUMPDEST POP POP POP POP POP SWAP1 DUP1 PUSH1 0x1 ADD DUP1 SLOAD PUSH2 0x283 SWAP1 PUSH2 0xC76 JUMP JUMPDEST DUP1 PUSH1 0x1F ADD PUSH1 0x20 DUP1 SWAP2 DIV MUL PUSH1 0x20 ADD PUSH1 0x40 MLOAD SWAP1 DUP2 ADD PUSH1 0x40 MSTORE DUP1 SWAP3 SWAP2 SWAP1 DUP2 DUP2 MSTORE PUSH1 0x20 ADD DUP3 DUP1 SLOAD PUSH2 0x2AF SWAP1 PUSH2 0xC76 JUMP JUMPDEST DUP1 ISZERO PUSH2 0x2FC JUMPI DUP1 PUSH1 0x1F LT PUSH2 0x2D1 JUMPI PUSH2 0x100 DUP1 DUP4 SLOAD DIV MUL DUP4 MSTORE SWAP2 PUSH1 0x20 ADD SWAP2 PUSH2 0x2FC JUMP JUMPDEST DUP3 ADD SWAP2 SWAP1 PUSH1 0x0 MSTORE PUSH1 0x20 PUSH1 0x0 KECCAK256 SWAP1 JUMPDEST DUP2 SLOAD DUP2 MSTORE SWAP1 PUSH1 0x1 ADD SWAP1 PUSH1 0x20 ADD DUP1 DUP4 GT PUSH2 0x2DF JUMPI DUP3 SWAP1 SUB PUSH1 0x1F AND DUP3 ADD SWAP2 JUMPDEST POP POP POP POP POP SWAP1 DUP1 PUSH1 0x2 ADD DUP1 SLOAD PUSH2 0x311 SWAP1 PUSH2 0xC76 JUMP JUMPDEST DUP1 PUSH1 0x1F ADD PUSH1 0x20 DUP1 SWAP2 DIV MUL PUSH1 0x20 ADD PUSH1 0x40 MLOAD SWAP1 DUP2 ADD PUSH1 0x40 MSTORE DUP1 SWAP3 SWAP2 SWAP1 DUP2 DUP2 MSTORE PUSH1 0x20 ADD DUP3 DUP1 SLOAD PUSH2 0x33D SWAP1 PUSH2 0xC76 JUMP JUMPDEST DUP1 ISZERO PUSH2 0x38A JUMPI DUP1 PUSH1 0x1F LT PUSH2 0x35F JUMPI PUSH2 0x100 DUP1 DUP4 SLOAD DIV MUL DUP4 MSTORE SWAP2 PUSH1 0x20 ADD SWAP2 PUSH2 0x38A JUMP JUMPDEST DUP3 ADD SWAP2 SWAP1 PUSH1 0x0 MSTORE PUSH1 0x20 PUSH1 0x0 KECCAK256 SWAP1 JUMPDEST DUP2 SLOAD DUP2 MSTORE SWAP1 PUSH1 0x1 ADD SWAP1 PUSH1 0x20 ADD DUP1 DUP4 GT PUSH2 0x36D JUMPI DUP3 SWAP1 SUB PUSH1 0x1F AND DUP3 ADD SWAP2 JUMPDEST POP POP POP POP POP SWAP1 DUP1 PUSH1 0x3 ADD DUP1 SLOAD PUSH2 0x39F SWAP1 PUSH2 0xC76 JUMP JUMPDEST DUP1 PUSH1 0x1F ADD PUSH1 0x20 DUP1 SWAP2 DIV MUL PUSH1 0x20 ADD PUSH1 0x40 MLOAD SWAP1 DUP2 ADD PUSH1 0x40 MSTORE DUP1 SWAP3 SWAP2 SWAP1 DUP2 DUP2 MSTORE PUSH1 0x20 ADD DUP3 DUP1 SLOAD PUSH2 0x3CB SWAP1 PUSH2 0xC76 JUMP JUMPDEST DUP1 ISZERO PUSH2 0x418 JUMPI DUP1 PUSH1 0x1F LT PUSH2 0x3ED JUMPI PUSH2 0x100 DUP1 DUP4 SLOAD DIV MUL DUP4 MSTORE SWAP2 PUSH1 0x20 ADD SWAP2 PUSH2 0x418 JUMP JUMPDEST DUP3 ADD SWAP2 SWAP1 PUSH1 0x0 MSTORE PUSH1 0x20 PUSH1 0x0 KECCAK256 SWAP1 JUMPDEST DUP2 SLOAD DUP2 MSTORE SWAP1 PUSH1 0x1 ADD SWAP1 PUSH1 0x20 ADD DUP1 DUP4 GT PUSH2 0x3FB JUMPI DUP3 SWAP1 SUB PUSH1 0x1F AND DUP3 ADD SWAP2 JUMPDEST POP POP POP POP POP SWAP1 DUP1 PUSH1 0x4 ADD DUP1 SLOAD PUSH2 0x42D SWAP1 PUSH2 0xC76 JUMP JUMPDEST DUP1 PUSH1 0x1F ADD PUSH1 0x20 DUP1 SWAP2 DIV MUL PUSH1 0x20 ADD PUSH1 0x40 MLOAD SWAP1 DUP2 ADD PUSH1 0x40 MSTORE DUP1 SWAP3 SWAP2 SWAP1 DUP2 DUP2 MSTORE PUSH1 0x20 ADD DUP3 DUP1 SLOAD PUSH2 0x459 SWAP1 PUSH2 0xC76 JUMP JUMPDEST DUP1 ISZERO PUSH2 0x4A6 JUMPI DUP1 PUSH1 0x1F LT PUSH2 0x47B JUMPI PUSH2 0x100 DUP1 DUP4 SLOAD DIV MUL DUP4 MSTORE SWAP2 PUSH1 0x20 ADD SWAP2 PUSH2 0x4A6 JUMP JUMPDEST DUP3 ADD SWAP2 SWAP1 PUSH1 0x0 MSTORE PUSH1 0x20 PUSH1 0x0 KECCAK256 SWAP1 JUMPDEST DUP2 SLOAD DUP2 MSTORE SWAP1 PUSH1 0x1 ADD SWAP1 PUSH1 0x20 ADD DUP1 DUP4 GT PUSH2 0x489 JUMPI DUP3 SWAP1 SUB PUSH1 0x1F AND DUP3 ADD SWAP2 JUMPDEST POP POP POP POP POP SWAP1 DUP1 PUSH1 0x5 ADD DUP1 SLOAD PUSH2 0x4BB SWAP1 PUSH2 0xC76 JUMP JUMPDEST DUP1 PUSH1 0x1F ADD PUSH1 0x20 DUP1 SWAP2 DIV MUL PUSH1 0x20 ADD PUSH1 0x40 MLOAD SWAP1 DUP2 ADD PUSH1 0x40 MSTORE DUP1 SWAP3 SWAP2 SWAP1 DUP2 DUP2 MSTORE PUSH1 0x20 ADD DUP3 DUP1 SLOAD PUSH2 0x4E7 SWAP1 PUSH2 0xC76 JUMP JUMPDEST DUP1 ISZERO PUSH2 0x534 JUMPI DUP1 PUSH1 0x1F LT PUSH2 0x509 JUMPI PUSH2 0x100 DUP1 DUP4 SLOAD DIV MUL DUP4 MSTORE SWAP2 PUSH1 0x20 ADD SWAP2 PUSH2 0x534 JUMP JUMPDEST DUP3 ADD SWAP2 SWAP1 PUSH1 0x0 MSTORE PUSH1 0x20 PUSH1 0x0 KECCAK256 SWAP1 JUMPDEST DUP2 SLOAD DUP2 MSTORE SWAP1 PUSH1 0x1 ADD SWAP1 PUSH1 0x20 ADD DUP1 DUP4 GT PUSH2 0x517 JUMPI DUP3 SWAP1 SUB PUSH1 0x1F AND DUP3 ADD SWAP2 JUMPDEST POP POP POP POP POP SWAP1 DUP1 PUSH1 0x6 ADD DUP1 SLOAD PUSH2 0x549 SWAP1 PUSH2 0xC76 JUMP JUMPDEST DUP1 PUSH1 0x1F ADD PUSH1 0x20 DUP1 SWAP2 DIV MUL PUSH1 0x20 ADD PUSH1 0x40 MLOAD SWAP1 DUP2 ADD PUSH1 0x40 MSTORE DUP1 SWAP3 SWAP2 SWAP1 DUP2 DUP2 MSTORE PUSH1 0x20 ADD DUP3 DUP1 SLOAD PUSH2 0x575 SWAP1 PUSH2 0xC76 JUMP JUMPDEST DUP1 ISZERO PUSH2 0x5C2 JUMPI DUP1 PUSH1 0x1F LT PUSH2 0x597 JUMPI PUSH2 0x100 DUP1 DUP4 SLOAD DIV MUL DUP4 MSTORE SWAP2 PUSH1 0x20 ADD SWAP2 PUSH2 0x5C2 JUMP JUMPDEST DUP3 ADD SWAP2 SWAP1 PUSH1 0x0 MSTORE PUSH1 0x20 PUSH1 0x0 KECCAK256 SWAP1 JUMPDEST DUP2 SLOAD DUP2 MSTORE SWAP1 PUSH1 0x1 ADD SWAP1 PUSH1 0x20 ADD DUP1 DUP4 GT PUSH2 0x5A5 JUMPI DUP3 SWAP1 SUB PUSH1 0x1F AND DUP3 ADD SWAP2 JUMPDEST POP POP POP POP POP SWAP1 POP DUP8 JUMP JUMPDEST DUP1 PUSH1 0x1 DUP4 PUSH1 0x40 MLOAD PUSH2 0x5DD SWAP2 SWAP1 PUSH2 0xC30 JUMP JUMPDEST SWAP1 DUP2 MSTORE PUSH1 0x20 ADD PUSH1 0x40 MLOAD DUP1 SWAP2 SUB SWAP1 KECCAK256 PUSH1 0x2 ADD DUP2 SWAP1 SSTORE POP POP POP JUMP JUMPDEST PUSH1 0x1 DUP2 DUP1 MLOAD PUSH1 0x20 DUP2 ADD DUP3 ADD DUP1 MLOAD DUP5 DUP3 MSTORE PUSH1 0x20 DUP4 ADD PUSH1 0x20 DUP6 ADD KECCAK256 DUP2 DUP4 MSTORE DUP1 SWAP6 POP POP POP POP POP POP PUSH1 0x0 SWAP2 POP SWAP1 POP DUP1 PUSH1 0x0 ADD DUP1 SLOAD PUSH2 0x62F SWAP1 PUSH2 0xC76 JUMP JUMPDEST DUP1 PUSH1 0x1F ADD PUSH1 0x20 DUP1 SWAP2 DIV MUL PUSH1 0x20 ADD PUSH1 0x40 MLOAD SWAP1 DUP2 ADD PUSH1 0x40 MSTORE DUP1 SWAP3 SWAP2 SWAP1 DUP2 DUP2 MSTORE PUSH1 0x20 ADD DUP3 DUP1 SLOAD PUSH2 0x65B SWAP1 PUSH2 0xC76 JUMP JUMPDEST DUP1 ISZERO PUSH2 0x6A8 JUMPI DUP1 PUSH1 0x1F LT PUSH2 0x67D JUMPI PUSH2 0x100 DUP1 DUP4 SLOAD DIV MUL DUP4 MSTORE SWAP2 PUSH1 0x20 ADD SWAP2 PUSH2 0x6A8 JUMP JUMPDEST DUP3 ADD SWAP2 SWAP1 PUSH1 0x0 MSTORE PUSH1 0x20 PUSH1 0x0 KECCAK256 SWAP1 JUMPDEST DUP2 SLOAD DUP2 MSTORE SWAP1 PUSH1 0x1 ADD SWAP1 PUSH1 0x20 ADD DUP1 DUP4 GT PUSH2 0x68B JUMPI DUP3 SWAP1 SUB PUSH1 0x1F AND DUP3 ADD SWAP2 JUMPDEST POP POP POP POP POP SWAP1 DUP1 PUSH1 0x1 ADD SLOAD SWAP1 DUP1 PUSH1 0x2 ADD SLOAD SWAP1 POP DUP4 JUMP JUMPDEST PUSH1 0x0 PUSH1 0x1 DUP3 PUSH1 0x40 MLOAD PUSH2 0x6D0 SWAP2 SWAP1 PUSH2 0xC30 JUMP JUMPDEST SWAP1 DUP2 MSTORE PUSH1 0x20 ADD PUSH1 0x40 MLOAD DUP1 SWAP2 SUB SWAP1 KECCAK256 SWAP1 POP TIMESTAMP DUP2 PUSH1 0x1 ADD DUP2 SWAP1 SSTORE POP POP POP JUMP JUMPDEST PUSH1 0x0 PUSH1 0x40 MLOAD SWAP1 POP SWAP1 JUMP JUMPDEST PUSH1 0x0 DUP1 REVERT JUMPDEST PUSH1 0x0 DUP1 REVERT JUMPDEST PUSH1 0x0 DUP1 REVERT JUMPDEST PUSH1 0x0 DUP1 REVERT JUMPDEST PUSH1 0x0 PUSH1 0x1F NOT PUSH1 0x1F DUP4 ADD AND SWAP1 POP SWAP2 SWAP1 POP JUMP JUMPDEST PUSH32 0x4E487B7100000000000000000000000000000000000000000000000000000000 PUSH1 0x0 MSTORE PUSH1 0x41 PUSH1 0x4 MSTORE PUSH1 0x24 PUSH1 0x0 REVERT JUMPDEST PUSH2 0x754 DUP3 PUSH2 0x70B JUMP JUMPDEST DUP2 ADD DUP2 DUP2 LT PUSH8 0xFFFFFFFFFFFFFFFF DUP3 GT OR ISZERO PUSH2 0x773 JUMPI PUSH2 0x772 PUSH2 0x71C JUMP JUMPDEST JUMPDEST DUP1 PUSH1 0x40 MSTORE POP POP POP JUMP JUMPDEST PUSH1 0x0 PUSH2 0x786 PUSH2 0x6ED JUMP JUMPDEST SWAP1 POP PUSH2 0x792 DUP3 DUP3 PUSH2 0x74B JUMP JUMPDEST SWAP2 SWAP1 POP JUMP JUMPDEST PUSH1 0x0 PUSH8 0xFFFFFFFFFFFFFFFF DUP3 GT ISZERO PUSH2 0x7B2 JUMPI PUSH2 0x7B1 PUSH2 0x71C JUMP JUMPDEST JUMPDEST PUSH2 0x7BB DUP3 PUSH2 0x70B JUMP JUMPDEST SWAP1 POP PUSH1 0x20 DUP2 ADD SWAP1 POP SWAP2 SWAP1 POP JUMP JUMPDEST DUP3 DUP2 DUP4 CALLDATACOPY PUSH1 0x0 DUP4 DUP4 ADD MSTORE POP POP POP JUMP JUMPDEST PUSH1 0x0 PUSH2 0x7EA PUSH2 0x7E5 DUP5 PUSH2 0x797 JUMP JUMPDEST PUSH2 0x77C JUMP JUMPDEST SWAP1 POP DUP3 DUP2 MSTORE PUSH1 0x20 DUP2 ADD DUP5 DUP5 DUP5 ADD GT ISZERO PUSH2 0x806 JUMPI PUSH2 0x805 PUSH2 0x706 JUMP JUMPDEST JUMPDEST PUSH2 0x811 DUP5 DUP3 DUP6 PUSH2 0x7C8 JUMP JUMPDEST POP SWAP4 SWAP3 POP POP POP JUMP JUMPDEST PUSH1 0x0 DUP3 PUSH1 0x1F DUP4 ADD SLT PUSH2 0x82E JUMPI PUSH2 0x82D PUSH2 0x701 JUMP JUMPDEST JUMPDEST DUP2 CALLDATALOAD PUSH2 0x83E DUP5 DUP3 PUSH1 0x20 DUP7 ADD PUSH2 0x7D7 JUMP JUMPDEST SWAP2 POP POP SWAP3 SWAP2 POP POP JUMP JUMPDEST PUSH1 0x0 DUP1 PUSH1 0x0 DUP1 PUSH1 0x0 DUP1 PUSH1 0x0 PUSH1 0xE0 DUP9 DUP11 SUB SLT ISZERO PUSH2 0x866 JUMPI PUSH2 0x865 PUSH2 0x6F7 JUMP JUMPDEST JUMPDEST PUSH1 0x0 DUP9 ADD CALLDATALOAD PUSH8 0xFFFFFFFFFFFFFFFF DUP2 GT ISZERO PUSH2 0x884 JUMPI PUSH2 0x883 PUSH2 0x6FC JUMP JUMPDEST JUMPDEST PUSH2 0x890 DUP11 DUP3 DUP12 ADD PUSH2 0x819 JUMP JUMPDEST SWAP8 POP POP PUSH1 0x20 DUP9 ADD CALLDATALOAD PUSH8 0xFFFFFFFFFFFFFFFF DUP2 GT ISZERO PUSH2 0x8B1 JUMPI PUSH2 0x8B0 PUSH2 0x6FC JUMP JUMPDEST JUMPDEST PUSH2 0x8BD DUP11 DUP3 DUP12 ADD PUSH2 0x819 JUMP JUMPDEST SWAP7 POP POP PUSH1 0x40 DUP9 ADD CALLDATALOAD PUSH8 0xFFFFFFFFFFFFFFFF DUP2 GT ISZERO PUSH2 0x8DE JUMPI PUSH2 0x8DD PUSH2 0x6FC JUMP JUMPDEST JUMPDEST PUSH2 0x8EA DUP11 DUP3 DUP12 ADD PUSH2 0x819 JUMP JUMPDEST SWAP6 POP POP PUSH1 0x60 DUP9 ADD CALLDATALOAD PUSH8 0xFFFFFFFFFFFFFFFF DUP2 GT ISZERO PUSH2 0x90B JUMPI PUSH2 0x90A PUSH2 0x6FC JUMP JUMPDEST JUMPDEST PUSH2 0x917 DUP11 DUP3 DUP12 ADD PUSH2 0x819 JUMP JUMPDEST SWAP5 POP POP PUSH1 0x80 DUP9 ADD CALLDATALOAD PUSH8 0xFFFFFFFFFFFFFFFF DUP2 GT ISZERO PUSH2 0x938 JUMPI PUSH2 0x937 PUSH2 0x6FC JUMP JUMPDEST JUMPDEST PUSH2 0x944 DUP11 DUP3 DUP12 ADD PUSH2 0x819 JUMP JUMPDEST SWAP4 POP POP PUSH1 0xA0 DUP9 ADD CALLDATALOAD PUSH8 0xFFFFFFFFFFFFFFFF DUP2 GT ISZERO PUSH2 0x965 JUMPI PUSH2 0x964 PUSH2 0x6FC JUMP JUMPDEST JUMPDEST PUSH2 0x971 DUP11 DUP3 DUP12 ADD PUSH2 0x819 JUMP JUMPDEST SWAP3 POP POP PUSH1 0xC0 DUP9 ADD CALLDATALOAD PUSH8 0xFFFFFFFFFFFFFFFF DUP2 GT ISZERO PUSH2 0x992 JUMPI PUSH2 0x991 PUSH2 0x6FC JUMP JUMPDEST JUMPDEST PUSH2 0x99E DUP11 DUP3 DUP12 ADD PUSH2 0x819 JUMP JUMPDEST SWAP2 POP POP SWAP3 SWAP6 SWAP9 SWAP2 SWAP5 SWAP8 POP SWAP3 SWAP6 POP JUMP JUMPDEST PUSH1 0x0 PUSH1 0x20 DUP3 DUP5 SUB SLT ISZERO PUSH2 0x9C3 JUMPI PUSH2 0x9C2 PUSH2 0x6F7 JUMP JUMPDEST JUMPDEST PUSH1 0x0 DUP3 ADD CALLDATALOAD PUSH8 0xFFFFFFFFFFFFFFFF DUP2 GT ISZERO PUSH2 0x9E1 JUMPI PUSH2 0x9E0 PUSH2 0x6FC JUMP JUMPDEST JUMPDEST PUSH2 0x9ED DUP5 DUP3 DUP6 ADD PUSH2 0x819 JUMP JUMPDEST SWAP2 POP POP SWAP3 SWAP2 POP POP JUMP JUMPDEST PUSH1 0x0 DUP2 MLOAD SWAP1 POP SWAP2 SWAP1 POP JUMP JUMPDEST PUSH1 0x0 DUP3 DUP3 MSTORE PUSH1 0x20 DUP3 ADD SWAP1 POP SWAP3 SWAP2 POP POP JUMP JUMPDEST PUSH1 0x0 JUMPDEST DUP4 DUP2 LT ISZERO PUSH2 0xA30 JUMPI DUP1 DUP3 ADD MLOAD DUP2 DUP5 ADD MSTORE PUSH1 0x20 DUP2 ADD SWAP1 POP PUSH2 0xA15 JUMP JUMPDEST PUSH1 0x0 DUP5 DUP5 ADD MSTORE POP POP POP POP JUMP JUMPDEST PUSH1 0x0 PUSH2 0xA47 DUP3 PUSH2 0x9F6 JUMP JUMPDEST PUSH2 0xA51 DUP2 DUP6 PUSH2 0xA01 JUMP JUMPDEST SWAP4 POP PUSH2 0xA61 DUP2 DUP6 PUSH1 0x20 DUP7 ADD PUSH2 0xA12 JUMP JUMPDEST PUSH2 0xA6A DUP2 PUSH2 0x70B JUMP JUMPDEST DUP5 ADD SWAP2 POP POP SWAP3 SWAP2 POP POP JUMP JUMPDEST PUSH1 0x0 PUSH1 0xE0 DUP3 ADD SWAP1 POP DUP2 DUP2 SUB PUSH1 0x0 DUP4 ADD MSTORE PUSH2 0xA8F DUP2 DUP11 PUSH2 0xA3C JUMP JUMPDEST SWAP1 POP DUP2 DUP2 SUB PUSH1 0x20 DUP4 ADD MSTORE PUSH2 0xAA3 DUP2 DUP10 PUSH2 0xA3C JUMP JUMPDEST SWAP1 POP DUP2 DUP2 SUB PUSH1 0x40 DUP4 ADD MSTORE PUSH2 0xAB7 DUP2 DUP9 PUSH2 0xA3C JUMP JUMPDEST SWAP1 POP DUP2 DUP2 SUB PUSH1 0x60 DUP4 ADD MSTORE PUSH2 0xACB DUP2 DUP8 PUSH2 0xA3C JUMP JUMPDEST SWAP1 POP DUP2 DUP2 SUB PUSH1 0x80 DUP4 ADD MSTORE PUSH2 0xADF DUP2 DUP7 PUSH2 0xA3C JUMP JUMPDEST SWAP1 POP DUP2 DUP2 SUB PUSH1 0xA0 DUP4 ADD MSTORE PUSH2 0xAF3 DUP2 DUP6 PUSH2 0xA3C JUMP JUMPDEST SWAP1 POP DUP2 DUP2 SUB PUSH1 0xC0 DUP4 ADD MSTORE PUSH2 0xB07 DUP2 DUP5 PUSH2 0xA3C JUMP JUMPDEST SWAP1 POP SWAP9 SWAP8 POP POP POP POP POP POP POP POP JUMP JUMPDEST PUSH1 0x0 DUP2 SWAP1 POP SWAP2 SWAP1 POP JUMP JUMPDEST PUSH2 0xB28 DUP2 PUSH2 0xB15 JUMP JUMPDEST DUP2 EQ PUSH2 0xB33 JUMPI PUSH1 0x0 DUP1 REVERT JUMPDEST POP JUMP JUMPDEST PUSH1 0x0 DUP2 CALLDATALOAD SWAP1 POP PUSH2 0xB45 DUP2 PUSH2 0xB1F JUMP JUMPDEST SWAP3 SWAP2 POP POP JUMP JUMPDEST PUSH1 0x0 DUP1 PUSH1 0x40 DUP4 DUP6 SUB SLT ISZERO PUSH2 0xB62 JUMPI PUSH2 0xB61 PUSH2 0x6F7 JUMP JUMPDEST JUMPDEST PUSH1 0x0 DUP4 ADD CALLDATALOAD PUSH8 0xFFFFFFFFFFFFFFFF DUP2 GT ISZERO PUSH2 0xB80 JUMPI PUSH2 0xB7F PUSH2 0x6FC JUMP JUMPDEST JUMPDEST PUSH2 0xB8C DUP6 DUP3 DUP7 ADD PUSH2 0x819 JUMP JUMPDEST SWAP3 POP POP PUSH1 0x20 PUSH2 0xB9D DUP6 DUP3 DUP7 ADD PUSH2 0xB36 JUMP JUMPDEST SWAP2 POP POP SWAP3 POP SWAP3 SWAP1 POP JUMP JUMPDEST PUSH2 0xBB0 DUP2 PUSH2 0xB15 JUMP JUMPDEST DUP3 MSTORE POP POP JUMP JUMPDEST PUSH1 0x0 PUSH1 0x60 DUP3 ADD SWAP1 POP DUP2 DUP2 SUB PUSH1 0x0 DUP4 ADD MSTORE PUSH2 0xBD0 DUP2 DUP7 PUSH2 0xA3C JUMP JUMPDEST SWAP1 POP PUSH2 0xBDF PUSH1 0x20 DUP4 ADD DUP6 PUSH2 0xBA7 JUMP JUMPDEST PUSH2 0xBEC PUSH1 0x40 DUP4 ADD DUP5 PUSH2 0xBA7 JUMP JUMPDEST SWAP5 SWAP4 POP POP POP POP JUMP JUMPDEST PUSH1 0x0 DUP2 SWAP1 POP SWAP3 SWAP2 POP POP JUMP JUMPDEST PUSH1 0x0 PUSH2 0xC0A DUP3 PUSH2 0x9F6 JUMP JUMPDEST PUSH2 0xC14 DUP2 DUP6 PUSH2 0xBF4 JUMP JUMPDEST SWAP4 POP PUSH2 0xC24 DUP2 DUP6 PUSH1 0x20 DUP7 ADD PUSH2 0xA12 JUMP JUMPDEST DUP1 DUP5 ADD SWAP2 POP POP SWAP3 SWAP2 POP POP JUMP JUMPDEST PUSH1 0x0 PUSH2 0xC3C DUP3 DUP5 PUSH2 0xBFF JUMP JUMPDEST SWAP2 POP DUP2 SWAP1 POP SWAP3 SWAP2 POP POP JUMP JUMPDEST PUSH32 0x4E487B7100000000000000000000000000000000000000000000000000000000 PUSH1 0x0 MSTORE PUSH1 0x22 PUSH1 0x4 MSTORE PUSH1 0x24 PUSH1 0x0 REVERT JUMPDEST PUSH1 0x0 PUSH1 0x2 DUP3 DIV SWAP1 POP PUSH1 0x1 DUP3 AND DUP1 PUSH2 0xC8E JUMPI PUSH1 0x7F DUP3 AND SWAP2 POP JUMPDEST PUSH1 0x20 DUP3 LT DUP2 SUB PUSH2 0xCA1 JUMPI PUSH2 0xCA0 PUSH2 0xC47 JUMP JUMPDEST JUMPDEST POP SWAP2 SWAP1 POP JUMP JUMPDEST PUSH1 0x0 DUP2 SWAP1 POP DUP2 PUSH1 0x0 MSTORE PUSH1 0x20 PUSH1 0x0 KECCAK256 SWAP1 POP SWAP2 SWAP1 POP JUMP JUMPDEST PUSH1 0x0 PUSH1 0x20 PUSH1 0x1F DUP4 ADD DIV SWAP1 POP SWAP2 SWAP1 POP JUMP JUMPDEST PUSH1 0x0 DUP3 DUP3 SHL SWAP1 POP SWAP3 SWAP2 POP POP JUMP JUMPDEST PUSH1 0x0 PUSH1 0x8 DUP4 MUL PUSH2 0xD09 PUSH32 0xFFFFFFFFFFFFFFFFFFFFFFFFFFFFFFFFFFFFFFFFFFFFFFFFFFFFFFFFFFFFFFFF DUP3 PUSH2 0xCCC JUMP JUMPDEST PUSH2 0xD13 DUP7 DUP4 PUSH2 0xCCC JUMP JUMPDEST SWAP6 POP DUP1 NOT DUP5 AND SWAP4 POP DUP1 DUP7 AND DUP5 OR SWAP3 POP POP POP SWAP4 SWAP3 POP POP POP JUMP JUMPDEST PUSH1 0x0 DUP2 SWAP1 POP SWAP2 SWAP1 POP JUMP JUMPDEST PUSH1 0x0 PUSH2 0xD50 PUSH2 0xD4B PUSH2 0xD46 DUP5 PUSH2 0xB15 JUMP JUMPDEST PUSH2 0xD2B JUMP JUMPDEST PUSH2 0xB15 JUMP JUMPDEST SWAP1 POP SWAP2 SWAP1 POP JUMP JUMPDEST PUSH1 0x0 DUP2 SWAP1 POP SWAP2 SWAP1 POP JUMP JUMPDEST PUSH2 0xD6A DUP4 PUSH2 0xD35 JUMP JUMPDEST PUSH2 0xD7E PUSH2 0xD76 DUP3 PUSH2 0xD57 JUMP JUMPDEST DUP5 DUP5 SLOAD PUSH2 0xCD9 JUMP JUMPDEST DUP3 SSTORE POP POP POP POP JUMP JUMPDEST PUSH1 0x0 SWAP1 JUMP JUMPDEST PUSH2 0xD93 PUSH2 0xD86 JUMP JUMPDEST PUSH2 0xD9E DUP2 DUP5 DUP5 PUSH2 0xD61 JUMP JUMPDEST POP POP POP JUMP JUMPDEST JUMPDEST DUP2 DUP2 LT ISZERO PUSH2 0xDC2 JUMPI PUSH2 0xDB7 PUSH1 0x0 DUP3 PUSH2 0xD8B JUMP JUMPDEST PUSH1 0x1 DUP2 ADD SWAP1 POP PUSH2 0xDA4 JUMP JUMPDEST POP POP JUMP JUMPDEST PUSH1 0x1F DUP3 GT ISZERO PUSH2 0xE07 JUMPI PUSH2 0xDD8 DUP2 PUSH2 0xCA7 JUMP JUMPDEST PUSH2 0xDE1 DUP5 PUSH2 0xCBC JUMP JUMPDEST DUP2 ADD PUSH1 0x20 DUP6 LT ISZERO PUSH2 0xDF0 JUMPI DUP2 SWAP1 POP JUMPDEST PUSH2 0xE04 PUSH2 0xDFC DUP6 PUSH2 0xCBC JUMP JUMPDEST DUP4 ADD DUP3 PUSH2 0xDA3 JUMP JUMPDEST POP POP JUMPDEST POP POP POP JUMP JUMPDEST PUSH1 0x0 DUP3 DUP3 SHR SWAP1 POP SWAP3 SWAP2 POP POP JUMP JUMPDEST PUSH1 0x0 PUSH2 0xE2A PUSH1 0x0 NOT DUP5 PUSH1 0x8 MUL PUSH2 0xE0C JUMP JUMPDEST NOT DUP1 DUP4 AND SWAP2 POP POP SWAP3 SWAP2 POP POP JUMP JUMPDEST PUSH1 0x0 PUSH2 0xE43 DUP4 DUP4 PUSH2 0xE19 JUMP JUMPDEST SWAP2 POP DUP3 PUSH1 0x2 MUL DUP3 OR SWAP1 POP SWAP3 SWAP2 POP POP JUMP JUMPDEST PUSH2 0xE5C DUP3 PUSH2 0x9F6 JUMP JUMPDEST PUSH8 0xFFFFFFFFFFFFFFFF DUP2 GT ISZERO PUSH2 0xE75 JUMPI PUSH2 0xE74 PUSH2 0x71C JUMP JUMPDEST JUMPDEST PUSH2 0xE7F DUP3 SLOAD PUSH2 0xC76 JUMP JUMPDEST PUSH2 0xE8A DUP3 DUP3 DUP6 PUSH2 0xDC6 JUMP JUMPDEST PUSH1 0x0 PUSH1 0x20 SWAP1 POP PUSH1 0x1F DUP4 GT PUSH1 0x1 DUP2 EQ PUSH2 0xEBD JUMPI PUSH1 0x0 DUP5 ISZERO PUSH2 0xEAB JUMPI DUP3 DUP8 ADD MLOAD SWAP1 POP JUMPDEST PUSH2 0xEB5 DUP6 DUP3 PUSH2 0xE37 JUMP JUMPDEST DUP7 SSTORE POP PUSH2 0xF1D JUMP JUMPDEST PUSH1 0x1F NOT DUP5 AND PUSH2 0xECB DUP7 PUSH2 0xCA7 JUMP JUMPDEST PUSH1 0x0 JUMPDEST DUP3 DUP2 LT ISZERO PUSH2 0xEF3 JUMPI DUP5 DUP10 ADD MLOAD DUP3 SSTORE PUSH1 0x1 DUP3 ADD SWAP2 POP PUSH1 0x20 DUP6 ADD SWAP5 POP PUSH1 0x20 DUP2 ADD SWAP1 POP PUSH2 0xECE JUMP JUMPDEST DUP7 DUP4 LT ISZERO PUSH2 0xF10 JUMPI DUP5 DUP10 ADD MLOAD PUSH2 0xF0C PUSH1 0x1F DUP10 AND DUP3 PUSH2 0xE19 JUMP JUMPDEST DUP4 SSTORE POP JUMPDEST PUSH1 0x1 PUSH1 0x2 DUP9 MUL ADD DUP9 SSTORE POP POP POP JUMPDEST POP POP POP POP POP POP JUMP INVALID LOG2 PUSH5 0x6970667358 0x22 SLT KECCAK256 0xC8 PUSH2 0xE9E2 EXTCODESIZE EXTCODEHASH 0x24 SWAP16 0xC3 XOR PUSH29 0xECF033F06B37FFC120ECBF2DEA3AC7AD1D93D3781E64736F6C63430008 SLT STOP CALLER "
				},
				"gasEstimates": {
					"creation": {
						"codeDepositCost": "786200",
						"executionCost": "818",
						"totalCost": "787018"
					},
					"external": {
						"inspections(string)": "infinite",
						"request_inspection(string)": "infinite",
						"sc_results(string)": "infinite",
						"schedule_inspection(string,uint256)": "infinite",
						"seed_certification_results(string,string,string,string,string,string,string)": "infinite"
					}
				},
				"methodIdentifiers": {
					"inspections(string)": "59c90554",
					"request_inspection(string)": "7124fc8d",
					"sc_results(string)": "3ee6c95c",
					"schedule_inspection(string,uint256)": "4cd1341c",
					"seed_certification_results(string,string,string,string,string,string,string)": "225de452"
				}
			},
			"storageLayout": {
				"storage": [
					{
						"astId": 7,
						"contract": "contracts/CertificationContract.sol:CertificationContract",
						"label": "sc_results",
						"offset": 0,
						"slot": "0",
						"type": "t_mapping(t_string_memory_ptr,t_struct(SeedCertificationResults)145_storage)"
					},
					{
						"astId": 12,
						"contract": "contracts/CertificationContract.sol:CertificationContract",
						"label": "inspections",
						"offset": 0,
						"slot": "1",
						"type": "t_mapping(t_string_memory_ptr,t_struct(Inspection)123_storage)"
					}
				],
				"types": {
					"t_mapping(t_string_memory_ptr,t_struct(Inspection)123_storage)": {
						"encoding": "mapping",
						"key": "t_string_memory_ptr",
						"label": "mapping(string => struct Inspection)",
						"numberOfBytes": "32",
						"value": "t_struct(Inspection)123_storage"
					},
					"t_mapping(t_string_memory_ptr,t_struct(SeedCertificationResults)145_storage)": {
						"encoding": "mapping",
						"key": "t_string_memory_ptr",
						"label": "mapping(string => struct SeedCertificationResults)",
						"numberOfBytes": "32",
						"value": "t_struct(SeedCertificationResults)145_storage"
					},
					"t_string_memory_ptr": {
						"encoding": "bytes",
						"label": "string",
						"numberOfBytes": "32"
					},
					"t_string_storage": {
						"encoding": "bytes",
						"label": "string",
						"numberOfBytes": "32"
					},
					"t_struct(Inspection)123_storage": {
						"encoding": "inplace",
						"label": "struct Inspection",
						"members": [
							{
								"astId": 118,
								"contract": "contracts/CertificationContract.sol:CertificationContract",
								"label": "ds_hash",
								"offset": 0,
								"slot": "0",
								"type": "t_string_storage"
							},
							{
								"astId": 120,
								"contract": "contracts/CertificationContract.sol:CertificationContract",
								"label": "application_timestamp",
								"offset": 0,
								"slot": "1",
								"type": "t_uint256"
							},
							{
								"astId": 122,
								"contract": "contracts/CertificationContract.sol:CertificationContract",
								"label": "scheduled_inspection_timestamp",
								"offset": 0,
								"slot": "2",
								"type": "t_uint256"
							}
						],
						"numberOfBytes": "96"
					},
					"t_struct(SeedCertificationResults)145_storage": {
						"encoding": "inplace",
						"label": "struct SeedCertificationResults",
						"members": [
							{
								"astId": 132,
								"contract": "contracts/CertificationContract.sol:CertificationContract",
								"label": "sca_uid",
								"offset": 0,
								"slot": "0",
								"type": "t_string_storage"
							},
							{
								"astId": 134,
								"contract": "contracts/CertificationContract.sol:CertificationContract",
								"label": "field_inspection",
								"offset": 0,
								"slot": "1",
								"type": "t_string_storage"
							},
							{
								"astId": 136,
								"contract": "contracts/CertificationContract.sol:CertificationContract",
								"label": "bulk_inspection",
								"offset": 0,
								"slot": "2",
								"type": "t_string_storage"
							},
							{
								"astId": 138,
								"contract": "contracts/CertificationContract.sol:CertificationContract",
								"label": "eval_of_orign",
								"offset": 0,
								"slot": "3",
								"type": "t_string_storage"
							},
							{
								"astId": 140,
								"contract": "contracts/CertificationContract.sol:CertificationContract",
								"label": "sample_inspection",
								"offset": 0,
								"slot": "4",
								"type": "t_string_storage"
							},
							{
								"astId": 142,
								"contract": "contracts/CertificationContract.sol:CertificationContract",
								"label": "control_plot_testing",
								"offset": 0,
								"slot": "5",
								"type": "t_string_storage"
							},
							{
								"astId": 144,
								"contract": "contracts/CertificationContract.sol:CertificationContract",
								"label": "grow_out_test",
								"offset": 0,
								"slot": "6",
								"type": "t_string_storage"
							}
						],
						"numberOfBytes": "224"
					},
					"t_uint256": {
						"encoding": "inplace",
						"label": "uint256",
						"numberOfBytes": "32"
					}
				}
			},
			"userdoc": {
				"kind": "user",
				"methods": {},
				"version": 1
			}
		}
	}
}