{
	"contracts/CertificationContract.sol": {
		"CertificationContract": {
			"abi": [
				{
					"inputs": [],
					"name": "generate_results",
					"outputs": [],
					"stateMutability": "nonpayable",
					"type": "function"
				},
				{
					"inputs": [],
					"name": "request_inspection",
					"outputs": [],
					"stateMutability": "nonpayable",
					"type": "function"
				}
			],
			"devdoc": {
				"kind": "dev",
				"methods": {},
				"version": 1
			},
			"evm": {
				"assembly": "    /* \"contracts/CertificationContract.sol\":57:187  contract CertificationContract{... */\n  mstore(0x40, 0x80)\n  callvalue\n  dup1\n  iszero\n  tag_1\n  jumpi\n  0x00\n  dup1\n  revert\ntag_1:\n  pop\n  dataSize(sub_0)\n  dup1\n  dataOffset(sub_0)\n  0x00\n  codecopy\n  0x00\n  return\nstop\n\nsub_0: assembly {\n        /* \"contracts/CertificationContract.sol\":57:187  contract CertificationContract{... */\n      mstore(0x40, 0x80)\n      callvalue\n      dup1\n      iszero\n      tag_1\n      jumpi\n      0x00\n      dup1\n      revert\n    tag_1:\n      pop\n      jumpi(tag_2, lt(calldatasize, 0x04))\n      shr(0xe0, calldataload(0x00))\n      dup1\n      0x3ae065fa\n      eq\n      tag_3\n      jumpi\n      dup1\n      0x9281bbcc\n      eq\n      tag_4\n      jumpi\n    tag_2:\n      0x00\n      dup1\n      revert\n        /* \"contracts/CertificationContract.sol\":143:185  function generate_results() public{... */\n    tag_3:\n      tag_5\n      tag_6\n      jump\t// in\n    tag_5:\n      stop\n        /* \"contracts/CertificationContract.sol\":93:137  function request_inspection() public{... */\n    tag_4:\n      tag_7\n      tag_8\n      jump\t// in\n    tag_7:\n      stop\n        /* \"contracts/CertificationContract.sol\":143:185  function generate_results() public{... */\n    tag_6:\n      jump\t// out\n        /* \"contracts/CertificationContract.sol\":93:137  function request_inspection() public{... */\n    tag_8:\n      jump\t// out\n\n    auxdata: 0xa2646970667358221220a7bfab06fad17d795d3e8a8ea2a526aeb26172ef3b3f0106f8386c594702b77764736f6c63430008120033\n}\n",
				"bytecode": {
					"linkReferences": {},
					"object": "6080604052348015600f57600080fd5b5060818061001e6000396000f3fe6080604052348015600f57600080fd5b506004361060325760003560e01c80633ae065fa1460375780639281bbcc14603f575b600080fd5b603d6047565b005b60456049565b005b565b56fea2646970667358221220a7bfab06fad17d795d3e8a8ea2a526aeb26172ef3b3f0106f8386c594702b77764736f6c63430008120033",
					"opcodes": "PUSH1 0x80 PUSH1 0x40 MSTORE CALLVALUE DUP1 ISZERO PUSH1 0xF JUMPI PUSH1 0x0 DUP1 REVERT JUMPDEST POP PUSH1 0x81 DUP1 PUSH2 0x1E PUSH1 0x0 CODECOPY PUSH1 0x0 RETURN INVALID PUSH1 0x80 PUSH1 0x40 MSTORE CALLVALUE DUP1 ISZERO PUSH1 0xF JUMPI PUSH1 0x0 DUP1 REVERT JUMPDEST POP PUSH1 0x4 CALLDATASIZE LT PUSH1 0x32 JUMPI PUSH1 0x0 CALLDATALOAD PUSH1 0xE0 SHR DUP1 PUSH4 0x3AE065FA EQ PUSH1 0x37 JUMPI DUP1 PUSH4 0x9281BBCC EQ PUSH1 0x3F JUMPI JUMPDEST PUSH1 0x0 DUP1 REVERT JUMPDEST PUSH1 0x3D PUSH1 0x47 JUMP JUMPDEST STOP JUMPDEST PUSH1 0x45 PUSH1 0x49 JUMP JUMPDEST STOP JUMPDEST JUMP JUMPDEST JUMP INVALID LOG2 PUSH5 0x6970667358 0x22 SLT KECCAK256 0xA7 0xBF 0xAB MOD STATICCALL 0xD1 PUSH30 0x795D3E8A8EA2A526AEB26172EF3B3F0106F8386C594702B77764736F6C63 NUMBER STOP ADDMOD SLT STOP CALLER "
				},
				"gasEstimates": {
					"creation": {
						"codeDepositCost": "25800",
						"executionCost": "81",
						"totalCost": "25881"
					},
					"external": {
						"generate_results()": "122",
						"request_inspection()": "144"
					}
				},
				"methodIdentifiers": {
					"generate_results()": "3ae065fa",
					"request_inspection()": "9281bbcc"
				}
			},
			"storageLayout": {
				"storage": [],
				"types": null
			},
			"userdoc": {
				"kind": "user",
				"methods": {},
				"version": 1
			}
		}
	}
}