{
	"contracts/Crop_Supply_Chain.sol": {
		"Crop_Supply_Chain": {
			"abi": [
				{
					"inputs": [
						{
							"internalType": "string",
							"name": "add",
							"type": "string"
						},
						{
							"internalType": "string",
							"name": "entity_type",
							"type": "string"
						}
					],
					"name": "deregister",
					"outputs": [],
					"stateMutability": "nonpayable",
					"type": "function"
				},
				{
					"inputs": [
						{
							"internalType": "uint256",
							"name": "",
							"type": "uint256"
						}
					],
					"name": "farmers",
					"outputs": [
						{
							"internalType": "string",
							"name": "",
							"type": "string"
						}
					],
					"stateMutability": "view",
					"type": "function"
				},
				{
					"inputs": [],
					"name": "getFarmers",
					"outputs": [
						{
							"internalType": "string[]",
							"name": "",
							"type": "string[]"
						}
					],
					"stateMutability": "nonpayable",
					"type": "function"
				},
				{
					"inputs": [],
					"name": "getSeedProducers",
					"outputs": [
						{
							"internalType": "string[]",
							"name": "",
							"type": "string[]"
						}
					],
					"stateMutability": "nonpayable",
					"type": "function"
				},
				{
					"inputs": [
						{
							"internalType": "string",
							"name": "add",
							"type": "string"
						},
						{
							"internalType": "string",
							"name": "entity_type",
							"type": "string"
						}
					],
					"name": "register",
					"outputs": [],
					"stateMutability": "nonpayable",
					"type": "function"
				},
				{
					"inputs": [
						{
							"internalType": "uint256",
							"name": "",
							"type": "uint256"
						}
					],
					"name": "seed_producers",
					"outputs": [
						{
							"internalType": "string",
							"name": "",
							"type": "string"
						}
					],
					"stateMutability": "view",
					"type": "function"
				}
			],
			"devdoc": {
				"kind": "dev",
				"methods": {},
				"version": 1
			},
			"evm": {
				"assembly": "    /* \"contracts/Crop_Supply_Chain.sol\":186:1503  contract Crop_Supply_Chain{... */\n  mstore(0x40, 0x80)\n  callvalue\n  dup1\n  iszero\n  tag_1\n  jumpi\n  0x00\n  dup1\n  revert\ntag_1:\n  pop\n  dataSize(sub_0)\n  dup1\n  dataOffset(sub_0)\n  0x00\n  codecopy\n  0x00\n  return\nstop\n\nsub_0: assembly {\n        /* \"contracts/Crop_Supply_Chain.sol\":186:1503  contract Crop_Supply_Chain{... */\n      mstore(0x40, 0x80)\n      callvalue\n      dup1\n      iszero\n      tag_1\n      jumpi\n      0x00\n      dup1\n      revert\n    tag_1:\n      pop\n      jumpi(tag_2, lt(calldatasize, 0x04))\n      shr(0xe0, calldataload(0x00))\n      dup1\n      0x2549df8c\n      eq\n      tag_3\n      jumpi\n      dup1\n      0x294b4860\n      eq\n      tag_4\n      jumpi\n      dup1\n      0x3ffbd47f\n      eq\n      tag_5\n      jumpi\n      dup1\n      0x789f8d40\n      eq\n      tag_6\n      jumpi\n      dup1\n      0x8afdd669\n      eq\n      tag_7\n      jumpi\n      dup1\n      0xd863c000\n      eq\n      tag_8\n      jumpi\n    tag_2:\n      0x00\n      dup1\n      revert\n        /* \"contracts/Crop_Supply_Chain.sol\":383:481  function getSeedProducers() public returns(string[] memory) {... */\n    tag_3:\n      tag_9\n      tag_10\n      jump\t// in\n    tag_9:\n      mload(0x40)\n      tag_11\n      swap2\n      swap1\n      tag_12\n      jump\t// in\n    tag_11:\n      mload(0x40)\n      dup1\n      swap2\n      sub\n      swap1\n      return\n        /* \"contracts/Crop_Supply_Chain.sol\":914:1499  function deregister(string memory add, string memory entity_type) public{... */\n    tag_4:\n      tag_13\n      0x04\n      dup1\n      calldatasize\n      sub\n      dup2\n      add\n      swap1\n      tag_14\n      swap2\n      swap1\n      tag_15\n      jump\t// in\n    tag_14:\n      tag_16\n      jump\t// in\n    tag_13:\n      stop\n        /* \"contracts/Crop_Supply_Chain.sol\":545:906  function register(string memory add, string memory entity_type) public{... */\n    tag_5:\n      tag_17\n      0x04\n      dup1\n      calldatasize\n      sub\n      dup2\n      add\n      swap1\n      tag_18\n      swap2\n      swap1\n      tag_15\n      jump\t// in\n    tag_18:\n      tag_19\n      jump\t// in\n    tag_17:\n      stop\n        /* \"contracts/Crop_Supply_Chain.sol\":290:375  function getFarmers() public returns(string[] memory) {... */\n    tag_6:\n      tag_20\n      tag_21\n      jump\t// in\n    tag_20:\n      mload(0x40)\n      tag_22\n      swap2\n      swap1\n      tag_12\n      jump\t// in\n    tag_22:\n      mload(0x40)\n      dup1\n      swap2\n      sub\n      swap1\n      return\n        /* \"contracts/Crop_Supply_Chain.sol\":221:244  string[] public farmers */\n    tag_7:\n      tag_23\n      0x04\n      dup1\n      calldatasize\n      sub\n      dup2\n      add\n      swap1\n      tag_24\n      swap2\n      swap1\n      tag_25\n      jump\t// in\n    tag_24:\n      tag_26\n      jump\t// in\n    tag_23:\n      mload(0x40)\n      tag_27\n      swap2\n      swap1\n      tag_28\n      jump\t// in\n    tag_27:\n      mload(0x40)\n      dup1\n      swap2\n      sub\n      swap1\n      return\n        /* \"contracts/Crop_Supply_Chain.sol\":251:281  string[] public seed_producers */\n    tag_8:\n      tag_29\n      0x04\n      dup1\n      calldatasize\n      sub\n      dup2\n      add\n      swap1\n      tag_30\n      swap2\n      swap1\n      tag_25\n      jump\t// in\n    tag_30:\n      tag_31\n      jump\t// in\n    tag_29:\n      mload(0x40)\n      tag_32\n      swap2\n      swap1\n      tag_28\n      jump\t// in\n    tag_32:\n      mload(0x40)\n      dup1\n      swap2\n      sub\n      swap1\n      return\n        /* \"contracts/Crop_Supply_Chain.sol\":383:481  function getSeedProducers() public returns(string[] memory) {... */\n    tag_10:\n        /* \"contracts/Crop_Supply_Chain.sol\":426:441  string[] memory */\n      0x60\n        /* \"contracts/Crop_Supply_Chain.sol\":459:473  seed_producers */\n      0x01\n        /* \"contracts/Crop_Supply_Chain.sol\":452:473  return seed_producers */\n      dup1\n      sload\n      dup1\n      0x20\n      mul\n      0x20\n      add\n      mload(0x40)\n      swap1\n      dup2\n      add\n      0x40\n      mstore\n      dup1\n      swap3\n      swap2\n      swap1\n      dup2\n      dup2\n      mstore\n      0x20\n      add\n      0x00\n      swap1\n    tag_34:\n      dup3\n      dup3\n      lt\n      iszero\n      tag_35\n      jumpi\n      dup4\n      dup3\n      swap1\n      0x00\n      mstore\n      keccak256(0x00, 0x20)\n      add\n      dup1\n      sload\n      tag_37\n      swap1\n      tag_38\n      jump\t// in\n    tag_37:\n      dup1\n      0x1f\n      add\n      0x20\n      dup1\n      swap2\n      div\n      mul\n      0x20\n      add\n      mload(0x40)\n      swap1\n      dup2\n      add\n      0x40\n      mstore\n      dup1\n      swap3\n      swap2\n      swap1\n      dup2\n      dup2\n      mstore\n      0x20\n      add\n      dup3\n      dup1\n      sload\n      tag_39\n      swap1\n      tag_38\n      jump\t// in\n    tag_39:\n      dup1\n      iszero\n      tag_40\n      jumpi\n      dup1\n      0x1f\n      lt\n      tag_41\n      jumpi\n      0x0100\n      dup1\n      dup4\n      sload\n      div\n      mul\n      dup4\n      mstore\n      swap2\n      0x20\n      add\n      swap2\n      jump(tag_40)\n    tag_41:\n      dup3\n      add\n      swap2\n      swap1\n      0x00\n      mstore\n      keccak256(0x00, 0x20)\n      swap1\n    tag_42:\n      dup2\n      sload\n      dup2\n      mstore\n      swap1\n      0x01\n      add\n      swap1\n      0x20\n      add\n      dup1\n      dup4\n      gt\n      tag_42\n      jumpi\n      dup3\n      swap1\n      sub\n      0x1f\n      and\n      dup3\n      add\n      swap2\n    tag_40:\n      pop\n      pop\n      pop\n      pop\n      pop\n      dup2\n      mstore\n      0x20\n      add\n      swap1\n      0x01\n      add\n      swap1\n      jump(tag_34)\n    tag_35:\n      pop\n      pop\n      pop\n      pop\n      swap1\n      pop\n        /* \"contracts/Crop_Supply_Chain.sol\":383:481  function getSeedProducers() public returns(string[] memory) {... */\n      swap1\n      jump\t// out\n        /* \"contracts/Crop_Supply_Chain.sol\":914:1499  function deregister(string memory add, string memory entity_type) public{... */\n    tag_16:\n        /* \"contracts/Crop_Supply_Chain.sol\":994:1019  string[] storage entities */\n      0x00\n        /* \"contracts/Crop_Supply_Chain.sol\":1069:1084  bytes(\"Farmer\") */\n      mload(0x40)\n      dup1\n      0x40\n      add\n      0x40\n      mstore\n      dup1\n      0x06\n      dup2\n      mstore\n      0x20\n      add\n      0x4661726d65720000000000000000000000000000000000000000000000000000\n      dup2\n      mstore\n      pop\n        /* \"contracts/Crop_Supply_Chain.sol\":1059:1085  keccak256(bytes(\"Farmer\")) */\n      dup1\n      mload\n      swap1\n      0x20\n      add\n      keccak256\n        /* \"contracts/Crop_Supply_Chain.sol\":1042:1053  entity_type */\n      dup3\n        /* \"contracts/Crop_Supply_Chain.sol\":1026:1055  keccak256(bytes(entity_type)) */\n      dup1\n      mload\n      swap1\n      0x20\n      add\n      keccak256\n        /* \"contracts/Crop_Supply_Chain.sol\":1026:1085  keccak256(bytes(entity_type)) == keccak256(bytes(\"Farmer\")) */\n      sub\n        /* \"contracts/Crop_Supply_Chain.sol\":1023:1234  if(keccak256(bytes(entity_type)) == keccak256(bytes(\"Farmer\"))) entities = farmers;... */\n      tag_44\n      jumpi\n        /* \"contracts/Crop_Supply_Chain.sol\":1098:1105  farmers */\n      0x00\n        /* \"contracts/Crop_Supply_Chain.sol\":1087:1105  entities = farmers */\n      swap1\n      pop\n        /* \"contracts/Crop_Supply_Chain.sol\":1023:1234  if(keccak256(bytes(entity_type)) == keccak256(bytes(\"Farmer\"))) entities = farmers;... */\n      jump(tag_45)\n    tag_44:\n        /* \"contracts/Crop_Supply_Chain.sol\":1220:1234  seed_producers */\n      0x01\n        /* \"contracts/Crop_Supply_Chain.sol\":1209:1234  entities = seed_producers */\n      swap1\n      pop\n        /* \"contracts/Crop_Supply_Chain.sol\":1023:1234  if(keccak256(bytes(entity_type)) == keccak256(bytes(\"Farmer\"))) entities = farmers;... */\n    tag_45:\n        /* \"contracts/Crop_Supply_Chain.sol\":1249:1255  uint i */\n      0x00\n        /* \"contracts/Crop_Supply_Chain.sol\":1245:1492  for(uint i = 0; i < entities.length; i++){... */\n    tag_46:\n        /* \"contracts/Crop_Supply_Chain.sol\":1265:1273  entities */\n      dup2\n        /* \"contracts/Crop_Supply_Chain.sol\":1265:1280  entities.length */\n      dup1\n      sload\n      swap1\n      pop\n        /* \"contracts/Crop_Supply_Chain.sol\":1261:1262  i */\n      dup2\n        /* \"contracts/Crop_Supply_Chain.sol\":1261:1280  i < entities.length */\n      lt\n        /* \"contracts/Crop_Supply_Chain.sol\":1245:1492  for(uint i = 0; i < entities.length; i++){... */\n      iszero\n      tag_47\n      jumpi\n        /* \"contracts/Crop_Supply_Chain.sol\":1351:1354  add */\n      dup4\n        /* \"contracts/Crop_Supply_Chain.sol\":1335:1356  keccak256(bytes(add)) */\n      dup1\n      mload\n      swap1\n      0x20\n      add\n      keccak256\n        /* \"contracts/Crop_Supply_Chain.sol\":1318:1326  entities */\n      dup3\n        /* \"contracts/Crop_Supply_Chain.sol\":1327:1328  i */\n      dup3\n        /* \"contracts/Crop_Supply_Chain.sol\":1318:1329  entities[i] */\n      dup2\n      sload\n      dup2\n      lt\n      tag_49\n      jumpi\n      tag_50\n      tag_51\n      jump\t// in\n    tag_50:\n    tag_49:\n      swap1\n      0x00\n      mstore\n      keccak256(0x00, 0x20)\n      add\n        /* \"contracts/Crop_Supply_Chain.sol\":1302:1331  keccak256(bytes(entities[i])) */\n      mload(0x40)\n      tag_53\n      swap2\n      swap1\n      tag_54\n      jump\t// in\n    tag_53:\n      mload(0x40)\n      dup1\n      swap2\n      sub\n      swap1\n      keccak256\n        /* \"contracts/Crop_Supply_Chain.sol\":1302:1356  keccak256(bytes(entities[i])) == keccak256(bytes(add)) */\n      sub\n        /* \"contracts/Crop_Supply_Chain.sol\":1299:1483  if(keccak256(bytes(entities[i])) == keccak256(bytes(add))){... */\n      tag_55\n      jumpi\n        /* \"contracts/Crop_Supply_Chain.sol\":1388:1396  entities */\n      dup2\n        /* \"contracts/Crop_Supply_Chain.sol\":1413:1414  1 */\n      0x01\n        /* \"contracts/Crop_Supply_Chain.sol\":1397:1405  entities */\n      dup4\n        /* \"contracts/Crop_Supply_Chain.sol\":1397:1412  entities.length */\n      dup1\n      sload\n      swap1\n      pop\n        /* \"contracts/Crop_Supply_Chain.sol\":1397:1414  entities.length-1 */\n      tag_56\n      swap2\n      swap1\n      tag_57\n      jump\t// in\n    tag_56:\n        /* \"contracts/Crop_Supply_Chain.sol\":1388:1415  entities[entities.length-1] */\n      dup2\n      sload\n      dup2\n      lt\n      tag_58\n      jumpi\n      tag_59\n      tag_51\n      jump\t// in\n    tag_59:\n    tag_58:\n      swap1\n      0x00\n      mstore\n      keccak256(0x00, 0x20)\n      add\n        /* \"contracts/Crop_Supply_Chain.sol\":1374:1382  entities */\n      dup3\n        /* \"contracts/Crop_Supply_Chain.sol\":1383:1384  i */\n      dup3\n        /* \"contracts/Crop_Supply_Chain.sol\":1374:1385  entities[i] */\n      dup2\n      sload\n      dup2\n      lt\n      tag_61\n      jumpi\n      tag_62\n      tag_51\n      jump\t// in\n    tag_62:\n    tag_61:\n      swap1\n      0x00\n      mstore\n      keccak256(0x00, 0x20)\n      add\n        /* \"contracts/Crop_Supply_Chain.sol\":1374:1415  entities[i] = entities[entities.length-1] */\n      swap1\n      dup2\n      tag_64\n      swap2\n      swap1\n      tag_65\n      jump\t// in\n    tag_64:\n      pop\n        /* \"contracts/Crop_Supply_Chain.sol\":1432:1440  entities */\n      dup2\n        /* \"contracts/Crop_Supply_Chain.sol\":1432:1446  entities.pop() */\n      dup1\n      sload\n      dup1\n      tag_66\n      jumpi\n      tag_67\n      tag_68\n      jump\t// in\n    tag_67:\n    tag_66:\n      0x01\n      swap1\n      sub\n      dup2\n      dup2\n      swap1\n      0x00\n      mstore\n      keccak256(0x00, 0x20)\n      add\n      0x00\n      tag_70\n      swap2\n      swap1\n      tag_71\n      jump\t// in\n    tag_70:\n      swap1\n      sstore\n        /* \"contracts/Crop_Supply_Chain.sol\":1463:1470  return; */\n      pop\n      pop\n      jump(tag_43)\n        /* \"contracts/Crop_Supply_Chain.sol\":1299:1483  if(keccak256(bytes(entities[i])) == keccak256(bytes(add))){... */\n    tag_55:\n        /* \"contracts/Crop_Supply_Chain.sol\":1282:1285  i++ */\n      dup1\n      dup1\n      tag_72\n      swap1\n      tag_73\n      jump\t// in\n    tag_72:\n      swap2\n      pop\n      pop\n        /* \"contracts/Crop_Supply_Chain.sol\":1245:1492  for(uint i = 0; i < entities.length; i++){... */\n      jump(tag_46)\n    tag_47:\n      pop\n        /* \"contracts/Crop_Supply_Chain.sol\":986:1499  {... */\n      pop\n        /* \"contracts/Crop_Supply_Chain.sol\":914:1499  function deregister(string memory add, string memory entity_type) public{... */\n    tag_43:\n      pop\n      pop\n      jump\t// out\n        /* \"contracts/Crop_Supply_Chain.sol\":545:906  function register(string memory add, string memory entity_type) public{... */\n    tag_19:\n        /* \"contracts/Crop_Supply_Chain.sol\":624:649  string[] storage entities */\n      0x00\n        /* \"contracts/Crop_Supply_Chain.sol\":704:719  bytes(\"Farmer\") */\n      mload(0x40)\n      dup1\n      0x40\n      add\n      0x40\n      mstore\n      dup1\n      0x06\n      dup2\n      mstore\n      0x20\n      add\n      0x4661726d65720000000000000000000000000000000000000000000000000000\n      dup2\n      mstore\n      pop\n        /* \"contracts/Crop_Supply_Chain.sol\":694:720  keccak256(bytes(\"Farmer\")) */\n      dup1\n      mload\n      swap1\n      0x20\n      add\n      keccak256\n        /* \"contracts/Crop_Supply_Chain.sol\":677:688  entity_type */\n      dup3\n        /* \"contracts/Crop_Supply_Chain.sol\":661:690  keccak256(bytes(entity_type)) */\n      dup1\n      mload\n      swap1\n      0x20\n      add\n      keccak256\n        /* \"contracts/Crop_Supply_Chain.sol\":661:720  keccak256(bytes(entity_type)) == keccak256(bytes(\"Farmer\")) */\n      sub\n        /* \"contracts/Crop_Supply_Chain.sol\":658:869  if(keccak256(bytes(entity_type)) == keccak256(bytes(\"Farmer\"))) entities = farmers;... */\n      tag_75\n      jumpi\n        /* \"contracts/Crop_Supply_Chain.sol\":733:740  farmers */\n      0x00\n        /* \"contracts/Crop_Supply_Chain.sol\":722:740  entities = farmers */\n      swap1\n      pop\n        /* \"contracts/Crop_Supply_Chain.sol\":658:869  if(keccak256(bytes(entity_type)) == keccak256(bytes(\"Farmer\"))) entities = farmers;... */\n      jump(tag_76)\n    tag_75:\n        /* \"contracts/Crop_Supply_Chain.sol\":855:869  seed_producers */\n      0x01\n        /* \"contracts/Crop_Supply_Chain.sol\":844:869  entities = seed_producers */\n      swap1\n      pop\n        /* \"contracts/Crop_Supply_Chain.sol\":658:869  if(keccak256(bytes(entity_type)) == keccak256(bytes(\"Farmer\"))) entities = farmers;... */\n    tag_76:\n        /* \"contracts/Crop_Supply_Chain.sol\":880:888  entities */\n      dup1\n        /* \"contracts/Crop_Supply_Chain.sol\":894:897  add */\n      dup4\n        /* \"contracts/Crop_Supply_Chain.sol\":880:898  entities.push(add) */\n      swap1\n      dup1\n      0x01\n      dup2\n      sload\n      add\n      dup1\n      dup3\n      sstore\n      dup1\n      swap2\n      pop\n      pop\n      0x01\n      swap1\n      sub\n      swap1\n      0x00\n      mstore\n      keccak256(0x00, 0x20)\n      add\n      0x00\n      swap1\n      swap2\n      swap1\n      swap2\n      swap1\n      swap2\n      pop\n      swap1\n      dup2\n      tag_78\n      swap2\n      swap1\n      tag_79\n      jump\t// in\n    tag_78:\n      pop\n        /* \"contracts/Crop_Supply_Chain.sol\":615:906  {... */\n      pop\n        /* \"contracts/Crop_Supply_Chain.sol\":545:906  function register(string memory add, string memory entity_type) public{... */\n      pop\n      pop\n      jump\t// out\n        /* \"contracts/Crop_Supply_Chain.sol\":290:375  function getFarmers() public returns(string[] memory) {... */\n    tag_21:\n        /* \"contracts/Crop_Supply_Chain.sol\":327:342  string[] memory */\n      0x60\n        /* \"contracts/Crop_Supply_Chain.sol\":360:367  farmers */\n      0x00\n        /* \"contracts/Crop_Supply_Chain.sol\":353:367  return farmers */\n      dup1\n      sload\n      dup1\n      0x20\n      mul\n      0x20\n      add\n      mload(0x40)\n      swap1\n      dup2\n      add\n      0x40\n      mstore\n      dup1\n      swap3\n      swap2\n      swap1\n      dup2\n      dup2\n      mstore\n      0x20\n      add\n      0x00\n      swap1\n    tag_81:\n      dup3\n      dup3\n      lt\n      iszero\n      tag_82\n      jumpi\n      dup4\n      dup3\n      swap1\n      0x00\n      mstore\n      keccak256(0x00, 0x20)\n      add\n      dup1\n      sload\n      tag_84\n      swap1\n      tag_38\n      jump\t// in\n    tag_84:\n      dup1\n      0x1f\n      add\n      0x20\n      dup1\n      swap2\n      div\n      mul\n      0x20\n      add\n      mload(0x40)\n      swap1\n      dup2\n      add\n      0x40\n      mstore\n      dup1\n      swap3\n      swap2\n      swap1\n      dup2\n      dup2\n      mstore\n      0x20\n      add\n      dup3\n      dup1\n      sload\n      tag_85\n      swap1\n      tag_38\n      jump\t// in\n    tag_85:\n      dup1\n      iszero\n      tag_86\n      jumpi\n      dup1\n      0x1f\n      lt\n      tag_87\n      jumpi\n      0x0100\n      dup1\n      dup4\n      sload\n      div\n      mul\n      dup4\n      mstore\n      swap2\n      0x20\n      add\n      swap2\n      jump(tag_86)\n    tag_87:\n      dup3\n      add\n      swap2\n      swap1\n      0x00\n      mstore\n      keccak256(0x00, 0x20)\n      swap1\n    tag_88:\n      dup2\n      sload\n      dup2\n      mstore\n      swap1\n      0x01\n      add\n      swap1\n      0x20\n      add\n      dup1\n      dup4\n      gt\n      tag_88\n      jumpi\n      dup3\n      swap1\n      sub\n      0x1f\n      and\n      dup3\n      add\n      swap2\n    tag_86:\n      pop\n      pop\n      pop\n      pop\n      pop\n      dup2\n      mstore\n      0x20\n      add\n      swap1\n      0x01\n      add\n      swap1\n      jump(tag_81)\n    tag_82:\n      pop\n      pop\n      pop\n      pop\n      swap1\n      pop\n        /* \"contracts/Crop_Supply_Chain.sol\":290:375  function getFarmers() public returns(string[] memory) {... */\n      swap1\n      jump\t// out\n        /* \"contracts/Crop_Supply_Chain.sol\":221:244  string[] public farmers */\n    tag_26:\n      0x00\n      dup2\n      dup2\n      sload\n      dup2\n      lt\n      tag_89\n      jumpi\n      0x00\n      dup1\n      revert\n    tag_89:\n      swap1\n      0x00\n      mstore\n      keccak256(0x00, 0x20)\n      add\n      0x00\n      swap2\n      pop\n      swap1\n      pop\n      dup1\n      sload\n      tag_91\n      swap1\n      tag_38\n      jump\t// in\n    tag_91:\n      dup1\n      0x1f\n      add\n      0x20\n      dup1\n      swap2\n      div\n      mul\n      0x20\n      add\n      mload(0x40)\n      swap1\n      dup2\n      add\n      0x40\n      mstore\n      dup1\n      swap3\n      swap2\n      swap1\n      dup2\n      dup2\n      mstore\n      0x20\n      add\n      dup3\n      dup1\n      sload\n      tag_92\n      swap1\n      tag_38\n      jump\t// in\n    tag_92:\n      dup1\n      iszero\n      tag_93\n      jumpi\n      dup1\n      0x1f\n      lt\n      tag_94\n      jumpi\n      0x0100\n      dup1\n      dup4\n      sload\n      div\n      mul\n      dup4\n      mstore\n      swap2\n      0x20\n      add\n      swap2\n      jump(tag_93)\n    tag_94:\n      dup3\n      add\n      swap2\n      swap1\n      0x00\n      mstore\n      keccak256(0x00, 0x20)\n      swap1\n    tag_95:\n      dup2\n      sload\n      dup2\n      mstore\n      swap1\n      0x01\n      add\n      swap1\n      0x20\n      add\n      dup1\n      dup4\n      gt\n      tag_95\n      jumpi\n      dup3\n      swap1\n      sub\n      0x1f\n      and\n      dup3\n      add\n      swap2\n    tag_93:\n      pop\n      pop\n      pop\n      pop\n      pop\n      dup2\n      jump\t// out\n        /* \"contracts/Crop_Supply_Chain.sol\":251:281  string[] public seed_producers */\n    tag_31:\n      0x01\n      dup2\n      dup2\n      sload\n      dup2\n      lt\n      tag_96\n      jumpi\n      0x00\n      dup1\n      revert\n    tag_96:\n      swap1\n      0x00\n      mstore\n      keccak256(0x00, 0x20)\n      add\n      0x00\n      swap2\n      pop\n      swap1\n      pop\n      dup1\n      sload\n      tag_98\n      swap1\n      tag_38\n      jump\t// in\n    tag_98:\n      dup1\n      0x1f\n      add\n      0x20\n      dup1\n      swap2\n      div\n      mul\n      0x20\n      add\n      mload(0x40)\n      swap1\n      dup2\n      add\n      0x40\n      mstore\n      dup1\n      swap3\n      swap2\n      swap1\n      dup2\n      dup2\n      mstore\n      0x20\n      add\n      dup3\n      dup1\n      sload\n      tag_99\n      swap1\n      tag_38\n      jump\t// in\n    tag_99:\n      dup1\n      iszero\n      tag_100\n      jumpi\n      dup1\n      0x1f\n      lt\n      tag_101\n      jumpi\n      0x0100\n      dup1\n      dup4\n      sload\n      div\n      mul\n      dup4\n      mstore\n      swap2\n      0x20\n      add\n      swap2\n      jump(tag_100)\n    tag_101:\n      dup3\n      add\n      swap2\n      swap1\n      0x00\n      mstore\n      keccak256(0x00, 0x20)\n      swap1\n    tag_102:\n      dup2\n      sload\n      dup2\n      mstore\n      swap1\n      0x01\n      add\n      swap1\n      0x20\n      add\n      dup1\n      dup4\n      gt\n      tag_102\n      jumpi\n      dup3\n      swap1\n      sub\n      0x1f\n      and\n      dup3\n      add\n      swap2\n    tag_100:\n      pop\n      pop\n      pop\n      pop\n      pop\n      dup2\n      jump\t// out\n    tag_71:\n      pop\n      dup1\n      sload\n      tag_103\n      swap1\n      tag_38\n      jump\t// in\n    tag_103:\n      0x00\n      dup3\n      sstore\n      dup1\n      0x1f\n      lt\n      tag_105\n      jumpi\n      pop\n      jump(tag_104)\n    tag_105:\n      0x1f\n      add\n      0x20\n      swap1\n      div\n      swap1\n      0x00\n      mstore\n      keccak256(0x00, 0x20)\n      swap1\n      dup2\n      add\n      swap1\n      tag_106\n      swap2\n      swap1\n      tag_107\n      jump\t// in\n    tag_106:\n    tag_104:\n      pop\n      jump\t// out\n    tag_107:\n    tag_108:\n      dup1\n      dup3\n      gt\n      iszero\n      tag_109\n      jumpi\n      0x00\n      dup2\n      0x00\n      swap1\n      sstore\n      pop\n      0x01\n      add\n      jump(tag_108)\n    tag_109:\n      pop\n      swap1\n      jump\t// out\n        /* \"#utility.yul\":7:131   */\n    tag_110:\n        /* \"#utility.yul\":84:90   */\n      0x00\n        /* \"#utility.yul\":118:123   */\n      dup2\n        /* \"#utility.yul\":112:124   */\n      mload\n        /* \"#utility.yul\":102:124   */\n      swap1\n      pop\n        /* \"#utility.yul\":7:131   */\n      swap2\n      swap1\n      pop\n      jump\t// out\n        /* \"#utility.yul\":137:331   */\n    tag_111:\n        /* \"#utility.yul\":246:257   */\n      0x00\n        /* \"#utility.yul\":280:286   */\n      dup3\n        /* \"#utility.yul\":275:278   */\n      dup3\n        /* \"#utility.yul\":268:287   */\n      mstore\n        /* \"#utility.yul\":320:324   */\n      0x20\n        /* \"#utility.yul\":315:318   */\n      dup3\n        /* \"#utility.yul\":311:325   */\n      add\n        /* \"#utility.yul\":296:325   */\n      swap1\n      pop\n        /* \"#utility.yul\":137:331   */\n      swap3\n      swap2\n      pop\n      pop\n      jump\t// out\n        /* \"#utility.yul\":337:479   */\n    tag_112:\n        /* \"#utility.yul\":414:418   */\n      0x00\n        /* \"#utility.yul\":437:440   */\n      dup2\n        /* \"#utility.yul\":429:440   */\n      swap1\n      pop\n        /* \"#utility.yul\":467:471   */\n      0x20\n        /* \"#utility.yul\":462:465   */\n      dup3\n        /* \"#utility.yul\":458:472   */\n      add\n        /* \"#utility.yul\":450:472   */\n      swap1\n      pop\n        /* \"#utility.yul\":337:479   */\n      swap2\n      swap1\n      pop\n      jump\t// out\n        /* \"#utility.yul\":485:584   */\n    tag_113:\n        /* \"#utility.yul\":537:543   */\n      0x00\n        /* \"#utility.yul\":571:576   */\n      dup2\n        /* \"#utility.yul\":565:577   */\n      mload\n        /* \"#utility.yul\":555:577   */\n      swap1\n      pop\n        /* \"#utility.yul\":485:584   */\n      swap2\n      swap1\n      pop\n      jump\t// out\n        /* \"#utility.yul\":590:749   */\n    tag_114:\n        /* \"#utility.yul\":664:675   */\n      0x00\n        /* \"#utility.yul\":698:704   */\n      dup3\n        /* \"#utility.yul\":693:696   */\n      dup3\n        /* \"#utility.yul\":686:705   */\n      mstore\n        /* \"#utility.yul\":738:742   */\n      0x20\n        /* \"#utility.yul\":733:736   */\n      dup3\n        /* \"#utility.yul\":729:743   */\n      add\n        /* \"#utility.yul\":714:743   */\n      swap1\n      pop\n        /* \"#utility.yul\":590:749   */\n      swap3\n      swap2\n      pop\n      pop\n      jump\t// out\n        /* \"#utility.yul\":755:1001   */\n    tag_115:\n        /* \"#utility.yul\":836:837   */\n      0x00\n        /* \"#utility.yul\":846:959   */\n    tag_167:\n        /* \"#utility.yul\":860:866   */\n      dup4\n        /* \"#utility.yul\":857:858   */\n      dup2\n        /* \"#utility.yul\":854:867   */\n      lt\n        /* \"#utility.yul\":846:959   */\n      iszero\n      tag_169\n      jumpi\n        /* \"#utility.yul\":945:946   */\n      dup1\n        /* \"#utility.yul\":940:943   */\n      dup3\n        /* \"#utility.yul\":936:947   */\n      add\n        /* \"#utility.yul\":930:948   */\n      mload\n        /* \"#utility.yul\":926:927   */\n      dup2\n        /* \"#utility.yul\":921:924   */\n      dup5\n        /* \"#utility.yul\":917:928   */\n      add\n        /* \"#utility.yul\":910:949   */\n      mstore\n        /* \"#utility.yul\":882:884   */\n      0x20\n        /* \"#utility.yul\":879:880   */\n      dup2\n        /* \"#utility.yul\":875:885   */\n      add\n        /* \"#utility.yul\":870:885   */\n      swap1\n      pop\n        /* \"#utility.yul\":846:959   */\n      jump(tag_167)\n    tag_169:\n        /* \"#utility.yul\":993:994   */\n      0x00\n        /* \"#utility.yul\":984:990   */\n      dup5\n        /* \"#utility.yul\":979:982   */\n      dup5\n        /* \"#utility.yul\":975:991   */\n      add\n        /* \"#utility.yul\":968:995   */\n      mstore\n        /* \"#utility.yul\":817:1001   */\n      pop\n        /* \"#utility.yul\":755:1001   */\n      pop\n      pop\n      pop\n      jump\t// out\n        /* \"#utility.yul\":1007:1109   */\n    tag_116:\n        /* \"#utility.yul\":1048:1054   */\n      0x00\n        /* \"#utility.yul\":1099:1101   */\n      0x1f\n        /* \"#utility.yul\":1095:1102   */\n      not\n        /* \"#utility.yul\":1090:1092   */\n      0x1f\n        /* \"#utility.yul\":1083:1088   */\n      dup4\n        /* \"#utility.yul\":1079:1093   */\n      add\n        /* \"#utility.yul\":1075:1103   */\n      and\n        /* \"#utility.yul\":1065:1103   */\n      swap1\n      pop\n        /* \"#utility.yul\":1007:1109   */\n      swap2\n      swap1\n      pop\n      jump\t// out\n        /* \"#utility.yul\":1115:1472   */\n    tag_117:\n        /* \"#utility.yul\":1193:1196   */\n      0x00\n        /* \"#utility.yul\":1221:1260   */\n      tag_172\n        /* \"#utility.yul\":1254:1259   */\n      dup3\n        /* \"#utility.yul\":1221:1260   */\n      tag_113\n      jump\t// in\n    tag_172:\n        /* \"#utility.yul\":1276:1337   */\n      tag_173\n        /* \"#utility.yul\":1330:1336   */\n      dup2\n        /* \"#utility.yul\":1325:1328   */\n      dup6\n        /* \"#utility.yul\":1276:1337   */\n      tag_114\n      jump\t// in\n    tag_173:\n        /* \"#utility.yul\":1269:1337   */\n      swap4\n      pop\n        /* \"#utility.yul\":1346:1411   */\n      tag_174\n        /* \"#utility.yul\":1404:1410   */\n      dup2\n        /* \"#utility.yul\":1399:1402   */\n      dup6\n        /* \"#utility.yul\":1392:1396   */\n      0x20\n        /* \"#utility.yul\":1385:1390   */\n      dup7\n        /* \"#utility.yul\":1381:1397   */\n      add\n        /* \"#utility.yul\":1346:1411   */\n      tag_115\n      jump\t// in\n    tag_174:\n        /* \"#utility.yul\":1436:1465   */\n      tag_175\n        /* \"#utility.yul\":1458:1464   */\n      dup2\n        /* \"#utility.yul\":1436:1465   */\n      tag_116\n      jump\t// in\n    tag_175:\n        /* \"#utility.yul\":1431:1434   */\n      dup5\n        /* \"#utility.yul\":1427:1466   */\n      add\n        /* \"#utility.yul\":1420:1466   */\n      swap2\n      pop\n        /* \"#utility.yul\":1197:1472   */\n      pop\n        /* \"#utility.yul\":1115:1472   */\n      swap3\n      swap2\n      pop\n      pop\n      jump\t// out\n        /* \"#utility.yul\":1478:1674   */\n    tag_118:\n        /* \"#utility.yul\":1567:1577   */\n      0x00\n        /* \"#utility.yul\":1602:1668   */\n      tag_177\n        /* \"#utility.yul\":1664:1667   */\n      dup4\n        /* \"#utility.yul\":1656:1662   */\n      dup4\n        /* \"#utility.yul\":1602:1668   */\n      tag_117\n      jump\t// in\n    tag_177:\n        /* \"#utility.yul\":1588:1668   */\n      swap1\n      pop\n        /* \"#utility.yul\":1478:1674   */\n      swap3\n      swap2\n      pop\n      pop\n      jump\t// out\n        /* \"#utility.yul\":1680:1803   */\n    tag_119:\n        /* \"#utility.yul\":1760:1764   */\n      0x00\n        /* \"#utility.yul\":1792:1796   */\n      0x20\n        /* \"#utility.yul\":1787:1790   */\n      dup3\n        /* \"#utility.yul\":1783:1797   */\n      add\n        /* \"#utility.yul\":1775:1797   */\n      swap1\n      pop\n        /* \"#utility.yul\":1680:1803   */\n      swap2\n      swap1\n      pop\n      jump\t// out\n        /* \"#utility.yul\":1837:2828   */\n    tag_120:\n        /* \"#utility.yul\":1976:1979   */\n      0x00\n        /* \"#utility.yul\":2005:2069   */\n      tag_180\n        /* \"#utility.yul\":2063:2068   */\n      dup3\n        /* \"#utility.yul\":2005:2069   */\n      tag_110\n      jump\t// in\n    tag_180:\n        /* \"#utility.yul\":2085:2181   */\n      tag_181\n        /* \"#utility.yul\":2174:2180   */\n      dup2\n        /* \"#utility.yul\":2169:2172   */\n      dup6\n        /* \"#utility.yul\":2085:2181   */\n      tag_111\n      jump\t// in\n    tag_181:\n        /* \"#utility.yul\":2078:2181   */\n      swap4\n      pop\n        /* \"#utility.yul\":2207:2210   */\n      dup4\n        /* \"#utility.yul\":2252:2256   */\n      0x20\n        /* \"#utility.yul\":2244:2250   */\n      dup3\n        /* \"#utility.yul\":2240:2257   */\n      mul\n        /* \"#utility.yul\":2235:2238   */\n      dup6\n        /* \"#utility.yul\":2231:2258   */\n      add\n        /* \"#utility.yul\":2282:2348   */\n      tag_182\n        /* \"#utility.yul\":2342:2347   */\n      dup6\n        /* \"#utility.yul\":2282:2348   */\n      tag_112\n      jump\t// in\n    tag_182:\n        /* \"#utility.yul\":2371:2378   */\n      dup1\n        /* \"#utility.yul\":2402:2403   */\n      0x00\n        /* \"#utility.yul\":2387:2783   */\n    tag_183:\n        /* \"#utility.yul\":2412:2418   */\n      dup6\n        /* \"#utility.yul\":2409:2410   */\n      dup2\n        /* \"#utility.yul\":2406:2419   */\n      lt\n        /* \"#utility.yul\":2387:2783   */\n      iszero\n      tag_185\n      jumpi\n        /* \"#utility.yul\":2483:2492   */\n      dup5\n        /* \"#utility.yul\":2477:2481   */\n      dup5\n        /* \"#utility.yul\":2473:2493   */\n      sub\n        /* \"#utility.yul\":2468:2471   */\n      dup10\n        /* \"#utility.yul\":2461:2494   */\n      mstore\n        /* \"#utility.yul\":2534:2540   */\n      dup2\n        /* \"#utility.yul\":2528:2541   */\n      mload\n        /* \"#utility.yul\":2562:2646   */\n      tag_186\n        /* \"#utility.yul\":2641:2645   */\n      dup6\n        /* \"#utility.yul\":2626:2639   */\n      dup3\n        /* \"#utility.yul\":2562:2646   */\n      tag_118\n      jump\t// in\n    tag_186:\n        /* \"#utility.yul\":2554:2646   */\n      swap5\n      pop\n        /* \"#utility.yul\":2669:2739   */\n      tag_187\n        /* \"#utility.yul\":2732:2738   */\n      dup4\n        /* \"#utility.yul\":2669:2739   */\n      tag_119\n      jump\t// in\n    tag_187:\n        /* \"#utility.yul\":2659:2739   */\n      swap3\n      pop\n        /* \"#utility.yul\":2768:2772   */\n      0x20\n        /* \"#utility.yul\":2763:2766   */\n      dup11\n        /* \"#utility.yul\":2759:2773   */\n      add\n        /* \"#utility.yul\":2752:2773   */\n      swap10\n      pop\n        /* \"#utility.yul\":2447:2783   */\n      pop\n        /* \"#utility.yul\":2434:2435   */\n      0x01\n        /* \"#utility.yul\":2431:2432   */\n      dup2\n        /* \"#utility.yul\":2427:2436   */\n      add\n        /* \"#utility.yul\":2422:2436   */\n      swap1\n      pop\n        /* \"#utility.yul\":2387:2783   */\n      jump(tag_183)\n    tag_185:\n        /* \"#utility.yul\":2391:2405   */\n      pop\n        /* \"#utility.yul\":2799:2803   */\n      dup3\n        /* \"#utility.yul\":2792:2803   */\n      swap8\n      pop\n        /* \"#utility.yul\":2819:2822   */\n      dup8\n        /* \"#utility.yul\":2812:2822   */\n      swap6\n      pop\n        /* \"#utility.yul\":1981:2828   */\n      pop\n      pop\n      pop\n      pop\n      pop\n        /* \"#utility.yul\":1837:2828   */\n      swap3\n      swap2\n      pop\n      pop\n      jump\t// out\n        /* \"#utility.yul\":2834:3247   */\n    tag_12:\n        /* \"#utility.yul\":2997:3001   */\n      0x00\n        /* \"#utility.yul\":3035:3037   */\n      0x20\n        /* \"#utility.yul\":3024:3033   */\n      dup3\n        /* \"#utility.yul\":3020:3038   */\n      add\n        /* \"#utility.yul\":3012:3038   */\n      swap1\n      pop\n        /* \"#utility.yul\":3084:3093   */\n      dup2\n        /* \"#utility.yul\":3078:3082   */\n      dup2\n        /* \"#utility.yul\":3074:3094   */\n      sub\n        /* \"#utility.yul\":3070:3071   */\n      0x00\n        /* \"#utility.yul\":3059:3068   */\n      dup4\n        /* \"#utility.yul\":3055:3072   */\n      add\n        /* \"#utility.yul\":3048:3095   */\n      mstore\n        /* \"#utility.yul\":3112:3240   */\n      tag_189\n        /* \"#utility.yul\":3235:3239   */\n      dup2\n        /* \"#utility.yul\":3226:3232   */\n      dup5\n        /* \"#utility.yul\":3112:3240   */\n      tag_120\n      jump\t// in\n    tag_189:\n        /* \"#utility.yul\":3104:3240   */\n      swap1\n      pop\n        /* \"#utility.yul\":2834:3247   */\n      swap3\n      swap2\n      pop\n      pop\n      jump\t// out\n        /* \"#utility.yul\":3253:3328   */\n    tag_121:\n        /* \"#utility.yul\":3286:3292   */\n      0x00\n        /* \"#utility.yul\":3319:3321   */\n      0x40\n        /* \"#utility.yul\":3313:3322   */\n      mload\n        /* \"#utility.yul\":3303:3322   */\n      swap1\n      pop\n        /* \"#utility.yul\":3253:3328   */\n      swap1\n      jump\t// out\n        /* \"#utility.yul\":3334:3451   */\n    tag_122:\n        /* \"#utility.yul\":3443:3444   */\n      0x00\n        /* \"#utility.yul\":3440:3441   */\n      dup1\n        /* \"#utility.yul\":3433:3445   */\n      revert\n        /* \"#utility.yul\":3457:3574   */\n    tag_123:\n        /* \"#utility.yul\":3566:3567   */\n      0x00\n        /* \"#utility.yul\":3563:3564   */\n      dup1\n        /* \"#utility.yul\":3556:3568   */\n      revert\n        /* \"#utility.yul\":3580:3697   */\n    tag_124:\n        /* \"#utility.yul\":3689:3690   */\n      0x00\n        /* \"#utility.yul\":3686:3687   */\n      dup1\n        /* \"#utility.yul\":3679:3691   */\n      revert\n        /* \"#utility.yul\":3703:3820   */\n    tag_125:\n        /* \"#utility.yul\":3812:3813   */\n      0x00\n        /* \"#utility.yul\":3809:3810   */\n      dup1\n        /* \"#utility.yul\":3802:3814   */\n      revert\n        /* \"#utility.yul\":3826:4006   */\n    tag_126:\n        /* \"#utility.yul\":3874:3951   */\n      0x4e487b7100000000000000000000000000000000000000000000000000000000\n        /* \"#utility.yul\":3871:3872   */\n      0x00\n        /* \"#utility.yul\":3864:3952   */\n      mstore\n        /* \"#utility.yul\":3971:3975   */\n      0x41\n        /* \"#utility.yul\":3968:3969   */\n      0x04\n        /* \"#utility.yul\":3961:3976   */\n      mstore\n        /* \"#utility.yul\":3995:3999   */\n      0x24\n        /* \"#utility.yul\":3992:3993   */\n      0x00\n        /* \"#utility.yul\":3985:4000   */\n      revert\n        /* \"#utility.yul\":4012:4293   */\n    tag_127:\n        /* \"#utility.yul\":4095:4122   */\n      tag_197\n        /* \"#utility.yul\":4117:4121   */\n      dup3\n        /* \"#utility.yul\":4095:4122   */\n      tag_116\n      jump\t// in\n    tag_197:\n        /* \"#utility.yul\":4087:4093   */\n      dup2\n        /* \"#utility.yul\":4083:4123   */\n      add\n        /* \"#utility.yul\":4225:4231   */\n      dup2\n        /* \"#utility.yul\":4213:4223   */\n      dup2\n        /* \"#utility.yul\":4210:4232   */\n      lt\n        /* \"#utility.yul\":4189:4207   */\n      0xffffffffffffffff\n        /* \"#utility.yul\":4177:4187   */\n      dup3\n        /* \"#utility.yul\":4174:4208   */\n      gt\n        /* \"#utility.yul\":4171:4233   */\n      or\n        /* \"#utility.yul\":4168:4256   */\n      iszero\n      tag_198\n      jumpi\n        /* \"#utility.yul\":4236:4254   */\n      tag_199\n      tag_126\n      jump\t// in\n    tag_199:\n        /* \"#utility.yul\":4168:4256   */\n    tag_198:\n        /* \"#utility.yul\":4276:4286   */\n      dup1\n        /* \"#utility.yul\":4272:4274   */\n      0x40\n        /* \"#utility.yul\":4265:4287   */\n      mstore\n        /* \"#utility.yul\":4055:4293   */\n      pop\n        /* \"#utility.yul\":4012:4293   */\n      pop\n      pop\n      jump\t// out\n        /* \"#utility.yul\":4299:4428   */\n    tag_128:\n        /* \"#utility.yul\":4333:4339   */\n      0x00\n        /* \"#utility.yul\":4360:4380   */\n      tag_201\n      tag_121\n      jump\t// in\n    tag_201:\n        /* \"#utility.yul\":4350:4380   */\n      swap1\n      pop\n        /* \"#utility.yul\":4389:4422   */\n      tag_202\n        /* \"#utility.yul\":4417:4421   */\n      dup3\n        /* \"#utility.yul\":4409:4415   */\n      dup3\n        /* \"#utility.yul\":4389:4422   */\n      tag_127\n      jump\t// in\n    tag_202:\n        /* \"#utility.yul\":4299:4428   */\n      swap2\n      swap1\n      pop\n      jump\t// out\n        /* \"#utility.yul\":4434:4742   */\n    tag_129:\n        /* \"#utility.yul\":4496:4500   */\n      0x00\n        /* \"#utility.yul\":4586:4604   */\n      0xffffffffffffffff\n        /* \"#utility.yul\":4578:4584   */\n      dup3\n        /* \"#utility.yul\":4575:4605   */\n      gt\n        /* \"#utility.yul\":4572:4628   */\n      iszero\n      tag_204\n      jumpi\n        /* \"#utility.yul\":4608:4626   */\n      tag_205\n      tag_126\n      jump\t// in\n    tag_205:\n        /* \"#utility.yul\":4572:4628   */\n    tag_204:\n        /* \"#utility.yul\":4646:4675   */\n      tag_206\n        /* \"#utility.yul\":4668:4674   */\n      dup3\n        /* \"#utility.yul\":4646:4675   */\n      tag_116\n      jump\t// in\n    tag_206:\n        /* \"#utility.yul\":4638:4675   */\n      swap1\n      pop\n        /* \"#utility.yul\":4730:4734   */\n      0x20\n        /* \"#utility.yul\":4724:4728   */\n      dup2\n        /* \"#utility.yul\":4720:4735   */\n      add\n        /* \"#utility.yul\":4712:4735   */\n      swap1\n      pop\n        /* \"#utility.yul\":4434:4742   */\n      swap2\n      swap1\n      pop\n      jump\t// out\n        /* \"#utility.yul\":4748:4894   */\n    tag_130:\n        /* \"#utility.yul\":4845:4851   */\n      dup3\n        /* \"#utility.yul\":4840:4843   */\n      dup2\n        /* \"#utility.yul\":4835:4838   */\n      dup4\n        /* \"#utility.yul\":4822:4852   */\n      calldatacopy\n        /* \"#utility.yul\":4886:4887   */\n      0x00\n        /* \"#utility.yul\":4877:4883   */\n      dup4\n        /* \"#utility.yul\":4872:4875   */\n      dup4\n        /* \"#utility.yul\":4868:4884   */\n      add\n        /* \"#utility.yul\":4861:4888   */\n      mstore\n        /* \"#utility.yul\":4748:4894   */\n      pop\n      pop\n      pop\n      jump\t// out\n        /* \"#utility.yul\":4900:5325   */\n    tag_131:\n        /* \"#utility.yul\":4978:4983   */\n      0x00\n        /* \"#utility.yul\":5003:5069   */\n      tag_209\n        /* \"#utility.yul\":5019:5068   */\n      tag_210\n        /* \"#utility.yul\":5061:5067   */\n      dup5\n        /* \"#utility.yul\":5019:5068   */\n      tag_129\n      jump\t// in\n    tag_210:\n        /* \"#utility.yul\":5003:5069   */\n      tag_128\n      jump\t// in\n    tag_209:\n        /* \"#utility.yul\":4994:5069   */\n      swap1\n      pop\n        /* \"#utility.yul\":5092:5098   */\n      dup3\n        /* \"#utility.yul\":5085:5090   */\n      dup2\n        /* \"#utility.yul\":5078:5099   */\n      mstore\n        /* \"#utility.yul\":5130:5134   */\n      0x20\n        /* \"#utility.yul\":5123:5128   */\n      dup2\n        /* \"#utility.yul\":5119:5135   */\n      add\n        /* \"#utility.yul\":5168:5171   */\n      dup5\n        /* \"#utility.yul\":5159:5165   */\n      dup5\n        /* \"#utility.yul\":5154:5157   */\n      dup5\n        /* \"#utility.yul\":5150:5166   */\n      add\n        /* \"#utility.yul\":5147:5172   */\n      gt\n        /* \"#utility.yul\":5144:5256   */\n      iszero\n      tag_211\n      jumpi\n        /* \"#utility.yul\":5175:5254   */\n      tag_212\n      tag_125\n      jump\t// in\n    tag_212:\n        /* \"#utility.yul\":5144:5256   */\n    tag_211:\n        /* \"#utility.yul\":5265:5319   */\n      tag_213\n        /* \"#utility.yul\":5312:5318   */\n      dup5\n        /* \"#utility.yul\":5307:5310   */\n      dup3\n        /* \"#utility.yul\":5302:5305   */\n      dup6\n        /* \"#utility.yul\":5265:5319   */\n      tag_130\n      jump\t// in\n    tag_213:\n        /* \"#utility.yul\":4984:5325   */\n      pop\n        /* \"#utility.yul\":4900:5325   */\n      swap4\n      swap3\n      pop\n      pop\n      pop\n      jump\t// out\n        /* \"#utility.yul\":5345:5685   */\n    tag_132:\n        /* \"#utility.yul\":5401:5406   */\n      0x00\n        /* \"#utility.yul\":5450:5453   */\n      dup3\n        /* \"#utility.yul\":5443:5447   */\n      0x1f\n        /* \"#utility.yul\":5435:5441   */\n      dup4\n        /* \"#utility.yul\":5431:5448   */\n      add\n        /* \"#utility.yul\":5427:5454   */\n      slt\n        /* \"#utility.yul\":5417:5539   */\n      tag_215\n      jumpi\n        /* \"#utility.yul\":5458:5537   */\n      tag_216\n      tag_124\n      jump\t// in\n    tag_216:\n        /* \"#utility.yul\":5417:5539   */\n    tag_215:\n        /* \"#utility.yul\":5575:5581   */\n      dup2\n        /* \"#utility.yul\":5562:5582   */\n      calldataload\n        /* \"#utility.yul\":5600:5679   */\n      tag_217\n        /* \"#utility.yul\":5675:5678   */\n      dup5\n        /* \"#utility.yul\":5667:5673   */\n      dup3\n        /* \"#utility.yul\":5660:5664   */\n      0x20\n        /* \"#utility.yul\":5652:5658   */\n      dup7\n        /* \"#utility.yul\":5648:5665   */\n      add\n        /* \"#utility.yul\":5600:5679   */\n      tag_131\n      jump\t// in\n    tag_217:\n        /* \"#utility.yul\":5591:5679   */\n      swap2\n      pop\n        /* \"#utility.yul\":5407:5685   */\n      pop\n        /* \"#utility.yul\":5345:5685   */\n      swap3\n      swap2\n      pop\n      pop\n      jump\t// out\n        /* \"#utility.yul\":5691:6525   */\n    tag_15:\n        /* \"#utility.yul\":5779:5785   */\n      0x00\n        /* \"#utility.yul\":5787:5793   */\n      dup1\n        /* \"#utility.yul\":5836:5838   */\n      0x40\n        /* \"#utility.yul\":5824:5833   */\n      dup4\n        /* \"#utility.yul\":5815:5822   */\n      dup6\n        /* \"#utility.yul\":5811:5834   */\n      sub\n        /* \"#utility.yul\":5807:5839   */\n      slt\n        /* \"#utility.yul\":5804:5923   */\n      iszero\n      tag_219\n      jumpi\n        /* \"#utility.yul\":5842:5921   */\n      tag_220\n      tag_122\n      jump\t// in\n    tag_220:\n        /* \"#utility.yul\":5804:5923   */\n    tag_219:\n        /* \"#utility.yul\":5990:5991   */\n      0x00\n        /* \"#utility.yul\":5979:5988   */\n      dup4\n        /* \"#utility.yul\":5975:5992   */\n      add\n        /* \"#utility.yul\":5962:5993   */\n      calldataload\n        /* \"#utility.yul\":6020:6038   */\n      0xffffffffffffffff\n        /* \"#utility.yul\":6012:6018   */\n      dup2\n        /* \"#utility.yul\":6009:6039   */\n      gt\n        /* \"#utility.yul\":6006:6123   */\n      iszero\n      tag_221\n      jumpi\n        /* \"#utility.yul\":6042:6121   */\n      tag_222\n      tag_123\n      jump\t// in\n    tag_222:\n        /* \"#utility.yul\":6006:6123   */\n    tag_221:\n        /* \"#utility.yul\":6147:6210   */\n      tag_223\n        /* \"#utility.yul\":6202:6209   */\n      dup6\n        /* \"#utility.yul\":6193:6199   */\n      dup3\n        /* \"#utility.yul\":6182:6191   */\n      dup7\n        /* \"#utility.yul\":6178:6200   */\n      add\n        /* \"#utility.yul\":6147:6210   */\n      tag_132\n      jump\t// in\n    tag_223:\n        /* \"#utility.yul\":6137:6210   */\n      swap3\n      pop\n        /* \"#utility.yul\":5933:6220   */\n      pop\n        /* \"#utility.yul\":6287:6289   */\n      0x20\n        /* \"#utility.yul\":6276:6285   */\n      dup4\n        /* \"#utility.yul\":6272:6290   */\n      add\n        /* \"#utility.yul\":6259:6291   */\n      calldataload\n        /* \"#utility.yul\":6318:6336   */\n      0xffffffffffffffff\n        /* \"#utility.yul\":6310:6316   */\n      dup2\n        /* \"#utility.yul\":6307:6337   */\n      gt\n        /* \"#utility.yul\":6304:6421   */\n      iszero\n      tag_224\n      jumpi\n        /* \"#utility.yul\":6340:6419   */\n      tag_225\n      tag_123\n      jump\t// in\n    tag_225:\n        /* \"#utility.yul\":6304:6421   */\n    tag_224:\n        /* \"#utility.yul\":6445:6508   */\n      tag_226\n        /* \"#utility.yul\":6500:6507   */\n      dup6\n        /* \"#utility.yul\":6491:6497   */\n      dup3\n        /* \"#utility.yul\":6480:6489   */\n      dup7\n        /* \"#utility.yul\":6476:6498   */\n      add\n        /* \"#utility.yul\":6445:6508   */\n      tag_132\n      jump\t// in\n    tag_226:\n        /* \"#utility.yul\":6435:6508   */\n      swap2\n      pop\n        /* \"#utility.yul\":6230:6518   */\n      pop\n        /* \"#utility.yul\":5691:6525   */\n      swap3\n      pop\n      swap3\n      swap1\n      pop\n      jump\t// out\n        /* \"#utility.yul\":6531:6608   */\n    tag_133:\n        /* \"#utility.yul\":6568:6575   */\n      0x00\n        /* \"#utility.yul\":6597:6602   */\n      dup2\n        /* \"#utility.yul\":6586:6602   */\n      swap1\n      pop\n        /* \"#utility.yul\":6531:6608   */\n      swap2\n      swap1\n      pop\n      jump\t// out\n        /* \"#utility.yul\":6614:6736   */\n    tag_134:\n        /* \"#utility.yul\":6687:6711   */\n      tag_229\n        /* \"#utility.yul\":6705:6710   */\n      dup2\n        /* \"#utility.yul\":6687:6711   */\n      tag_133\n      jump\t// in\n    tag_229:\n        /* \"#utility.yul\":6680:6685   */\n      dup2\n        /* \"#utility.yul\":6677:6712   */\n      eq\n        /* \"#utility.yul\":6667:6730   */\n      tag_230\n      jumpi\n        /* \"#utility.yul\":6726:6727   */\n      0x00\n        /* \"#utility.yul\":6723:6724   */\n      dup1\n        /* \"#utility.yul\":6716:6728   */\n      revert\n        /* \"#utility.yul\":6667:6730   */\n    tag_230:\n        /* \"#utility.yul\":6614:6736   */\n      pop\n      jump\t// out\n        /* \"#utility.yul\":6742:6881   */\n    tag_135:\n        /* \"#utility.yul\":6788:6793   */\n      0x00\n        /* \"#utility.yul\":6826:6832   */\n      dup2\n        /* \"#utility.yul\":6813:6833   */\n      calldataload\n        /* \"#utility.yul\":6804:6833   */\n      swap1\n      pop\n        /* \"#utility.yul\":6842:6875   */\n      tag_232\n        /* \"#utility.yul\":6869:6874   */\n      dup2\n        /* \"#utility.yul\":6842:6875   */\n      tag_134\n      jump\t// in\n    tag_232:\n        /* \"#utility.yul\":6742:6881   */\n      swap3\n      swap2\n      pop\n      pop\n      jump\t// out\n        /* \"#utility.yul\":6887:7216   */\n    tag_25:\n        /* \"#utility.yul\":6946:6952   */\n      0x00\n        /* \"#utility.yul\":6995:6997   */\n      0x20\n        /* \"#utility.yul\":6983:6992   */\n      dup3\n        /* \"#utility.yul\":6974:6981   */\n      dup5\n        /* \"#utility.yul\":6970:6993   */\n      sub\n        /* \"#utility.yul\":6966:6998   */\n      slt\n        /* \"#utility.yul\":6963:7082   */\n      iszero\n      tag_234\n      jumpi\n        /* \"#utility.yul\":7001:7080   */\n      tag_235\n      tag_122\n      jump\t// in\n    tag_235:\n        /* \"#utility.yul\":6963:7082   */\n    tag_234:\n        /* \"#utility.yul\":7121:7122   */\n      0x00\n        /* \"#utility.yul\":7146:7199   */\n      tag_236\n        /* \"#utility.yul\":7191:7198   */\n      dup5\n        /* \"#utility.yul\":7182:7188   */\n      dup3\n        /* \"#utility.yul\":7171:7180   */\n      dup6\n        /* \"#utility.yul\":7167:7189   */\n      add\n        /* \"#utility.yul\":7146:7199   */\n      tag_135\n      jump\t// in\n    tag_236:\n        /* \"#utility.yul\":7136:7199   */\n      swap2\n      pop\n        /* \"#utility.yul\":7092:7209   */\n      pop\n        /* \"#utility.yul\":6887:7216   */\n      swap3\n      swap2\n      pop\n      pop\n      jump\t// out\n        /* \"#utility.yul\":7222:7391   */\n    tag_136:\n        /* \"#utility.yul\":7306:7317   */\n      0x00\n        /* \"#utility.yul\":7340:7346   */\n      dup3\n        /* \"#utility.yul\":7335:7338   */\n      dup3\n        /* \"#utility.yul\":7328:7347   */\n      mstore\n        /* \"#utility.yul\":7380:7384   */\n      0x20\n        /* \"#utility.yul\":7375:7378   */\n      dup3\n        /* \"#utility.yul\":7371:7385   */\n      add\n        /* \"#utility.yul\":7356:7385   */\n      swap1\n      pop\n        /* \"#utility.yul\":7222:7391   */\n      swap3\n      swap2\n      pop\n      pop\n      jump\t// out\n        /* \"#utility.yul\":7397:7774   */\n    tag_137:\n        /* \"#utility.yul\":7485:7488   */\n      0x00\n        /* \"#utility.yul\":7513:7552   */\n      tag_239\n        /* \"#utility.yul\":7546:7551   */\n      dup3\n        /* \"#utility.yul\":7513:7552   */\n      tag_113\n      jump\t// in\n    tag_239:\n        /* \"#utility.yul\":7568:7639   */\n      tag_240\n        /* \"#utility.yul\":7632:7638   */\n      dup2\n        /* \"#utility.yul\":7627:7630   */\n      dup6\n        /* \"#utility.yul\":7568:7639   */\n      tag_136\n      jump\t// in\n    tag_240:\n        /* \"#utility.yul\":7561:7639   */\n      swap4\n      pop\n        /* \"#utility.yul\":7648:7713   */\n      tag_241\n        /* \"#utility.yul\":7706:7712   */\n      dup2\n        /* \"#utility.yul\":7701:7704   */\n      dup6\n        /* \"#utility.yul\":7694:7698   */\n      0x20\n        /* \"#utility.yul\":7687:7692   */\n      dup7\n        /* \"#utility.yul\":7683:7699   */\n      add\n        /* \"#utility.yul\":7648:7713   */\n      tag_115\n      jump\t// in\n    tag_241:\n        /* \"#utility.yul\":7738:7767   */\n      tag_242\n        /* \"#utility.yul\":7760:7766   */\n      dup2\n        /* \"#utility.yul\":7738:7767   */\n      tag_116\n      jump\t// in\n    tag_242:\n        /* \"#utility.yul\":7733:7736   */\n      dup5\n        /* \"#utility.yul\":7729:7768   */\n      add\n        /* \"#utility.yul\":7722:7768   */\n      swap2\n      pop\n        /* \"#utility.yul\":7489:7774   */\n      pop\n        /* \"#utility.yul\":7397:7774   */\n      swap3\n      swap2\n      pop\n      pop\n      jump\t// out\n        /* \"#utility.yul\":7780:8093   */\n    tag_28:\n        /* \"#utility.yul\":7893:7897   */\n      0x00\n        /* \"#utility.yul\":7931:7933   */\n      0x20\n        /* \"#utility.yul\":7920:7929   */\n      dup3\n        /* \"#utility.yul\":7916:7934   */\n      add\n        /* \"#utility.yul\":7908:7934   */\n      swap1\n      pop\n        /* \"#utility.yul\":7980:7989   */\n      dup2\n        /* \"#utility.yul\":7974:7978   */\n      dup2\n        /* \"#utility.yul\":7970:7990   */\n      sub\n        /* \"#utility.yul\":7966:7967   */\n      0x00\n        /* \"#utility.yul\":7955:7964   */\n      dup4\n        /* \"#utility.yul\":7951:7968   */\n      add\n        /* \"#utility.yul\":7944:7991   */\n      mstore\n        /* \"#utility.yul\":8008:8086   */\n      tag_244\n        /* \"#utility.yul\":8081:8085   */\n      dup2\n        /* \"#utility.yul\":8072:8078   */\n      dup5\n        /* \"#utility.yul\":8008:8086   */\n      tag_137\n      jump\t// in\n    tag_244:\n        /* \"#utility.yul\":8000:8086   */\n      swap1\n      pop\n        /* \"#utility.yul\":7780:8093   */\n      swap3\n      swap2\n      pop\n      pop\n      jump\t// out\n        /* \"#utility.yul\":8099:8279   */\n    tag_138:\n        /* \"#utility.yul\":8147:8224   */\n      0x4e487b7100000000000000000000000000000000000000000000000000000000\n        /* \"#utility.yul\":8144:8145   */\n      0x00\n        /* \"#utility.yul\":8137:8225   */\n      mstore\n        /* \"#utility.yul\":8244:8248   */\n      0x22\n        /* \"#utility.yul\":8241:8242   */\n      0x04\n        /* \"#utility.yul\":8234:8249   */\n      mstore\n        /* \"#utility.yul\":8268:8272   */\n      0x24\n        /* \"#utility.yul\":8265:8266   */\n      0x00\n        /* \"#utility.yul\":8258:8273   */\n      revert\n        /* \"#utility.yul\":8285:8605   */\n    tag_38:\n        /* \"#utility.yul\":8329:8335   */\n      0x00\n        /* \"#utility.yul\":8366:8367   */\n      0x02\n        /* \"#utility.yul\":8360:8364   */\n      dup3\n        /* \"#utility.yul\":8356:8368   */\n      div\n        /* \"#utility.yul\":8346:8368   */\n      swap1\n      pop\n        /* \"#utility.yul\":8413:8414   */\n      0x01\n        /* \"#utility.yul\":8407:8411   */\n      dup3\n        /* \"#utility.yul\":8403:8415   */\n      and\n        /* \"#utility.yul\":8434:8452   */\n      dup1\n        /* \"#utility.yul\":8424:8505   */\n      tag_247\n      jumpi\n        /* \"#utility.yul\":8490:8494   */\n      0x7f\n        /* \"#utility.yul\":8482:8488   */\n      dup3\n        /* \"#utility.yul\":8478:8495   */\n      and\n        /* \"#utility.yul\":8468:8495   */\n      swap2\n      pop\n        /* \"#utility.yul\":8424:8505   */\n    tag_247:\n        /* \"#utility.yul\":8552:8554   */\n      0x20\n        /* \"#utility.yul\":8544:8550   */\n      dup3\n        /* \"#utility.yul\":8541:8555   */\n      lt\n        /* \"#utility.yul\":8521:8539   */\n      dup2\n        /* \"#utility.yul\":8518:8556   */\n      sub\n        /* \"#utility.yul\":8515:8599   */\n      tag_248\n      jumpi\n        /* \"#utility.yul\":8571:8589   */\n      tag_249\n      tag_138\n      jump\t// in\n    tag_249:\n        /* \"#utility.yul\":8515:8599   */\n    tag_248:\n        /* \"#utility.yul\":8336:8605   */\n      pop\n        /* \"#utility.yul\":8285:8605   */\n      swap2\n      swap1\n      pop\n      jump\t// out\n        /* \"#utility.yul\":8611:8791   */\n    tag_51:\n        /* \"#utility.yul\":8659:8736   */\n      0x4e487b7100000000000000000000000000000000000000000000000000000000\n        /* \"#utility.yul\":8656:8657   */\n      0x00\n        /* \"#utility.yul\":8649:8737   */\n      mstore\n        /* \"#utility.yul\":8756:8760   */\n      0x32\n        /* \"#utility.yul\":8753:8754   */\n      0x04\n        /* \"#utility.yul\":8746:8761   */\n      mstore\n        /* \"#utility.yul\":8780:8784   */\n      0x24\n        /* \"#utility.yul\":8777:8778   */\n      0x00\n        /* \"#utility.yul\":8770:8785   */\n      revert\n        /* \"#utility.yul\":8797:8944   */\n    tag_139:\n        /* \"#utility.yul\":8898:8909   */\n      0x00\n        /* \"#utility.yul\":8935:8938   */\n      dup2\n        /* \"#utility.yul\":8920:8938   */\n      swap1\n      pop\n        /* \"#utility.yul\":8797:8944   */\n      swap3\n      swap2\n      pop\n      pop\n      jump\t// out\n        /* \"#utility.yul\":8950:9094   */\n    tag_140:\n        /* \"#utility.yul\":9002:9006   */\n      0x00\n        /* \"#utility.yul\":9025:9028   */\n      dup2\n        /* \"#utility.yul\":9017:9028   */\n      swap1\n      pop\n        /* \"#utility.yul\":9048:9051   */\n      dup2\n        /* \"#utility.yul\":9045:9046   */\n      0x00\n        /* \"#utility.yul\":9038:9052   */\n      mstore\n        /* \"#utility.yul\":9082:9086   */\n      0x20\n        /* \"#utility.yul\":9079:9080   */\n      0x00\n        /* \"#utility.yul\":9069:9087   */\n      keccak256\n        /* \"#utility.yul\":9061:9087   */\n      swap1\n      pop\n        /* \"#utility.yul\":8950:9094   */\n      swap2\n      swap1\n      pop\n      jump\t// out\n        /* \"#utility.yul\":9122:10000   */\n    tag_141:\n        /* \"#utility.yul\":9227:9230   */\n      0x00\n        /* \"#utility.yul\":9264:9269   */\n      dup2\n        /* \"#utility.yul\":9258:9270   */\n      sload\n        /* \"#utility.yul\":9293:9329   */\n      tag_254\n        /* \"#utility.yul\":9319:9328   */\n      dup2\n        /* \"#utility.yul\":9293:9329   */\n      tag_38\n      jump\t// in\n    tag_254:\n        /* \"#utility.yul\":9345:9433   */\n      tag_255\n        /* \"#utility.yul\":9426:9432   */\n      dup2\n        /* \"#utility.yul\":9421:9424   */\n      dup7\n        /* \"#utility.yul\":9345:9433   */\n      tag_139\n      jump\t// in\n    tag_255:\n        /* \"#utility.yul\":9338:9433   */\n      swap5\n      pop\n        /* \"#utility.yul\":9464:9465   */\n      0x01\n        /* \"#utility.yul\":9453:9462   */\n      dup3\n        /* \"#utility.yul\":9449:9466   */\n      and\n        /* \"#utility.yul\":9480:9481   */\n      0x00\n        /* \"#utility.yul\":9475:9641   */\n      dup2\n      eq\n      tag_257\n      jumpi\n        /* \"#utility.yul\":9655:9656   */\n      0x01\n        /* \"#utility.yul\":9650:9994   */\n      dup2\n      eq\n      tag_258\n      jumpi\n        /* \"#utility.yul\":9442:9994   */\n      jump(tag_256)\n        /* \"#utility.yul\":9475:9641   */\n    tag_257:\n        /* \"#utility.yul\":9559:9563   */\n      0xff\n        /* \"#utility.yul\":9555:9564   */\n      not\n        /* \"#utility.yul\":9544:9553   */\n      dup4\n        /* \"#utility.yul\":9540:9565   */\n      and\n        /* \"#utility.yul\":9535:9538   */\n      dup7\n        /* \"#utility.yul\":9528:9566   */\n      mstore\n        /* \"#utility.yul\":9621:9627   */\n      dup2\n        /* \"#utility.yul\":9614:9628   */\n      iszero\n        /* \"#utility.yul\":9607:9629   */\n      iszero\n        /* \"#utility.yul\":9599:9605   */\n      dup3\n        /* \"#utility.yul\":9595:9630   */\n      mul\n        /* \"#utility.yul\":9590:9593   */\n      dup7\n        /* \"#utility.yul\":9586:9631   */\n      add\n        /* \"#utility.yul\":9579:9631   */\n      swap4\n      pop\n        /* \"#utility.yul\":9475:9641   */\n      jump(tag_256)\n        /* \"#utility.yul\":9650:9994   */\n    tag_258:\n        /* \"#utility.yul\":9717:9758   */\n      tag_259\n        /* \"#utility.yul\":9752:9757   */\n      dup6\n        /* \"#utility.yul\":9717:9758   */\n      tag_140\n      jump\t// in\n    tag_259:\n        /* \"#utility.yul\":9780:9781   */\n      0x00\n        /* \"#utility.yul\":9794:9948   */\n    tag_260:\n        /* \"#utility.yul\":9808:9814   */\n      dup4\n        /* \"#utility.yul\":9805:9806   */\n      dup2\n        /* \"#utility.yul\":9802:9815   */\n      lt\n        /* \"#utility.yul\":9794:9948   */\n      iszero\n      tag_262\n      jumpi\n        /* \"#utility.yul\":9882:9889   */\n      dup2\n        /* \"#utility.yul\":9876:9890   */\n      sload\n        /* \"#utility.yul\":9872:9873   */\n      dup2\n        /* \"#utility.yul\":9867:9870   */\n      dup10\n        /* \"#utility.yul\":9863:9874   */\n      add\n        /* \"#utility.yul\":9856:9891   */\n      mstore\n        /* \"#utility.yul\":9932:9933   */\n      0x01\n        /* \"#utility.yul\":9923:9930   */\n      dup3\n        /* \"#utility.yul\":9919:9934   */\n      add\n        /* \"#utility.yul\":9908:9934   */\n      swap2\n      pop\n        /* \"#utility.yul\":9830:9834   */\n      0x20\n        /* \"#utility.yul\":9827:9828   */\n      dup2\n        /* \"#utility.yul\":9823:9835   */\n      add\n        /* \"#utility.yul\":9818:9835   */\n      swap1\n      pop\n        /* \"#utility.yul\":9794:9948   */\n      jump(tag_260)\n    tag_262:\n        /* \"#utility.yul\":9977:9983   */\n      dup4\n        /* \"#utility.yul\":9972:9975   */\n      dup9\n        /* \"#utility.yul\":9968:9984   */\n      add\n        /* \"#utility.yul\":9961:9984   */\n      swap6\n      pop\n        /* \"#utility.yul\":9657:9994   */\n      pop\n      pop\n        /* \"#utility.yul\":9442:9994   */\n    tag_256:\n      pop\n        /* \"#utility.yul\":9231:10000   */\n      pop\n      pop\n        /* \"#utility.yul\":9122:10000   */\n      swap3\n      swap2\n      pop\n      pop\n      jump\t// out\n        /* \"#utility.yul\":10006:10279   */\n    tag_54:\n        /* \"#utility.yul\":10137:10140   */\n      0x00\n        /* \"#utility.yul\":10159:10253   */\n      tag_264\n        /* \"#utility.yul\":10249:10252   */\n      dup3\n        /* \"#utility.yul\":10240:10246   */\n      dup5\n        /* \"#utility.yul\":10159:10253   */\n      tag_141\n      jump\t// in\n    tag_264:\n        /* \"#utility.yul\":10152:10253   */\n      swap2\n      pop\n        /* \"#utility.yul\":10270:10273   */\n      dup2\n        /* \"#utility.yul\":10263:10273   */\n      swap1\n      pop\n        /* \"#utility.yul\":10006:10279   */\n      swap3\n      swap2\n      pop\n      pop\n      jump\t// out\n        /* \"#utility.yul\":10285:10465   */\n    tag_142:\n        /* \"#utility.yul\":10333:10410   */\n      0x4e487b7100000000000000000000000000000000000000000000000000000000\n        /* \"#utility.yul\":10330:10331   */\n      0x00\n        /* \"#utility.yul\":10323:10411   */\n      mstore\n        /* \"#utility.yul\":10430:10434   */\n      0x11\n        /* \"#utility.yul\":10427:10428   */\n      0x04\n        /* \"#utility.yul\":10420:10435   */\n      mstore\n        /* \"#utility.yul\":10454:10458   */\n      0x24\n        /* \"#utility.yul\":10451:10452   */\n      0x00\n        /* \"#utility.yul\":10444:10459   */\n      revert\n        /* \"#utility.yul\":10471:10665   */\n    tag_57:\n        /* \"#utility.yul\":10511:10515   */\n      0x00\n        /* \"#utility.yul\":10531:10551   */\n      tag_267\n        /* \"#utility.yul\":10549:10550   */\n      dup3\n        /* \"#utility.yul\":10531:10551   */\n      tag_133\n      jump\t// in\n    tag_267:\n        /* \"#utility.yul\":10526:10551   */\n      swap2\n      pop\n        /* \"#utility.yul\":10565:10585   */\n      tag_268\n        /* \"#utility.yul\":10583:10584   */\n      dup4\n        /* \"#utility.yul\":10565:10585   */\n      tag_133\n      jump\t// in\n    tag_268:\n        /* \"#utility.yul\":10560:10585   */\n      swap3\n      pop\n        /* \"#utility.yul\":10609:10610   */\n      dup3\n        /* \"#utility.yul\":10606:10607   */\n      dup3\n        /* \"#utility.yul\":10602:10611   */\n      sub\n        /* \"#utility.yul\":10594:10611   */\n      swap1\n      pop\n        /* \"#utility.yul\":10633:10634   */\n      dup2\n        /* \"#utility.yul\":10627:10631   */\n      dup2\n        /* \"#utility.yul\":10624:10635   */\n      gt\n        /* \"#utility.yul\":10621:10658   */\n      iszero\n      tag_269\n      jumpi\n        /* \"#utility.yul\":10638:10656   */\n      tag_270\n      tag_142\n      jump\t// in\n    tag_270:\n        /* \"#utility.yul\":10621:10658   */\n    tag_269:\n        /* \"#utility.yul\":10471:10665   */\n      swap3\n      swap2\n      pop\n      pop\n      jump\t// out\n        /* \"#utility.yul\":10671:10824   */\n    tag_143:\n        /* \"#utility.yul\":10724:10730   */\n      0x00\n        /* \"#utility.yul\":10758:10763   */\n      dup2\n        /* \"#utility.yul\":10752:10764   */\n      sload\n        /* \"#utility.yul\":10742:10764   */\n      swap1\n      pop\n        /* \"#utility.yul\":10784:10817   */\n      tag_272\n        /* \"#utility.yul\":10810:10816   */\n      dup2\n        /* \"#utility.yul\":10784:10817   */\n      tag_38\n      jump\t// in\n    tag_272:\n        /* \"#utility.yul\":10774:10817   */\n      swap1\n      pop\n        /* \"#utility.yul\":10671:10824   */\n      swap2\n      swap1\n      pop\n      jump\t// out\n        /* \"#utility.yul\":10830:10971   */\n    tag_144:\n        /* \"#utility.yul\":10879:10883   */\n      0x00\n        /* \"#utility.yul\":10902:10905   */\n      dup2\n        /* \"#utility.yul\":10894:10905   */\n      swap1\n      pop\n        /* \"#utility.yul\":10925:10928   */\n      dup2\n        /* \"#utility.yul\":10922:10923   */\n      0x00\n        /* \"#utility.yul\":10915:10929   */\n      mstore\n        /* \"#utility.yul\":10959:10963   */\n      0x20\n        /* \"#utility.yul\":10956:10957   */\n      0x00\n        /* \"#utility.yul\":10946:10964   */\n      keccak256\n        /* \"#utility.yul\":10938:10964   */\n      swap1\n      pop\n        /* \"#utility.yul\":10830:10971   */\n      swap2\n      swap1\n      pop\n      jump\t// out\n        /* \"#utility.yul\":10977:11122   */\n    tag_145:\n        /* \"#utility.yul\":11030:11034   */\n      0x00\n        /* \"#utility.yul\":11053:11056   */\n      dup2\n        /* \"#utility.yul\":11045:11056   */\n      swap1\n      pop\n        /* \"#utility.yul\":11076:11079   */\n      dup2\n        /* \"#utility.yul\":11073:11074   */\n      0x00\n        /* \"#utility.yul\":11066:11080   */\n      mstore\n        /* \"#utility.yul\":11110:11114   */\n      0x20\n        /* \"#utility.yul\":11107:11108   */\n      0x00\n        /* \"#utility.yul\":11097:11115   */\n      keccak256\n        /* \"#utility.yul\":11089:11115   */\n      swap1\n      pop\n        /* \"#utility.yul\":10977:11122   */\n      swap2\n      swap1\n      pop\n      jump\t// out\n        /* \"#utility.yul\":11128:11221   */\n    tag_146:\n        /* \"#utility.yul\":11165:11171   */\n      0x00\n        /* \"#utility.yul\":11212:11214   */\n      0x20\n        /* \"#utility.yul\":11207:11209   */\n      0x1f\n        /* \"#utility.yul\":11200:11205   */\n      dup4\n        /* \"#utility.yul\":11196:11210   */\n      add\n        /* \"#utility.yul\":11192:11215   */\n      div\n        /* \"#utility.yul\":11182:11215   */\n      swap1\n      pop\n        /* \"#utility.yul\":11128:11221   */\n      swap2\n      swap1\n      pop\n      jump\t// out\n        /* \"#utility.yul\":11227:11334   */\n    tag_147:\n        /* \"#utility.yul\":11271:11279   */\n      0x00\n        /* \"#utility.yul\":11321:11326   */\n      dup3\n        /* \"#utility.yul\":11315:11319   */\n      dup3\n        /* \"#utility.yul\":11311:11327   */\n      shl\n        /* \"#utility.yul\":11290:11327   */\n      swap1\n      pop\n        /* \"#utility.yul\":11227:11334   */\n      swap3\n      swap2\n      pop\n      pop\n      jump\t// out\n        /* \"#utility.yul\":11340:11733   */\n    tag_148:\n        /* \"#utility.yul\":11409:11415   */\n      0x00\n        /* \"#utility.yul\":11459:11460   */\n      0x08\n        /* \"#utility.yul\":11447:11457   */\n      dup4\n        /* \"#utility.yul\":11443:11461   */\n      mul\n        /* \"#utility.yul\":11482:11579   */\n      tag_278\n        /* \"#utility.yul\":11512:11578   */\n      0xffffffffffffffffffffffffffffffffffffffffffffffffffffffffffffffff\n        /* \"#utility.yul\":11501:11510   */\n      dup3\n        /* \"#utility.yul\":11482:11579   */\n      tag_147\n      jump\t// in\n    tag_278:\n        /* \"#utility.yul\":11600:11639   */\n      tag_279\n        /* \"#utility.yul\":11630:11638   */\n      dup7\n        /* \"#utility.yul\":11619:11628   */\n      dup4\n        /* \"#utility.yul\":11600:11639   */\n      tag_147\n      jump\t// in\n    tag_279:\n        /* \"#utility.yul\":11588:11639   */\n      swap6\n      pop\n        /* \"#utility.yul\":11672:11676   */\n      dup1\n        /* \"#utility.yul\":11668:11677   */\n      not\n        /* \"#utility.yul\":11661:11666   */\n      dup5\n        /* \"#utility.yul\":11657:11678   */\n      and\n        /* \"#utility.yul\":11648:11678   */\n      swap4\n      pop\n        /* \"#utility.yul\":11721:11725   */\n      dup1\n        /* \"#utility.yul\":11711:11719   */\n      dup7\n        /* \"#utility.yul\":11707:11726   */\n      and\n        /* \"#utility.yul\":11700:11705   */\n      dup5\n        /* \"#utility.yul\":11697:11727   */\n      or\n        /* \"#utility.yul\":11687:11727   */\n      swap3\n      pop\n        /* \"#utility.yul\":11416:11733   */\n      pop\n      pop\n        /* \"#utility.yul\":11340:11733   */\n      swap4\n      swap3\n      pop\n      pop\n      pop\n      jump\t// out\n        /* \"#utility.yul\":11739:11799   */\n    tag_149:\n        /* \"#utility.yul\":11767:11770   */\n      0x00\n        /* \"#utility.yul\":11788:11793   */\n      dup2\n        /* \"#utility.yul\":11781:11793   */\n      swap1\n      pop\n        /* \"#utility.yul\":11739:11799   */\n      swap2\n      swap1\n      pop\n      jump\t// out\n        /* \"#utility.yul\":11805:11947   */\n    tag_150:\n        /* \"#utility.yul\":11855:11864   */\n      0x00\n        /* \"#utility.yul\":11888:11941   */\n      tag_282\n        /* \"#utility.yul\":11906:11940   */\n      tag_283\n        /* \"#utility.yul\":11915:11939   */\n      tag_284\n        /* \"#utility.yul\":11933:11938   */\n      dup5\n        /* \"#utility.yul\":11915:11939   */\n      tag_133\n      jump\t// in\n    tag_284:\n        /* \"#utility.yul\":11906:11940   */\n      tag_149\n      jump\t// in\n    tag_283:\n        /* \"#utility.yul\":11888:11941   */\n      tag_133\n      jump\t// in\n    tag_282:\n        /* \"#utility.yul\":11875:11941   */\n      swap1\n      pop\n        /* \"#utility.yul\":11805:11947   */\n      swap2\n      swap1\n      pop\n      jump\t// out\n        /* \"#utility.yul\":11953:12028   */\n    tag_151:\n        /* \"#utility.yul\":11996:11999   */\n      0x00\n        /* \"#utility.yul\":12017:12022   */\n      dup2\n        /* \"#utility.yul\":12010:12022   */\n      swap1\n      pop\n        /* \"#utility.yul\":11953:12028   */\n      swap2\n      swap1\n      pop\n      jump\t// out\n        /* \"#utility.yul\":12034:12303   */\n    tag_152:\n        /* \"#utility.yul\":12144:12183   */\n      tag_287\n        /* \"#utility.yul\":12175:12182   */\n      dup4\n        /* \"#utility.yul\":12144:12183   */\n      tag_150\n      jump\t// in\n    tag_287:\n        /* \"#utility.yul\":12205:12296   */\n      tag_288\n        /* \"#utility.yul\":12254:12295   */\n      tag_289\n        /* \"#utility.yul\":12278:12294   */\n      dup3\n        /* \"#utility.yul\":12254:12295   */\n      tag_151\n      jump\t// in\n    tag_289:\n        /* \"#utility.yul\":12246:12252   */\n      dup5\n        /* \"#utility.yul\":12239:12243   */\n      dup5\n        /* \"#utility.yul\":12233:12244   */\n      sload\n        /* \"#utility.yul\":12205:12296   */\n      tag_148\n      jump\t// in\n    tag_288:\n        /* \"#utility.yul\":12199:12203   */\n      dup3\n        /* \"#utility.yul\":12192:12297   */\n      sstore\n        /* \"#utility.yul\":12110:12303   */\n      pop\n        /* \"#utility.yul\":12034:12303   */\n      pop\n      pop\n      pop\n      jump\t// out\n        /* \"#utility.yul\":12309:12382   */\n    tag_153:\n        /* \"#utility.yul\":12354:12357   */\n      0x00\n        /* \"#utility.yul\":12309:12382   */\n      swap1\n      jump\t// out\n        /* \"#utility.yul\":12388:12577   */\n    tag_154:\n        /* \"#utility.yul\":12465:12497   */\n      tag_292\n      tag_153\n      jump\t// in\n    tag_292:\n        /* \"#utility.yul\":12506:12571   */\n      tag_293\n        /* \"#utility.yul\":12564:12570   */\n      dup2\n        /* \"#utility.yul\":12556:12562   */\n      dup5\n        /* \"#utility.yul\":12550:12554   */\n      dup5\n        /* \"#utility.yul\":12506:12571   */\n      tag_152\n      jump\t// in\n    tag_293:\n        /* \"#utility.yul\":12441:12577   */\n      pop\n        /* \"#utility.yul\":12388:12577   */\n      pop\n      pop\n      jump\t// out\n        /* \"#utility.yul\":12583:12769   */\n    tag_155:\n        /* \"#utility.yul\":12643:12763   */\n    tag_295:\n        /* \"#utility.yul\":12660:12663   */\n      dup2\n        /* \"#utility.yul\":12653:12658   */\n      dup2\n        /* \"#utility.yul\":12650:12664   */\n      lt\n        /* \"#utility.yul\":12643:12763   */\n      iszero\n      tag_297\n      jumpi\n        /* \"#utility.yul\":12714:12753   */\n      tag_298\n        /* \"#utility.yul\":12751:12752   */\n      0x00\n        /* \"#utility.yul\":12744:12749   */\n      dup3\n        /* \"#utility.yul\":12714:12753   */\n      tag_154\n      jump\t// in\n    tag_298:\n        /* \"#utility.yul\":12687:12688   */\n      0x01\n        /* \"#utility.yul\":12680:12685   */\n      dup2\n        /* \"#utility.yul\":12676:12689   */\n      add\n        /* \"#utility.yul\":12667:12689   */\n      swap1\n      pop\n        /* \"#utility.yul\":12643:12763   */\n      jump(tag_295)\n    tag_297:\n        /* \"#utility.yul\":12583:12769   */\n      pop\n      pop\n      jump\t// out\n        /* \"#utility.yul\":12775:13318   */\n    tag_156:\n        /* \"#utility.yul\":12876:12878   */\n      0x1f\n        /* \"#utility.yul\":12871:12874   */\n      dup3\n        /* \"#utility.yul\":12868:12879   */\n      gt\n        /* \"#utility.yul\":12865:13311   */\n      iszero\n      tag_300\n      jumpi\n        /* \"#utility.yul\":12910:12948   */\n      tag_301\n        /* \"#utility.yul\":12942:12947   */\n      dup2\n        /* \"#utility.yul\":12910:12948   */\n      tag_144\n      jump\t// in\n    tag_301:\n        /* \"#utility.yul\":12994:13023   */\n      tag_302\n        /* \"#utility.yul\":13012:13022   */\n      dup5\n        /* \"#utility.yul\":12994:13023   */\n      tag_146\n      jump\t// in\n    tag_302:\n        /* \"#utility.yul\":12984:12992   */\n      dup2\n        /* \"#utility.yul\":12980:13024   */\n      add\n        /* \"#utility.yul\":13177:13179   */\n      0x20\n        /* \"#utility.yul\":13165:13175   */\n      dup6\n        /* \"#utility.yul\":13162:13180   */\n      lt\n        /* \"#utility.yul\":13159:13208   */\n      iszero\n      tag_303\n      jumpi\n        /* \"#utility.yul\":13198:13206   */\n      dup2\n        /* \"#utility.yul\":13183:13206   */\n      swap1\n      pop\n        /* \"#utility.yul\":13159:13208   */\n    tag_303:\n        /* \"#utility.yul\":13221:13301   */\n      tag_304\n        /* \"#utility.yul\":13277:13299   */\n      tag_305\n        /* \"#utility.yul\":13295:13298   */\n      dup6\n        /* \"#utility.yul\":13277:13299   */\n      tag_146\n      jump\t// in\n    tag_305:\n        /* \"#utility.yul\":13267:13275   */\n      dup4\n        /* \"#utility.yul\":13263:13300   */\n      add\n        /* \"#utility.yul\":13250:13261   */\n      dup3\n        /* \"#utility.yul\":13221:13301   */\n      tag_155\n      jump\t// in\n    tag_304:\n        /* \"#utility.yul\":12880:13311   */\n      pop\n      pop\n        /* \"#utility.yul\":12865:13311   */\n    tag_300:\n        /* \"#utility.yul\":12775:13318   */\n      pop\n      pop\n      pop\n      jump\t// out\n        /* \"#utility.yul\":13324:13441   */\n    tag_157:\n        /* \"#utility.yul\":13378:13386   */\n      0x00\n        /* \"#utility.yul\":13428:13433   */\n      dup3\n        /* \"#utility.yul\":13422:13426   */\n      dup3\n        /* \"#utility.yul\":13418:13434   */\n      shr\n        /* \"#utility.yul\":13397:13434   */\n      swap1\n      pop\n        /* \"#utility.yul\":13324:13441   */\n      swap3\n      swap2\n      pop\n      pop\n      jump\t// out\n        /* \"#utility.yul\":13447:13616   */\n    tag_158:\n        /* \"#utility.yul\":13491:13497   */\n      0x00\n        /* \"#utility.yul\":13524:13575   */\n      tag_308\n        /* \"#utility.yul\":13572:13573   */\n      0x00\n        /* \"#utility.yul\":13568:13574   */\n      not\n        /* \"#utility.yul\":13560:13565   */\n      dup5\n        /* \"#utility.yul\":13557:13558   */\n      0x08\n        /* \"#utility.yul\":13553:13566   */\n      mul\n        /* \"#utility.yul\":13524:13575   */\n      tag_157\n      jump\t// in\n    tag_308:\n        /* \"#utility.yul\":13520:13576   */\n      not\n        /* \"#utility.yul\":13605:13609   */\n      dup1\n        /* \"#utility.yul\":13599:13603   */\n      dup4\n        /* \"#utility.yul\":13595:13610   */\n      and\n        /* \"#utility.yul\":13585:13610   */\n      swap2\n      pop\n        /* \"#utility.yul\":13498:13616   */\n      pop\n        /* \"#utility.yul\":13447:13616   */\n      swap3\n      swap2\n      pop\n      pop\n      jump\t// out\n        /* \"#utility.yul\":13621:13916   */\n    tag_159:\n        /* \"#utility.yul\":13697:13701   */\n      0x00\n        /* \"#utility.yul\":13843:13872   */\n      tag_310\n        /* \"#utility.yul\":13868:13871   */\n      dup4\n        /* \"#utility.yul\":13862:13866   */\n      dup4\n        /* \"#utility.yul\":13843:13872   */\n      tag_158\n      jump\t// in\n    tag_310:\n        /* \"#utility.yul\":13835:13872   */\n      swap2\n      pop\n        /* \"#utility.yul\":13905:13908   */\n      dup3\n        /* \"#utility.yul\":13902:13903   */\n      0x02\n        /* \"#utility.yul\":13898:13909   */\n      mul\n        /* \"#utility.yul\":13892:13896   */\n      dup3\n        /* \"#utility.yul\":13889:13910   */\n      or\n        /* \"#utility.yul\":13881:13910   */\n      swap1\n      pop\n        /* \"#utility.yul\":13621:13916   */\n      swap3\n      swap2\n      pop\n      pop\n      jump\t// out\n        /* \"#utility.yul\":13921:15384   */\n    tag_65:\n        /* \"#utility.yul\":14036:14039   */\n      dup2\n        /* \"#utility.yul\":14030:14034   */\n      dup2\n        /* \"#utility.yul\":14027:14040   */\n      sub\n        /* \"#utility.yul\":14024:14050   */\n      tag_312\n      jumpi\n        /* \"#utility.yul\":14043:14048   */\n      pop\n      pop\n      jump(tag_311)\n        /* \"#utility.yul\":14024:14050   */\n    tag_312:\n        /* \"#utility.yul\":14074:14112   */\n      tag_313\n        /* \"#utility.yul\":14108:14111   */\n      dup3\n        /* \"#utility.yul\":14074:14112   */\n      tag_143\n      jump\t// in\n    tag_313:\n        /* \"#utility.yul\":14177:14195   */\n      0xffffffffffffffff\n        /* \"#utility.yul\":14169:14175   */\n      dup2\n        /* \"#utility.yul\":14166:14196   */\n      gt\n        /* \"#utility.yul\":14163:14219   */\n      iszero\n      tag_314\n      jumpi\n        /* \"#utility.yul\":14199:14217   */\n      tag_315\n      tag_126\n      jump\t// in\n    tag_315:\n        /* \"#utility.yul\":14163:14219   */\n    tag_314:\n        /* \"#utility.yul\":14243:14281   */\n      tag_316\n        /* \"#utility.yul\":14275:14279   */\n      dup3\n        /* \"#utility.yul\":14269:14280   */\n      sload\n        /* \"#utility.yul\":14243:14281   */\n      tag_38\n      jump\t// in\n    tag_316:\n        /* \"#utility.yul\":14328:14395   */\n      tag_317\n        /* \"#utility.yul\":14388:14394   */\n      dup3\n        /* \"#utility.yul\":14380:14386   */\n      dup3\n        /* \"#utility.yul\":14374:14378   */\n      dup6\n        /* \"#utility.yul\":14328:14395   */\n      tag_156\n      jump\t// in\n    tag_317:\n        /* \"#utility.yul\":14422:14423   */\n      0x00\n        /* \"#utility.yul\":14451:14453   */\n      0x1f\n        /* \"#utility.yul\":14443:14449   */\n      dup4\n        /* \"#utility.yul\":14440:14454   */\n      gt\n        /* \"#utility.yul\":14468:14469   */\n      0x01\n        /* \"#utility.yul\":14463:15139   */\n      dup2\n      eq\n      tag_319\n      jumpi\n        /* \"#utility.yul\":15183:15184   */\n      0x00\n        /* \"#utility.yul\":15200:15206   */\n      dup5\n        /* \"#utility.yul\":15197:15274   */\n      iszero\n      tag_320\n      jumpi\n        /* \"#utility.yul\":15249:15258   */\n      dup3\n        /* \"#utility.yul\":15244:15247   */\n      dup8\n        /* \"#utility.yul\":15240:15259   */\n      add\n        /* \"#utility.yul\":15234:15260   */\n      sload\n        /* \"#utility.yul\":15225:15260   */\n      swap1\n      pop\n        /* \"#utility.yul\":15197:15274   */\n    tag_320:\n        /* \"#utility.yul\":15300:15367   */\n      tag_321\n        /* \"#utility.yul\":15360:15366   */\n      dup6\n        /* \"#utility.yul\":15353:15358   */\n      dup3\n        /* \"#utility.yul\":15300:15367   */\n      tag_159\n      jump\t// in\n    tag_321:\n        /* \"#utility.yul\":15294:15298   */\n      dup7\n        /* \"#utility.yul\":15287:15368   */\n      sstore\n        /* \"#utility.yul\":15156:15378   */\n      pop\n        /* \"#utility.yul\":14433:15378   */\n      jump(tag_318)\n        /* \"#utility.yul\":14463:15139   */\n    tag_319:\n        /* \"#utility.yul\":14515:14519   */\n      0x1f\n        /* \"#utility.yul\":14511:14520   */\n      not\n        /* \"#utility.yul\":14503:14509   */\n      dup5\n        /* \"#utility.yul\":14499:14521   */\n      and\n        /* \"#utility.yul\":14541:14581   */\n      tag_322\n        /* \"#utility.yul\":14577:14580   */\n      dup8\n        /* \"#utility.yul\":14541:14581   */\n      tag_145\n      jump\t// in\n    tag_322:\n        /* \"#utility.yul\":14534:14581   */\n      swap7\n      pop\n        /* \"#utility.yul\":14608:14645   */\n      tag_323\n        /* \"#utility.yul\":14640:14644   */\n      dup7\n        /* \"#utility.yul\":14608:14645   */\n      tag_144\n      jump\t// in\n    tag_323:\n        /* \"#utility.yul\":14667:14668   */\n      0x00\n        /* \"#utility.yul\":14681:14888   */\n    tag_324:\n        /* \"#utility.yul\":14695:14702   */\n      dup3\n        /* \"#utility.yul\":14692:14693   */\n      dup2\n        /* \"#utility.yul\":14689:14703   */\n      lt\n        /* \"#utility.yul\":14681:14888   */\n      iszero\n      tag_326\n      jumpi\n        /* \"#utility.yul\":14774:14783   */\n      dup5\n        /* \"#utility.yul\":14769:14772   */\n      dup10\n        /* \"#utility.yul\":14765:14784   */\n      add\n        /* \"#utility.yul\":14759:14785   */\n      sload\n        /* \"#utility.yul\":14751:14757   */\n      dup3\n        /* \"#utility.yul\":14744:14786   */\n      sstore\n        /* \"#utility.yul\":14825:14826   */\n      0x01\n        /* \"#utility.yul\":14817:14823   */\n      dup3\n        /* \"#utility.yul\":14813:14827   */\n      add\n        /* \"#utility.yul\":14803:14827   */\n      swap2\n      pop\n        /* \"#utility.yul\":14872:14873   */\n      0x01\n        /* \"#utility.yul\":14861:14870   */\n      dup6\n        /* \"#utility.yul\":14857:14874   */\n      add\n        /* \"#utility.yul\":14844:14874   */\n      swap5\n      pop\n        /* \"#utility.yul\":14718:14722   */\n      0x20\n        /* \"#utility.yul\":14715:14716   */\n      dup2\n        /* \"#utility.yul\":14711:14723   */\n      add\n        /* \"#utility.yul\":14706:14723   */\n      swap1\n      pop\n        /* \"#utility.yul\":14681:14888   */\n      jump(tag_324)\n    tag_326:\n        /* \"#utility.yul\":14916:14922   */\n      dup7\n        /* \"#utility.yul\":14907:14914   */\n      dup4\n        /* \"#utility.yul\":14904:14923   */\n      lt\n        /* \"#utility.yul\":14901:15080   */\n      iszero\n      tag_327\n      jumpi\n        /* \"#utility.yul\":14974:14983   */\n      dup5\n        /* \"#utility.yul\":14969:14972   */\n      dup10\n        /* \"#utility.yul\":14965:14984   */\n      add\n        /* \"#utility.yul\":14959:14985   */\n      sload\n        /* \"#utility.yul\":15017:15065   */\n      tag_328\n        /* \"#utility.yul\":15059:15063   */\n      0x1f\n        /* \"#utility.yul\":15051:15057   */\n      dup10\n        /* \"#utility.yul\":15047:15064   */\n      and\n        /* \"#utility.yul\":15036:15045   */\n      dup3\n        /* \"#utility.yul\":15017:15065   */\n      tag_158\n      jump\t// in\n    tag_328:\n        /* \"#utility.yul\":15009:15015   */\n      dup4\n        /* \"#utility.yul\":15002:15066   */\n      sstore\n        /* \"#utility.yul\":14924:15080   */\n      pop\n        /* \"#utility.yul\":14901:15080   */\n    tag_327:\n        /* \"#utility.yul\":15126:15127   */\n      0x01\n        /* \"#utility.yul\":15122:15123   */\n      0x02\n        /* \"#utility.yul\":15114:15120   */\n      dup9\n        /* \"#utility.yul\":15110:15124   */\n      mul\n        /* \"#utility.yul\":15106:15128   */\n      add\n        /* \"#utility.yul\":15100:15104   */\n      dup9\n        /* \"#utility.yul\":15093:15129   */\n      sstore\n        /* \"#utility.yul\":14470:15139   */\n      pop\n      pop\n      pop\n        /* \"#utility.yul\":14433:15378   */\n    tag_318:\n      pop\n        /* \"#utility.yul\":14014:15384   */\n      pop\n      pop\n      pop\n        /* \"#utility.yul\":13921:15384   */\n      pop\n      pop\n    tag_311:\n      jump\t// out\n        /* \"#utility.yul\":15390:15570   */\n    tag_68:\n        /* \"#utility.yul\":15438:15515   */\n      0x4e487b7100000000000000000000000000000000000000000000000000000000\n        /* \"#utility.yul\":15435:15436   */\n      0x00\n        /* \"#utility.yul\":15428:15516   */\n      mstore\n        /* \"#utility.yul\":15535:15539   */\n      0x31\n        /* \"#utility.yul\":15532:15533   */\n      0x04\n        /* \"#utility.yul\":15525:15540   */\n      mstore\n        /* \"#utility.yul\":15559:15563   */\n      0x24\n        /* \"#utility.yul\":15556:15557   */\n      0x00\n        /* \"#utility.yul\":15549:15564   */\n      revert\n        /* \"#utility.yul\":15576:15809   */\n    tag_73:\n        /* \"#utility.yul\":15615:15618   */\n      0x00\n        /* \"#utility.yul\":15638:15662   */\n      tag_331\n        /* \"#utility.yul\":15656:15661   */\n      dup3\n        /* \"#utility.yul\":15638:15662   */\n      tag_133\n      jump\t// in\n    tag_331:\n        /* \"#utility.yul\":15629:15662   */\n      swap2\n      pop\n        /* \"#utility.yul\":15684:15750   */\n      0xffffffffffffffffffffffffffffffffffffffffffffffffffffffffffffffff\n        /* \"#utility.yul\":15677:15682   */\n      dup3\n        /* \"#utility.yul\":15674:15751   */\n      sub\n        /* \"#utility.yul\":15671:15774   */\n      tag_332\n      jumpi\n        /* \"#utility.yul\":15754:15772   */\n      tag_333\n      tag_142\n      jump\t// in\n    tag_333:\n        /* \"#utility.yul\":15671:15774   */\n    tag_332:\n        /* \"#utility.yul\":15801:15802   */\n      0x01\n        /* \"#utility.yul\":15794:15799   */\n      dup3\n        /* \"#utility.yul\":15790:15803   */\n      add\n        /* \"#utility.yul\":15783:15803   */\n      swap1\n      pop\n        /* \"#utility.yul\":15576:15809   */\n      swap2\n      swap1\n      pop\n      jump\t// out\n        /* \"#utility.yul\":15815:17210   */\n    tag_79:\n        /* \"#utility.yul\":15932:15969   */\n      tag_335\n        /* \"#utility.yul\":15965:15968   */\n      dup3\n        /* \"#utility.yul\":15932:15969   */\n      tag_113\n      jump\t// in\n    tag_335:\n        /* \"#utility.yul\":16034:16052   */\n      0xffffffffffffffff\n        /* \"#utility.yul\":16026:16032   */\n      dup2\n        /* \"#utility.yul\":16023:16053   */\n      gt\n        /* \"#utility.yul\":16020:16076   */\n      iszero\n      tag_336\n      jumpi\n        /* \"#utility.yul\":16056:16074   */\n      tag_337\n      tag_126\n      jump\t// in\n    tag_337:\n        /* \"#utility.yul\":16020:16076   */\n    tag_336:\n        /* \"#utility.yul\":16100:16138   */\n      tag_338\n        /* \"#utility.yul\":16132:16136   */\n      dup3\n        /* \"#utility.yul\":16126:16137   */\n      sload\n        /* \"#utility.yul\":16100:16138   */\n      tag_38\n      jump\t// in\n    tag_338:\n        /* \"#utility.yul\":16185:16252   */\n      tag_339\n        /* \"#utility.yul\":16245:16251   */\n      dup3\n        /* \"#utility.yul\":16237:16243   */\n      dup3\n        /* \"#utility.yul\":16231:16235   */\n      dup6\n        /* \"#utility.yul\":16185:16252   */\n      tag_156\n      jump\t// in\n    tag_339:\n        /* \"#utility.yul\":16279:16280   */\n      0x00\n        /* \"#utility.yul\":16303:16307   */\n      0x20\n        /* \"#utility.yul\":16290:16307   */\n      swap1\n      pop\n        /* \"#utility.yul\":16335:16337   */\n      0x1f\n        /* \"#utility.yul\":16327:16333   */\n      dup4\n        /* \"#utility.yul\":16324:16338   */\n      gt\n        /* \"#utility.yul\":16352:16353   */\n      0x01\n        /* \"#utility.yul\":16347:16965   */\n      dup2\n      eq\n      tag_341\n      jumpi\n        /* \"#utility.yul\":17009:17010   */\n      0x00\n        /* \"#utility.yul\":17026:17032   */\n      dup5\n        /* \"#utility.yul\":17023:17100   */\n      iszero\n      tag_342\n      jumpi\n        /* \"#utility.yul\":17075:17084   */\n      dup3\n        /* \"#utility.yul\":17070:17073   */\n      dup8\n        /* \"#utility.yul\":17066:17085   */\n      add\n        /* \"#utility.yul\":17060:17086   */\n      mload\n        /* \"#utility.yul\":17051:17086   */\n      swap1\n      pop\n        /* \"#utility.yul\":17023:17100   */\n    tag_342:\n        /* \"#utility.yul\":17126:17193   */\n      tag_343\n        /* \"#utility.yul\":17186:17192   */\n      dup6\n        /* \"#utility.yul\":17179:17184   */\n      dup3\n        /* \"#utility.yul\":17126:17193   */\n      tag_159\n      jump\t// in\n    tag_343:\n        /* \"#utility.yul\":17120:17124   */\n      dup7\n        /* \"#utility.yul\":17113:17194   */\n      sstore\n        /* \"#utility.yul\":16982:17204   */\n      pop\n        /* \"#utility.yul\":16317:17204   */\n      jump(tag_340)\n        /* \"#utility.yul\":16347:16965   */\n    tag_341:\n        /* \"#utility.yul\":16399:16403   */\n      0x1f\n        /* \"#utility.yul\":16395:16404   */\n      not\n        /* \"#utility.yul\":16387:16393   */\n      dup5\n        /* \"#utility.yul\":16383:16405   */\n      and\n        /* \"#utility.yul\":16433:16470   */\n      tag_344\n        /* \"#utility.yul\":16465:16469   */\n      dup7\n        /* \"#utility.yul\":16433:16470   */\n      tag_144\n      jump\t// in\n    tag_344:\n        /* \"#utility.yul\":16492:16493   */\n      0x00\n        /* \"#utility.yul\":16506:16714   */\n    tag_345:\n        /* \"#utility.yul\":16520:16527   */\n      dup3\n        /* \"#utility.yul\":16517:16518   */\n      dup2\n        /* \"#utility.yul\":16514:16528   */\n      lt\n        /* \"#utility.yul\":16506:16714   */\n      iszero\n      tag_347\n      jumpi\n        /* \"#utility.yul\":16599:16608   */\n      dup5\n        /* \"#utility.yul\":16594:16597   */\n      dup10\n        /* \"#utility.yul\":16590:16609   */\n      add\n        /* \"#utility.yul\":16584:16610   */\n      mload\n        /* \"#utility.yul\":16576:16582   */\n      dup3\n        /* \"#utility.yul\":16569:16611   */\n      sstore\n        /* \"#utility.yul\":16650:16651   */\n      0x01\n        /* \"#utility.yul\":16642:16648   */\n      dup3\n        /* \"#utility.yul\":16638:16652   */\n      add\n        /* \"#utility.yul\":16628:16652   */\n      swap2\n      pop\n        /* \"#utility.yul\":16697:16699   */\n      0x20\n        /* \"#utility.yul\":16686:16695   */\n      dup6\n        /* \"#utility.yul\":16682:16700   */\n      add\n        /* \"#utility.yul\":16669:16700   */\n      swap5\n      pop\n        /* \"#utility.yul\":16543:16547   */\n      0x20\n        /* \"#utility.yul\":16540:16541   */\n      dup2\n        /* \"#utility.yul\":16536:16548   */\n      add\n        /* \"#utility.yul\":16531:16548   */\n      swap1\n      pop\n        /* \"#utility.yul\":16506:16714   */\n      jump(tag_345)\n    tag_347:\n        /* \"#utility.yul\":16742:16748   */\n      dup7\n        /* \"#utility.yul\":16733:16740   */\n      dup4\n        /* \"#utility.yul\":16730:16749   */\n      lt\n        /* \"#utility.yul\":16727:16906   */\n      iszero\n      tag_348\n      jumpi\n        /* \"#utility.yul\":16800:16809   */\n      dup5\n        /* \"#utility.yul\":16795:16798   */\n      dup10\n        /* \"#utility.yul\":16791:16810   */\n      add\n        /* \"#utility.yul\":16785:16811   */\n      mload\n        /* \"#utility.yul\":16843:16891   */\n      tag_349\n        /* \"#utility.yul\":16885:16889   */\n      0x1f\n        /* \"#utility.yul\":16877:16883   */\n      dup10\n        /* \"#utility.yul\":16873:16890   */\n      and\n        /* \"#utility.yul\":16862:16871   */\n      dup3\n        /* \"#utility.yul\":16843:16891   */\n      tag_158\n      jump\t// in\n    tag_349:\n        /* \"#utility.yul\":16835:16841   */\n      dup4\n        /* \"#utility.yul\":16828:16892   */\n      sstore\n        /* \"#utility.yul\":16750:16906   */\n      pop\n        /* \"#utility.yul\":16727:16906   */\n    tag_348:\n        /* \"#utility.yul\":16952:16953   */\n      0x01\n        /* \"#utility.yul\":16948:16949   */\n      0x02\n        /* \"#utility.yul\":16940:16946   */\n      dup9\n        /* \"#utility.yul\":16936:16950   */\n      mul\n        /* \"#utility.yul\":16932:16954   */\n      add\n        /* \"#utility.yul\":16926:16930   */\n      dup9\n        /* \"#utility.yul\":16919:16955   */\n      sstore\n        /* \"#utility.yul\":16354:16965   */\n      pop\n      pop\n      pop\n        /* \"#utility.yul\":16317:17204   */\n    tag_340:\n      pop\n        /* \"#utility.yul\":15907:17210   */\n      pop\n      pop\n      pop\n        /* \"#utility.yul\":15815:17210   */\n      pop\n      pop\n      jump\t// out\n\n    auxdata: 0xa26469706673582212207e45f108cfda02c62caf6cd32f8e75ab5731f1a155434ded792416244398199064736f6c63430008120033\n}\n",
				"bytecode": {
					"linkReferences": {},
					"object": "608060405234801561001057600080fd5b50611072806100206000396000f3fe608060405234801561001057600080fd5b50600436106100625760003560e01c80632549df8c14610067578063294b4860146100855780633ffbd47f146100a1578063789f8d40146100bd5780638afdd669146100db578063d863c0001461010b575b600080fd5b61006f61013b565b60405161007c91906107d6565b60405180910390f35b61009f600480360381019061009a9190610941565b610214565b005b6100bb60048036038101906100b69190610941565b610363565b005b6100c56103f6565b6040516100d291906107d6565b60405180910390f35b6100f560048036038101906100f091906109ef565b6104cf565b6040516101029190610a66565b60405180910390f35b610125600480360381019061012091906109ef565b61057b565b6040516101329190610a66565b60405180910390f35b60606001805480602002602001604051908101604052809291908181526020016000905b8282101561020b57838290600052602060002001805461017e90610ab7565b80601f01602080910402602001604051908101604052809291908181526020018280546101aa90610ab7565b80156101f75780601f106101cc576101008083540402835291602001916101f7565b820191906000526020600020905b8154815290600101906020018083116101da57829003601f168201915b50505050508152602001906001019061015f565b50505050905090565b60006040518060400160405280600681526020017f4661726d6572000000000000000000000000000000000000000000000000000081525080519060200120828051906020012003610269576000905061026e565b600190505b60005b818054905081101561035c57838051906020012082828154811061029857610297610ae8565b5b906000526020600020016040516102af9190610bba565b6040518091039020036103495781600183805490506102ce9190610c00565b815481106102df576102de610ae8565b5b906000526020600020018282815481106102fc576102fb610ae8565b5b9060005260206000200190816103129190610e0b565b508180548061032457610323610ef3565b5b6001900381819060005260206000200160006103409190610627565b9055505061035f565b808061035490610f22565b915050610271565b50505b5050565b60006040518060400160405280600681526020017f4661726d65720000000000000000000000000000000000000000000000000000815250805190602001208280519060200120036103b857600090506103bd565b600190505b80839080600181540180825580915050600190039060005260206000200160009091909190915090816103f09190610f6a565b50505050565b60606000805480602002602001604051908101604052809291908181526020016000905b828210156104c657838290600052602060002001805461043990610ab7565b80601f016020809104026020016040519081016040528092919081815260200182805461046590610ab7565b80156104b25780601f10610487576101008083540402835291602001916104b2565b820191906000526020600020905b81548152906001019060200180831161049557829003601f168201915b50505050508152602001906001019061041a565b50505050905090565b600081815481106104df57600080fd5b9060005260206000200160009150905080546104fa90610ab7565b80601f016020809104026020016040519081016040528092919081815260200182805461052690610ab7565b80156105735780601f1061054857610100808354040283529160200191610573565b820191906000526020600020905b81548152906001019060200180831161055657829003601f168201915b505050505081565b6001818154811061058b57600080fd5b9060005260206000200160009150905080546105a690610ab7565b80601f01602080910402602001604051908101604052809291908181526020018280546105d290610ab7565b801561061f5780601f106105f45761010080835404028352916020019161061f565b820191906000526020600020905b81548152906001019060200180831161060257829003601f168201915b505050505081565b50805461063390610ab7565b6000825580601f106106455750610664565b601f0160209004906000526020600020908101906106639190610667565b5b50565b5b80821115610680576000816000905550600101610668565b5090565b600081519050919050565b600082825260208201905092915050565b6000819050602082019050919050565b600081519050919050565b600082825260208201905092915050565b60005b838110156106ea5780820151818401526020810190506106cf565b60008484015250505050565b6000601f19601f8301169050919050565b6000610712826106b0565b61071c81856106bb565b935061072c8185602086016106cc565b610735816106f6565b840191505092915050565b600061074c8383610707565b905092915050565b6000602082019050919050565b600061076c82610684565b610776818561068f565b935083602082028501610788856106a0565b8060005b858110156107c457848403895281516107a58582610740565b94506107b083610754565b925060208a0199505060018101905061078c565b50829750879550505050505092915050565b600060208201905081810360008301526107f08184610761565b905092915050565b6000604051905090565b600080fd5b600080fd5b600080fd5b600080fd5b7f4e487b7100000000000000000000000000000000000000000000000000000000600052604160045260246000fd5b61084e826106f6565b810181811067ffffffffffffffff8211171561086d5761086c610816565b5b80604052505050565b60006108806107f8565b905061088c8282610845565b919050565b600067ffffffffffffffff8211156108ac576108ab610816565b5b6108b5826106f6565b9050602081019050919050565b82818337600083830152505050565b60006108e46108df84610891565b610876565b905082815260208101848484011115610900576108ff610811565b5b61090b8482856108c2565b509392505050565b600082601f8301126109285761092761080c565b5b81356109388482602086016108d1565b91505092915050565b6000806040838503121561095857610957610802565b5b600083013567ffffffffffffffff81111561097657610975610807565b5b61098285828601610913565b925050602083013567ffffffffffffffff8111156109a3576109a2610807565b5b6109af85828601610913565b9150509250929050565b6000819050919050565b6109cc816109b9565b81146109d757600080fd5b50565b6000813590506109e9816109c3565b92915050565b600060208284031215610a0557610a04610802565b5b6000610a13848285016109da565b91505092915050565b600082825260208201905092915050565b6000610a38826106b0565b610a428185610a1c565b9350610a528185602086016106cc565b610a5b816106f6565b840191505092915050565b60006020820190508181036000830152610a808184610a2d565b905092915050565b7f4e487b7100000000000000000000000000000000000000000000000000000000600052602260045260246000fd5b60006002820490506001821680610acf57607f821691505b602082108103610ae257610ae1610a88565b5b50919050565b7f4e487b7100000000000000000000000000000000000000000000000000000000600052603260045260246000fd5b600081905092915050565b60008190508160005260206000209050919050565b60008154610b4481610ab7565b610b4e8186610b17565b94506001821660008114610b695760018114610b7e57610bb1565b60ff1983168652811515820286019350610bb1565b610b8785610b22565b60005b83811015610ba957815481890152600182019150602081019050610b8a565b838801955050505b50505092915050565b6000610bc68284610b37565b915081905092915050565b7f4e487b7100000000000000000000000000000000000000000000000000000000600052601160045260246000fd5b6000610c0b826109b9565b9150610c16836109b9565b9250828203905081811115610c2e57610c2d610bd1565b5b92915050565b600081549050610c4381610ab7565b9050919050565b60008190508160005260206000209050919050565b60008190508160005260206000209050919050565b60006020601f8301049050919050565b600082821b905092915050565b600060088302610cc17fffffffffffffffffffffffffffffffffffffffffffffffffffffffffffffffff82610c84565b610ccb8683610c84565b95508019841693508086168417925050509392505050565b6000819050919050565b6000610d08610d03610cfe846109b9565b610ce3565b6109b9565b9050919050565b6000819050919050565b610d2283610ced565b610d36610d2e82610d0f565b848454610c91565b825550505050565b600090565b610d4b610d3e565b610d56818484610d19565b505050565b5b81811015610d7a57610d6f600082610d43565b600181019050610d5c565b5050565b601f821115610dbf57610d9081610c4a565b610d9984610c74565b81016020851015610da8578190505b610dbc610db485610c74565b830182610d5b565b50505b505050565b600082821c905092915050565b6000610de260001984600802610dc4565b1980831691505092915050565b6000610dfb8383610dd1565b9150826002028217905092915050565b818103610e19575050610ef1565b610e2282610c34565b67ffffffffffffffff811115610e3b57610e3a610816565b5b610e458254610ab7565b610e50828285610d7e565b6000601f831160018114610e7f5760008415610e6d578287015490505b610e778582610def565b865550610eea565b601f198416610e8d87610c5f565b9650610e9886610c4a565b60005b82811015610ec057848901548255600182019150600185019450602081019050610e9b565b86831015610edd5784890154610ed9601f891682610dd1565b8355505b6001600288020188555050505b5050505050505b565b7f4e487b7100000000000000000000000000000000000000000000000000000000600052603160045260246000fd5b6000610f2d826109b9565b91507fffffffffffffffffffffffffffffffffffffffffffffffffffffffffffffffff8203610f5f57610f5e610bd1565b5b600182019050919050565b610f73826106b0565b67ffffffffffffffff811115610f8c57610f8b610816565b5b610f968254610ab7565b610fa1828285610d7e565b600060209050601f831160018114610fd45760008415610fc2578287015190505b610fcc8582610def565b865550611034565b601f198416610fe286610c4a565b60005b8281101561100a57848901518255600182019150602085019450602081019050610fe5565b868310156110275784890151611023601f891682610dd1565b8355505b6001600288020188555050505b50505050505056fea26469706673582212207e45f108cfda02c62caf6cd32f8e75ab5731f1a155434ded792416244398199064736f6c63430008120033",
					"opcodes": "PUSH1 0x80 PUSH1 0x40 MSTORE CALLVALUE DUP1 ISZERO PUSH2 0x10 JUMPI PUSH1 0x0 DUP1 REVERT JUMPDEST POP PUSH2 0x1072 DUP1 PUSH2 0x20 PUSH1 0x0 CODECOPY PUSH1 0x0 RETURN INVALID PUSH1 0x80 PUSH1 0x40 MSTORE CALLVALUE DUP1 ISZERO PUSH2 0x10 JUMPI PUSH1 0x0 DUP1 REVERT JUMPDEST POP PUSH1 0x4 CALLDATASIZE LT PUSH2 0x62 JUMPI PUSH1 0x0 CALLDATALOAD PUSH1 0xE0 SHR DUP1 PUSH4 0x2549DF8C EQ PUSH2 0x67 JUMPI DUP1 PUSH4 0x294B4860 EQ PUSH2 0x85 JUMPI DUP1 PUSH4 0x3FFBD47F EQ PUSH2 0xA1 JUMPI DUP1 PUSH4 0x789F8D40 EQ PUSH2 0xBD JUMPI DUP1 PUSH4 0x8AFDD669 EQ PUSH2 0xDB JUMPI DUP1 PUSH4 0xD863C000 EQ PUSH2 0x10B JUMPI JUMPDEST PUSH1 0x0 DUP1 REVERT JUMPDEST PUSH2 0x6F PUSH2 0x13B JUMP JUMPDEST PUSH1 0x40 MLOAD PUSH2 0x7C SWAP2 SWAP1 PUSH2 0x7D6 JUMP JUMPDEST PUSH1 0x40 MLOAD DUP1 SWAP2 SUB SWAP1 RETURN JUMPDEST PUSH2 0x9F PUSH1 0x4 DUP1 CALLDATASIZE SUB DUP2 ADD SWAP1 PUSH2 0x9A SWAP2 SWAP1 PUSH2 0x941 JUMP JUMPDEST PUSH2 0x214 JUMP JUMPDEST STOP JUMPDEST PUSH2 0xBB PUSH1 0x4 DUP1 CALLDATASIZE SUB DUP2 ADD SWAP1 PUSH2 0xB6 SWAP2 SWAP1 PUSH2 0x941 JUMP JUMPDEST PUSH2 0x363 JUMP JUMPDEST STOP JUMPDEST PUSH2 0xC5 PUSH2 0x3F6 JUMP JUMPDEST PUSH1 0x40 MLOAD PUSH2 0xD2 SWAP2 SWAP1 PUSH2 0x7D6 JUMP JUMPDEST PUSH1 0x40 MLOAD DUP1 SWAP2 SUB SWAP1 RETURN JUMPDEST PUSH2 0xF5 PUSH1 0x4 DUP1 CALLDATASIZE SUB DUP2 ADD SWAP1 PUSH2 0xF0 SWAP2 SWAP1 PUSH2 0x9EF JUMP JUMPDEST PUSH2 0x4CF JUMP JUMPDEST PUSH1 0x40 MLOAD PUSH2 0x102 SWAP2 SWAP1 PUSH2 0xA66 JUMP JUMPDEST PUSH1 0x40 MLOAD DUP1 SWAP2 SUB SWAP1 RETURN JUMPDEST PUSH2 0x125 PUSH1 0x4 DUP1 CALLDATASIZE SUB DUP2 ADD SWAP1 PUSH2 0x120 SWAP2 SWAP1 PUSH2 0x9EF JUMP JUMPDEST PUSH2 0x57B JUMP JUMPDEST PUSH1 0x40 MLOAD PUSH2 0x132 SWAP2 SWAP1 PUSH2 0xA66 JUMP JUMPDEST PUSH1 0x40 MLOAD DUP1 SWAP2 SUB SWAP1 RETURN JUMPDEST PUSH1 0x60 PUSH1 0x1 DUP1 SLOAD DUP1 PUSH1 0x20 MUL PUSH1 0x20 ADD PUSH1 0x40 MLOAD SWAP1 DUP2 ADD PUSH1 0x40 MSTORE DUP1 SWAP3 SWAP2 SWAP1 DUP2 DUP2 MSTORE PUSH1 0x20 ADD PUSH1 0x0 SWAP1 JUMPDEST DUP3 DUP3 LT ISZERO PUSH2 0x20B JUMPI DUP4 DUP3 SWAP1 PUSH1 0x0 MSTORE PUSH1 0x20 PUSH1 0x0 KECCAK256 ADD DUP1 SLOAD PUSH2 0x17E SWAP1 PUSH2 0xAB7 JUMP JUMPDEST DUP1 PUSH1 0x1F ADD PUSH1 0x20 DUP1 SWAP2 DIV MUL PUSH1 0x20 ADD PUSH1 0x40 MLOAD SWAP1 DUP2 ADD PUSH1 0x40 MSTORE DUP1 SWAP3 SWAP2 SWAP1 DUP2 DUP2 MSTORE PUSH1 0x20 ADD DUP3 DUP1 SLOAD PUSH2 0x1AA SWAP1 PUSH2 0xAB7 JUMP JUMPDEST DUP1 ISZERO PUSH2 0x1F7 JUMPI DUP1 PUSH1 0x1F LT PUSH2 0x1CC JUMPI PUSH2 0x100 DUP1 DUP4 SLOAD DIV MUL DUP4 MSTORE SWAP2 PUSH1 0x20 ADD SWAP2 PUSH2 0x1F7 JUMP JUMPDEST DUP3 ADD SWAP2 SWAP1 PUSH1 0x0 MSTORE PUSH1 0x20 PUSH1 0x0 KECCAK256 SWAP1 JUMPDEST DUP2 SLOAD DUP2 MSTORE SWAP1 PUSH1 0x1 ADD SWAP1 PUSH1 0x20 ADD DUP1 DUP4 GT PUSH2 0x1DA JUMPI DUP3 SWAP1 SUB PUSH1 0x1F AND DUP3 ADD SWAP2 JUMPDEST POP POP POP POP POP DUP2 MSTORE PUSH1 0x20 ADD SWAP1 PUSH1 0x1 ADD SWAP1 PUSH2 0x15F JUMP JUMPDEST POP POP POP POP SWAP1 POP SWAP1 JUMP JUMPDEST PUSH1 0x0 PUSH1 0x40 MLOAD DUP1 PUSH1 0x40 ADD PUSH1 0x40 MSTORE DUP1 PUSH1 0x6 DUP2 MSTORE PUSH1 0x20 ADD PUSH32 0x4661726D65720000000000000000000000000000000000000000000000000000 DUP2 MSTORE POP DUP1 MLOAD SWAP1 PUSH1 0x20 ADD KECCAK256 DUP3 DUP1 MLOAD SWAP1 PUSH1 0x20 ADD KECCAK256 SUB PUSH2 0x269 JUMPI PUSH1 0x0 SWAP1 POP PUSH2 0x26E JUMP JUMPDEST PUSH1 0x1 SWAP1 POP JUMPDEST PUSH1 0x0 JUMPDEST DUP2 DUP1 SLOAD SWAP1 POP DUP2 LT ISZERO PUSH2 0x35C JUMPI DUP4 DUP1 MLOAD SWAP1 PUSH1 0x20 ADD KECCAK256 DUP3 DUP3 DUP2 SLOAD DUP2 LT PUSH2 0x298 JUMPI PUSH2 0x297 PUSH2 0xAE8 JUMP JUMPDEST JUMPDEST SWAP1 PUSH1 0x0 MSTORE PUSH1 0x20 PUSH1 0x0 KECCAK256 ADD PUSH1 0x40 MLOAD PUSH2 0x2AF SWAP2 SWAP1 PUSH2 0xBBA JUMP JUMPDEST PUSH1 0x40 MLOAD DUP1 SWAP2 SUB SWAP1 KECCAK256 SUB PUSH2 0x349 JUMPI DUP2 PUSH1 0x1 DUP4 DUP1 SLOAD SWAP1 POP PUSH2 0x2CE SWAP2 SWAP1 PUSH2 0xC00 JUMP JUMPDEST DUP2 SLOAD DUP2 LT PUSH2 0x2DF JUMPI PUSH2 0x2DE PUSH2 0xAE8 JUMP JUMPDEST JUMPDEST SWAP1 PUSH1 0x0 MSTORE PUSH1 0x20 PUSH1 0x0 KECCAK256 ADD DUP3 DUP3 DUP2 SLOAD DUP2 LT PUSH2 0x2FC JUMPI PUSH2 0x2FB PUSH2 0xAE8 JUMP JUMPDEST JUMPDEST SWAP1 PUSH1 0x0 MSTORE PUSH1 0x20 PUSH1 0x0 KECCAK256 ADD SWAP1 DUP2 PUSH2 0x312 SWAP2 SWAP1 PUSH2 0xE0B JUMP JUMPDEST POP DUP2 DUP1 SLOAD DUP1 PUSH2 0x324 JUMPI PUSH2 0x323 PUSH2 0xEF3 JUMP JUMPDEST JUMPDEST PUSH1 0x1 SWAP1 SUB DUP2 DUP2 SWAP1 PUSH1 0x0 MSTORE PUSH1 0x20 PUSH1 0x0 KECCAK256 ADD PUSH1 0x0 PUSH2 0x340 SWAP2 SWAP1 PUSH2 0x627 JUMP JUMPDEST SWAP1 SSTORE POP POP PUSH2 0x35F JUMP JUMPDEST DUP1 DUP1 PUSH2 0x354 SWAP1 PUSH2 0xF22 JUMP JUMPDEST SWAP2 POP POP PUSH2 0x271 JUMP JUMPDEST POP POP JUMPDEST POP POP JUMP JUMPDEST PUSH1 0x0 PUSH1 0x40 MLOAD DUP1 PUSH1 0x40 ADD PUSH1 0x40 MSTORE DUP1 PUSH1 0x6 DUP2 MSTORE PUSH1 0x20 ADD PUSH32 0x4661726D65720000000000000000000000000000000000000000000000000000 DUP2 MSTORE POP DUP1 MLOAD SWAP1 PUSH1 0x20 ADD KECCAK256 DUP3 DUP1 MLOAD SWAP1 PUSH1 0x20 ADD KECCAK256 SUB PUSH2 0x3B8 JUMPI PUSH1 0x0 SWAP1 POP PUSH2 0x3BD JUMP JUMPDEST PUSH1 0x1 SWAP1 POP JUMPDEST DUP1 DUP4 SWAP1 DUP1 PUSH1 0x1 DUP2 SLOAD ADD DUP1 DUP3 SSTORE DUP1 SWAP2 POP POP PUSH1 0x1 SWAP1 SUB SWAP1 PUSH1 0x0 MSTORE PUSH1 0x20 PUSH1 0x0 KECCAK256 ADD PUSH1 0x0 SWAP1 SWAP2 SWAP1 SWAP2 SWAP1 SWAP2 POP SWAP1 DUP2 PUSH2 0x3F0 SWAP2 SWAP1 PUSH2 0xF6A JUMP JUMPDEST POP POP POP POP JUMP JUMPDEST PUSH1 0x60 PUSH1 0x0 DUP1 SLOAD DUP1 PUSH1 0x20 MUL PUSH1 0x20 ADD PUSH1 0x40 MLOAD SWAP1 DUP2 ADD PUSH1 0x40 MSTORE DUP1 SWAP3 SWAP2 SWAP1 DUP2 DUP2 MSTORE PUSH1 0x20 ADD PUSH1 0x0 SWAP1 JUMPDEST DUP3 DUP3 LT ISZERO PUSH2 0x4C6 JUMPI DUP4 DUP3 SWAP1 PUSH1 0x0 MSTORE PUSH1 0x20 PUSH1 0x0 KECCAK256 ADD DUP1 SLOAD PUSH2 0x439 SWAP1 PUSH2 0xAB7 JUMP JUMPDEST DUP1 PUSH1 0x1F ADD PUSH1 0x20 DUP1 SWAP2 DIV MUL PUSH1 0x20 ADD PUSH1 0x40 MLOAD SWAP1 DUP2 ADD PUSH1 0x40 MSTORE DUP1 SWAP3 SWAP2 SWAP1 DUP2 DUP2 MSTORE PUSH1 0x20 ADD DUP3 DUP1 SLOAD PUSH2 0x465 SWAP1 PUSH2 0xAB7 JUMP JUMPDEST DUP1 ISZERO PUSH2 0x4B2 JUMPI DUP1 PUSH1 0x1F LT PUSH2 0x487 JUMPI PUSH2 0x100 DUP1 DUP4 SLOAD DIV MUL DUP4 MSTORE SWAP2 PUSH1 0x20 ADD SWAP2 PUSH2 0x4B2 JUMP JUMPDEST DUP3 ADD SWAP2 SWAP1 PUSH1 0x0 MSTORE PUSH1 0x20 PUSH1 0x0 KECCAK256 SWAP1 JUMPDEST DUP2 SLOAD DUP2 MSTORE SWAP1 PUSH1 0x1 ADD SWAP1 PUSH1 0x20 ADD DUP1 DUP4 GT PUSH2 0x495 JUMPI DUP3 SWAP1 SUB PUSH1 0x1F AND DUP3 ADD SWAP2 JUMPDEST POP POP POP POP POP DUP2 MSTORE PUSH1 0x20 ADD SWAP1 PUSH1 0x1 ADD SWAP1 PUSH2 0x41A JUMP JUMPDEST POP POP POP POP SWAP1 POP SWAP1 JUMP JUMPDEST PUSH1 0x0 DUP2 DUP2 SLOAD DUP2 LT PUSH2 0x4DF JUMPI PUSH1 0x0 DUP1 REVERT JUMPDEST SWAP1 PUSH1 0x0 MSTORE PUSH1 0x20 PUSH1 0x0 KECCAK256 ADD PUSH1 0x0 SWAP2 POP SWAP1 POP DUP1 SLOAD PUSH2 0x4FA SWAP1 PUSH2 0xAB7 JUMP JUMPDEST DUP1 PUSH1 0x1F ADD PUSH1 0x20 DUP1 SWAP2 DIV MUL PUSH1 0x20 ADD PUSH1 0x40 MLOAD SWAP1 DUP2 ADD PUSH1 0x40 MSTORE DUP1 SWAP3 SWAP2 SWAP1 DUP2 DUP2 MSTORE PUSH1 0x20 ADD DUP3 DUP1 SLOAD PUSH2 0x526 SWAP1 PUSH2 0xAB7 JUMP JUMPDEST DUP1 ISZERO PUSH2 0x573 JUMPI DUP1 PUSH1 0x1F LT PUSH2 0x548 JUMPI PUSH2 0x100 DUP1 DUP4 SLOAD DIV MUL DUP4 MSTORE SWAP2 PUSH1 0x20 ADD SWAP2 PUSH2 0x573 JUMP JUMPDEST DUP3 ADD SWAP2 SWAP1 PUSH1 0x0 MSTORE PUSH1 0x20 PUSH1 0x0 KECCAK256 SWAP1 JUMPDEST DUP2 SLOAD DUP2 MSTORE SWAP1 PUSH1 0x1 ADD SWAP1 PUSH1 0x20 ADD DUP1 DUP4 GT PUSH2 0x556 JUMPI DUP3 SWAP1 SUB PUSH1 0x1F AND DUP3 ADD SWAP2 JUMPDEST POP POP POP POP POP DUP2 JUMP JUMPDEST PUSH1 0x1 DUP2 DUP2 SLOAD DUP2 LT PUSH2 0x58B JUMPI PUSH1 0x0 DUP1 REVERT JUMPDEST SWAP1 PUSH1 0x0 MSTORE PUSH1 0x20 PUSH1 0x0 KECCAK256 ADD PUSH1 0x0 SWAP2 POP SWAP1 POP DUP1 SLOAD PUSH2 0x5A6 SWAP1 PUSH2 0xAB7 JUMP JUMPDEST DUP1 PUSH1 0x1F ADD PUSH1 0x20 DUP1 SWAP2 DIV MUL PUSH1 0x20 ADD PUSH1 0x40 MLOAD SWAP1 DUP2 ADD PUSH1 0x40 MSTORE DUP1 SWAP3 SWAP2 SWAP1 DUP2 DUP2 MSTORE PUSH1 0x20 ADD DUP3 DUP1 SLOAD PUSH2 0x5D2 SWAP1 PUSH2 0xAB7 JUMP JUMPDEST DUP1 ISZERO PUSH2 0x61F JUMPI DUP1 PUSH1 0x1F LT PUSH2 0x5F4 JUMPI PUSH2 0x100 DUP1 DUP4 SLOAD DIV MUL DUP4 MSTORE SWAP2 PUSH1 0x20 ADD SWAP2 PUSH2 0x61F JUMP JUMPDEST DUP3 ADD SWAP2 SWAP1 PUSH1 0x0 MSTORE PUSH1 0x20 PUSH1 0x0 KECCAK256 SWAP1 JUMPDEST DUP2 SLOAD DUP2 MSTORE SWAP1 PUSH1 0x1 ADD SWAP1 PUSH1 0x20 ADD DUP1 DUP4 GT PUSH2 0x602 JUMPI DUP3 SWAP1 SUB PUSH1 0x1F AND DUP3 ADD SWAP2 JUMPDEST POP POP POP POP POP DUP2 JUMP JUMPDEST POP DUP1 SLOAD PUSH2 0x633 SWAP1 PUSH2 0xAB7 JUMP JUMPDEST PUSH1 0x0 DUP3 SSTORE DUP1 PUSH1 0x1F LT PUSH2 0x645 JUMPI POP PUSH2 0x664 JUMP JUMPDEST PUSH1 0x1F ADD PUSH1 0x20 SWAP1 DIV SWAP1 PUSH1 0x0 MSTORE PUSH1 0x20 PUSH1 0x0 KECCAK256 SWAP1 DUP2 ADD SWAP1 PUSH2 0x663 SWAP2 SWAP1 PUSH2 0x667 JUMP JUMPDEST JUMPDEST POP JUMP JUMPDEST JUMPDEST DUP1 DUP3 GT ISZERO PUSH2 0x680 JUMPI PUSH1 0x0 DUP2 PUSH1 0x0 SWAP1 SSTORE POP PUSH1 0x1 ADD PUSH2 0x668 JUMP JUMPDEST POP SWAP1 JUMP JUMPDEST PUSH1 0x0 DUP2 MLOAD SWAP1 POP SWAP2 SWAP1 POP JUMP JUMPDEST PUSH1 0x0 DUP3 DUP3 MSTORE PUSH1 0x20 DUP3 ADD SWAP1 POP SWAP3 SWAP2 POP POP JUMP JUMPDEST PUSH1 0x0 DUP2 SWAP1 POP PUSH1 0x20 DUP3 ADD SWAP1 POP SWAP2 SWAP1 POP JUMP JUMPDEST PUSH1 0x0 DUP2 MLOAD SWAP1 POP SWAP2 SWAP1 POP JUMP JUMPDEST PUSH1 0x0 DUP3 DUP3 MSTORE PUSH1 0x20 DUP3 ADD SWAP1 POP SWAP3 SWAP2 POP POP JUMP JUMPDEST PUSH1 0x0 JUMPDEST DUP4 DUP2 LT ISZERO PUSH2 0x6EA JUMPI DUP1 DUP3 ADD MLOAD DUP2 DUP5 ADD MSTORE PUSH1 0x20 DUP2 ADD SWAP1 POP PUSH2 0x6CF JUMP JUMPDEST PUSH1 0x0 DUP5 DUP5 ADD MSTORE POP POP POP POP JUMP JUMPDEST PUSH1 0x0 PUSH1 0x1F NOT PUSH1 0x1F DUP4 ADD AND SWAP1 POP SWAP2 SWAP1 POP JUMP JUMPDEST PUSH1 0x0 PUSH2 0x712 DUP3 PUSH2 0x6B0 JUMP JUMPDEST PUSH2 0x71C DUP2 DUP6 PUSH2 0x6BB JUMP JUMPDEST SWAP4 POP PUSH2 0x72C DUP2 DUP6 PUSH1 0x20 DUP7 ADD PUSH2 0x6CC JUMP JUMPDEST PUSH2 0x735 DUP2 PUSH2 0x6F6 JUMP JUMPDEST DUP5 ADD SWAP2 POP POP SWAP3 SWAP2 POP POP JUMP JUMPDEST PUSH1 0x0 PUSH2 0x74C DUP4 DUP4 PUSH2 0x707 JUMP JUMPDEST SWAP1 POP SWAP3 SWAP2 POP POP JUMP JUMPDEST PUSH1 0x0 PUSH1 0x20 DUP3 ADD SWAP1 POP SWAP2 SWAP1 POP JUMP JUMPDEST PUSH1 0x0 PUSH2 0x76C DUP3 PUSH2 0x684 JUMP JUMPDEST PUSH2 0x776 DUP2 DUP6 PUSH2 0x68F JUMP JUMPDEST SWAP4 POP DUP4 PUSH1 0x20 DUP3 MUL DUP6 ADD PUSH2 0x788 DUP6 PUSH2 0x6A0 JUMP JUMPDEST DUP1 PUSH1 0x0 JUMPDEST DUP6 DUP2 LT ISZERO PUSH2 0x7C4 JUMPI DUP5 DUP5 SUB DUP10 MSTORE DUP2 MLOAD PUSH2 0x7A5 DUP6 DUP3 PUSH2 0x740 JUMP JUMPDEST SWAP5 POP PUSH2 0x7B0 DUP4 PUSH2 0x754 JUMP JUMPDEST SWAP3 POP PUSH1 0x20 DUP11 ADD SWAP10 POP POP PUSH1 0x1 DUP2 ADD SWAP1 POP PUSH2 0x78C JUMP JUMPDEST POP DUP3 SWAP8 POP DUP8 SWAP6 POP POP POP POP POP POP SWAP3 SWAP2 POP POP JUMP JUMPDEST PUSH1 0x0 PUSH1 0x20 DUP3 ADD SWAP1 POP DUP2 DUP2 SUB PUSH1 0x0 DUP4 ADD MSTORE PUSH2 0x7F0 DUP2 DUP5 PUSH2 0x761 JUMP JUMPDEST SWAP1 POP SWAP3 SWAP2 POP POP JUMP JUMPDEST PUSH1 0x0 PUSH1 0x40 MLOAD SWAP1 POP SWAP1 JUMP JUMPDEST PUSH1 0x0 DUP1 REVERT JUMPDEST PUSH1 0x0 DUP1 REVERT JUMPDEST PUSH1 0x0 DUP1 REVERT JUMPDEST PUSH1 0x0 DUP1 REVERT JUMPDEST PUSH32 0x4E487B7100000000000000000000000000000000000000000000000000000000 PUSH1 0x0 MSTORE PUSH1 0x41 PUSH1 0x4 MSTORE PUSH1 0x24 PUSH1 0x0 REVERT JUMPDEST PUSH2 0x84E DUP3 PUSH2 0x6F6 JUMP JUMPDEST DUP2 ADD DUP2 DUP2 LT PUSH8 0xFFFFFFFFFFFFFFFF DUP3 GT OR ISZERO PUSH2 0x86D JUMPI PUSH2 0x86C PUSH2 0x816 JUMP JUMPDEST JUMPDEST DUP1 PUSH1 0x40 MSTORE POP POP POP JUMP JUMPDEST PUSH1 0x0 PUSH2 0x880 PUSH2 0x7F8 JUMP JUMPDEST SWAP1 POP PUSH2 0x88C DUP3 DUP3 PUSH2 0x845 JUMP JUMPDEST SWAP2 SWAP1 POP JUMP JUMPDEST PUSH1 0x0 PUSH8 0xFFFFFFFFFFFFFFFF DUP3 GT ISZERO PUSH2 0x8AC JUMPI PUSH2 0x8AB PUSH2 0x816 JUMP JUMPDEST JUMPDEST PUSH2 0x8B5 DUP3 PUSH2 0x6F6 JUMP JUMPDEST SWAP1 POP PUSH1 0x20 DUP2 ADD SWAP1 POP SWAP2 SWAP1 POP JUMP JUMPDEST DUP3 DUP2 DUP4 CALLDATACOPY PUSH1 0x0 DUP4 DUP4 ADD MSTORE POP POP POP JUMP JUMPDEST PUSH1 0x0 PUSH2 0x8E4 PUSH2 0x8DF DUP5 PUSH2 0x891 JUMP JUMPDEST PUSH2 0x876 JUMP JUMPDEST SWAP1 POP DUP3 DUP2 MSTORE PUSH1 0x20 DUP2 ADD DUP5 DUP5 DUP5 ADD GT ISZERO PUSH2 0x900 JUMPI PUSH2 0x8FF PUSH2 0x811 JUMP JUMPDEST JUMPDEST PUSH2 0x90B DUP5 DUP3 DUP6 PUSH2 0x8C2 JUMP JUMPDEST POP SWAP4 SWAP3 POP POP POP JUMP JUMPDEST PUSH1 0x0 DUP3 PUSH1 0x1F DUP4 ADD SLT PUSH2 0x928 JUMPI PUSH2 0x927 PUSH2 0x80C JUMP JUMPDEST JUMPDEST DUP2 CALLDATALOAD PUSH2 0x938 DUP5 DUP3 PUSH1 0x20 DUP7 ADD PUSH2 0x8D1 JUMP JUMPDEST SWAP2 POP POP SWAP3 SWAP2 POP POP JUMP JUMPDEST PUSH1 0x0 DUP1 PUSH1 0x40 DUP4 DUP6 SUB SLT ISZERO PUSH2 0x958 JUMPI PUSH2 0x957 PUSH2 0x802 JUMP JUMPDEST JUMPDEST PUSH1 0x0 DUP4 ADD CALLDATALOAD PUSH8 0xFFFFFFFFFFFFFFFF DUP2 GT ISZERO PUSH2 0x976 JUMPI PUSH2 0x975 PUSH2 0x807 JUMP JUMPDEST JUMPDEST PUSH2 0x982 DUP6 DUP3 DUP7 ADD PUSH2 0x913 JUMP JUMPDEST SWAP3 POP POP PUSH1 0x20 DUP4 ADD CALLDATALOAD PUSH8 0xFFFFFFFFFFFFFFFF DUP2 GT ISZERO PUSH2 0x9A3 JUMPI PUSH2 0x9A2 PUSH2 0x807 JUMP JUMPDEST JUMPDEST PUSH2 0x9AF DUP6 DUP3 DUP7 ADD PUSH2 0x913 JUMP JUMPDEST SWAP2 POP POP SWAP3 POP SWAP3 SWAP1 POP JUMP JUMPDEST PUSH1 0x0 DUP2 SWAP1 POP SWAP2 SWAP1 POP JUMP JUMPDEST PUSH2 0x9CC DUP2 PUSH2 0x9B9 JUMP JUMPDEST DUP2 EQ PUSH2 0x9D7 JUMPI PUSH1 0x0 DUP1 REVERT JUMPDEST POP JUMP JUMPDEST PUSH1 0x0 DUP2 CALLDATALOAD SWAP1 POP PUSH2 0x9E9 DUP2 PUSH2 0x9C3 JUMP JUMPDEST SWAP3 SWAP2 POP POP JUMP JUMPDEST PUSH1 0x0 PUSH1 0x20 DUP3 DUP5 SUB SLT ISZERO PUSH2 0xA05 JUMPI PUSH2 0xA04 PUSH2 0x802 JUMP JUMPDEST JUMPDEST PUSH1 0x0 PUSH2 0xA13 DUP5 DUP3 DUP6 ADD PUSH2 0x9DA JUMP JUMPDEST SWAP2 POP POP SWAP3 SWAP2 POP POP JUMP JUMPDEST PUSH1 0x0 DUP3 DUP3 MSTORE PUSH1 0x20 DUP3 ADD SWAP1 POP SWAP3 SWAP2 POP POP JUMP JUMPDEST PUSH1 0x0 PUSH2 0xA38 DUP3 PUSH2 0x6B0 JUMP JUMPDEST PUSH2 0xA42 DUP2 DUP6 PUSH2 0xA1C JUMP JUMPDEST SWAP4 POP PUSH2 0xA52 DUP2 DUP6 PUSH1 0x20 DUP7 ADD PUSH2 0x6CC JUMP JUMPDEST PUSH2 0xA5B DUP2 PUSH2 0x6F6 JUMP JUMPDEST DUP5 ADD SWAP2 POP POP SWAP3 SWAP2 POP POP JUMP JUMPDEST PUSH1 0x0 PUSH1 0x20 DUP3 ADD SWAP1 POP DUP2 DUP2 SUB PUSH1 0x0 DUP4 ADD MSTORE PUSH2 0xA80 DUP2 DUP5 PUSH2 0xA2D JUMP JUMPDEST SWAP1 POP SWAP3 SWAP2 POP POP JUMP JUMPDEST PUSH32 0x4E487B7100000000000000000000000000000000000000000000000000000000 PUSH1 0x0 MSTORE PUSH1 0x22 PUSH1 0x4 MSTORE PUSH1 0x24 PUSH1 0x0 REVERT JUMPDEST PUSH1 0x0 PUSH1 0x2 DUP3 DIV SWAP1 POP PUSH1 0x1 DUP3 AND DUP1 PUSH2 0xACF JUMPI PUSH1 0x7F DUP3 AND SWAP2 POP JUMPDEST PUSH1 0x20 DUP3 LT DUP2 SUB PUSH2 0xAE2 JUMPI PUSH2 0xAE1 PUSH2 0xA88 JUMP JUMPDEST JUMPDEST POP SWAP2 SWAP1 POP JUMP JUMPDEST PUSH32 0x4E487B7100000000000000000000000000000000000000000000000000000000 PUSH1 0x0 MSTORE PUSH1 0x32 PUSH1 0x4 MSTORE PUSH1 0x24 PUSH1 0x0 REVERT JUMPDEST PUSH1 0x0 DUP2 SWAP1 POP SWAP3 SWAP2 POP POP JUMP JUMPDEST PUSH1 0x0 DUP2 SWAP1 POP DUP2 PUSH1 0x0 MSTORE PUSH1 0x20 PUSH1 0x0 KECCAK256 SWAP1 POP SWAP2 SWAP1 POP JUMP JUMPDEST PUSH1 0x0 DUP2 SLOAD PUSH2 0xB44 DUP2 PUSH2 0xAB7 JUMP JUMPDEST PUSH2 0xB4E DUP2 DUP7 PUSH2 0xB17 JUMP JUMPDEST SWAP5 POP PUSH1 0x1 DUP3 AND PUSH1 0x0 DUP2 EQ PUSH2 0xB69 JUMPI PUSH1 0x1 DUP2 EQ PUSH2 0xB7E JUMPI PUSH2 0xBB1 JUMP JUMPDEST PUSH1 0xFF NOT DUP4 AND DUP7 MSTORE DUP2 ISZERO ISZERO DUP3 MUL DUP7 ADD SWAP4 POP PUSH2 0xBB1 JUMP JUMPDEST PUSH2 0xB87 DUP6 PUSH2 0xB22 JUMP JUMPDEST PUSH1 0x0 JUMPDEST DUP4 DUP2 LT ISZERO PUSH2 0xBA9 JUMPI DUP2 SLOAD DUP2 DUP10 ADD MSTORE PUSH1 0x1 DUP3 ADD SWAP2 POP PUSH1 0x20 DUP2 ADD SWAP1 POP PUSH2 0xB8A JUMP JUMPDEST DUP4 DUP9 ADD SWAP6 POP POP POP JUMPDEST POP POP POP SWAP3 SWAP2 POP POP JUMP JUMPDEST PUSH1 0x0 PUSH2 0xBC6 DUP3 DUP5 PUSH2 0xB37 JUMP JUMPDEST SWAP2 POP DUP2 SWAP1 POP SWAP3 SWAP2 POP POP JUMP JUMPDEST PUSH32 0x4E487B7100000000000000000000000000000000000000000000000000000000 PUSH1 0x0 MSTORE PUSH1 0x11 PUSH1 0x4 MSTORE PUSH1 0x24 PUSH1 0x0 REVERT JUMPDEST PUSH1 0x0 PUSH2 0xC0B DUP3 PUSH2 0x9B9 JUMP JUMPDEST SWAP2 POP PUSH2 0xC16 DUP4 PUSH2 0x9B9 JUMP JUMPDEST SWAP3 POP DUP3 DUP3 SUB SWAP1 POP DUP2 DUP2 GT ISZERO PUSH2 0xC2E JUMPI PUSH2 0xC2D PUSH2 0xBD1 JUMP JUMPDEST JUMPDEST SWAP3 SWAP2 POP POP JUMP JUMPDEST PUSH1 0x0 DUP2 SLOAD SWAP1 POP PUSH2 0xC43 DUP2 PUSH2 0xAB7 JUMP JUMPDEST SWAP1 POP SWAP2 SWAP1 POP JUMP JUMPDEST PUSH1 0x0 DUP2 SWAP1 POP DUP2 PUSH1 0x0 MSTORE PUSH1 0x20 PUSH1 0x0 KECCAK256 SWAP1 POP SWAP2 SWAP1 POP JUMP JUMPDEST PUSH1 0x0 DUP2 SWAP1 POP DUP2 PUSH1 0x0 MSTORE PUSH1 0x20 PUSH1 0x0 KECCAK256 SWAP1 POP SWAP2 SWAP1 POP JUMP JUMPDEST PUSH1 0x0 PUSH1 0x20 PUSH1 0x1F DUP4 ADD DIV SWAP1 POP SWAP2 SWAP1 POP JUMP JUMPDEST PUSH1 0x0 DUP3 DUP3 SHL SWAP1 POP SWAP3 SWAP2 POP POP JUMP JUMPDEST PUSH1 0x0 PUSH1 0x8 DUP4 MUL PUSH2 0xCC1 PUSH32 0xFFFFFFFFFFFFFFFFFFFFFFFFFFFFFFFFFFFFFFFFFFFFFFFFFFFFFFFFFFFFFFFF DUP3 PUSH2 0xC84 JUMP JUMPDEST PUSH2 0xCCB DUP7 DUP4 PUSH2 0xC84 JUMP JUMPDEST SWAP6 POP DUP1 NOT DUP5 AND SWAP4 POP DUP1 DUP7 AND DUP5 OR SWAP3 POP POP POP SWAP4 SWAP3 POP POP POP JUMP JUMPDEST PUSH1 0x0 DUP2 SWAP1 POP SWAP2 SWAP1 POP JUMP JUMPDEST PUSH1 0x0 PUSH2 0xD08 PUSH2 0xD03 PUSH2 0xCFE DUP5 PUSH2 0x9B9 JUMP JUMPDEST PUSH2 0xCE3 JUMP JUMPDEST PUSH2 0x9B9 JUMP JUMPDEST SWAP1 POP SWAP2 SWAP1 POP JUMP JUMPDEST PUSH1 0x0 DUP2 SWAP1 POP SWAP2 SWAP1 POP JUMP JUMPDEST PUSH2 0xD22 DUP4 PUSH2 0xCED JUMP JUMPDEST PUSH2 0xD36 PUSH2 0xD2E DUP3 PUSH2 0xD0F JUMP JUMPDEST DUP5 DUP5 SLOAD PUSH2 0xC91 JUMP JUMPDEST DUP3 SSTORE POP POP POP POP JUMP JUMPDEST PUSH1 0x0 SWAP1 JUMP JUMPDEST PUSH2 0xD4B PUSH2 0xD3E JUMP JUMPDEST PUSH2 0xD56 DUP2 DUP5 DUP5 PUSH2 0xD19 JUMP JUMPDEST POP POP POP JUMP JUMPDEST JUMPDEST DUP2 DUP2 LT ISZERO PUSH2 0xD7A JUMPI PUSH2 0xD6F PUSH1 0x0 DUP3 PUSH2 0xD43 JUMP JUMPDEST PUSH1 0x1 DUP2 ADD SWAP1 POP PUSH2 0xD5C JUMP JUMPDEST POP POP JUMP JUMPDEST PUSH1 0x1F DUP3 GT ISZERO PUSH2 0xDBF JUMPI PUSH2 0xD90 DUP2 PUSH2 0xC4A JUMP JUMPDEST PUSH2 0xD99 DUP5 PUSH2 0xC74 JUMP JUMPDEST DUP2 ADD PUSH1 0x20 DUP6 LT ISZERO PUSH2 0xDA8 JUMPI DUP2 SWAP1 POP JUMPDEST PUSH2 0xDBC PUSH2 0xDB4 DUP6 PUSH2 0xC74 JUMP JUMPDEST DUP4 ADD DUP3 PUSH2 0xD5B JUMP JUMPDEST POP POP JUMPDEST POP POP POP JUMP JUMPDEST PUSH1 0x0 DUP3 DUP3 SHR SWAP1 POP SWAP3 SWAP2 POP POP JUMP JUMPDEST PUSH1 0x0 PUSH2 0xDE2 PUSH1 0x0 NOT DUP5 PUSH1 0x8 MUL PUSH2 0xDC4 JUMP JUMPDEST NOT DUP1 DUP4 AND SWAP2 POP POP SWAP3 SWAP2 POP POP JUMP JUMPDEST PUSH1 0x0 PUSH2 0xDFB DUP4 DUP4 PUSH2 0xDD1 JUMP JUMPDEST SWAP2 POP DUP3 PUSH1 0x2 MUL DUP3 OR SWAP1 POP SWAP3 SWAP2 POP POP JUMP JUMPDEST DUP2 DUP2 SUB PUSH2 0xE19 JUMPI POP POP PUSH2 0xEF1 JUMP JUMPDEST PUSH2 0xE22 DUP3 PUSH2 0xC34 JUMP JUMPDEST PUSH8 0xFFFFFFFFFFFFFFFF DUP2 GT ISZERO PUSH2 0xE3B JUMPI PUSH2 0xE3A PUSH2 0x816 JUMP JUMPDEST JUMPDEST PUSH2 0xE45 DUP3 SLOAD PUSH2 0xAB7 JUMP JUMPDEST PUSH2 0xE50 DUP3 DUP3 DUP6 PUSH2 0xD7E JUMP JUMPDEST PUSH1 0x0 PUSH1 0x1F DUP4 GT PUSH1 0x1 DUP2 EQ PUSH2 0xE7F JUMPI PUSH1 0x0 DUP5 ISZERO PUSH2 0xE6D JUMPI DUP3 DUP8 ADD SLOAD SWAP1 POP JUMPDEST PUSH2 0xE77 DUP6 DUP3 PUSH2 0xDEF JUMP JUMPDEST DUP7 SSTORE POP PUSH2 0xEEA JUMP JUMPDEST PUSH1 0x1F NOT DUP5 AND PUSH2 0xE8D DUP8 PUSH2 0xC5F JUMP JUMPDEST SWAP7 POP PUSH2 0xE98 DUP7 PUSH2 0xC4A JUMP JUMPDEST PUSH1 0x0 JUMPDEST DUP3 DUP2 LT ISZERO PUSH2 0xEC0 JUMPI DUP5 DUP10 ADD SLOAD DUP3 SSTORE PUSH1 0x1 DUP3 ADD SWAP2 POP PUSH1 0x1 DUP6 ADD SWAP5 POP PUSH1 0x20 DUP2 ADD SWAP1 POP PUSH2 0xE9B JUMP JUMPDEST DUP7 DUP4 LT ISZERO PUSH2 0xEDD JUMPI DUP5 DUP10 ADD SLOAD PUSH2 0xED9 PUSH1 0x1F DUP10 AND DUP3 PUSH2 0xDD1 JUMP JUMPDEST DUP4 SSTORE POP JUMPDEST PUSH1 0x1 PUSH1 0x2 DUP9 MUL ADD DUP9 SSTORE POP POP POP JUMPDEST POP POP POP POP POP POP JUMPDEST JUMP JUMPDEST PUSH32 0x4E487B7100000000000000000000000000000000000000000000000000000000 PUSH1 0x0 MSTORE PUSH1 0x31 PUSH1 0x4 MSTORE PUSH1 0x24 PUSH1 0x0 REVERT JUMPDEST PUSH1 0x0 PUSH2 0xF2D DUP3 PUSH2 0x9B9 JUMP JUMPDEST SWAP2 POP PUSH32 0xFFFFFFFFFFFFFFFFFFFFFFFFFFFFFFFFFFFFFFFFFFFFFFFFFFFFFFFFFFFFFFFF DUP3 SUB PUSH2 0xF5F JUMPI PUSH2 0xF5E PUSH2 0xBD1 JUMP JUMPDEST JUMPDEST PUSH1 0x1 DUP3 ADD SWAP1 POP SWAP2 SWAP1 POP JUMP JUMPDEST PUSH2 0xF73 DUP3 PUSH2 0x6B0 JUMP JUMPDEST PUSH8 0xFFFFFFFFFFFFFFFF DUP2 GT ISZERO PUSH2 0xF8C JUMPI PUSH2 0xF8B PUSH2 0x816 JUMP JUMPDEST JUMPDEST PUSH2 0xF96 DUP3 SLOAD PUSH2 0xAB7 JUMP JUMPDEST PUSH2 0xFA1 DUP3 DUP3 DUP6 PUSH2 0xD7E JUMP JUMPDEST PUSH1 0x0 PUSH1 0x20 SWAP1 POP PUSH1 0x1F DUP4 GT PUSH1 0x1 DUP2 EQ PUSH2 0xFD4 JUMPI PUSH1 0x0 DUP5 ISZERO PUSH2 0xFC2 JUMPI DUP3 DUP8 ADD MLOAD SWAP1 POP JUMPDEST PUSH2 0xFCC DUP6 DUP3 PUSH2 0xDEF JUMP JUMPDEST DUP7 SSTORE POP PUSH2 0x1034 JUMP JUMPDEST PUSH1 0x1F NOT DUP5 AND PUSH2 0xFE2 DUP7 PUSH2 0xC4A JUMP JUMPDEST PUSH1 0x0 JUMPDEST DUP3 DUP2 LT ISZERO PUSH2 0x100A JUMPI DUP5 DUP10 ADD MLOAD DUP3 SSTORE PUSH1 0x1 DUP3 ADD SWAP2 POP PUSH1 0x20 DUP6 ADD SWAP5 POP PUSH1 0x20 DUP2 ADD SWAP1 POP PUSH2 0xFE5 JUMP JUMPDEST DUP7 DUP4 LT ISZERO PUSH2 0x1027 JUMPI DUP5 DUP10 ADD MLOAD PUSH2 0x1023 PUSH1 0x1F DUP10 AND DUP3 PUSH2 0xDD1 JUMP JUMPDEST DUP4 SSTORE POP JUMPDEST PUSH1 0x1 PUSH1 0x2 DUP9 MUL ADD DUP9 SSTORE POP POP POP JUMPDEST POP POP POP POP POP POP JUMP INVALID LOG2 PUSH5 0x6970667358 0x22 SLT KECCAK256 PUSH31 0x45F108CFDA02C62CAF6CD32F8E75AB5731F1A155434DED7924162443981990 PUSH5 0x736F6C6343 STOP ADDMOD SLT STOP CALLER "
				},
				"gasEstimates": {
					"creation": {
						"codeDepositCost": "842000",
						"executionCost": "877",
						"totalCost": "842877"
					},
					"external": {
						"deregister(string,string)": "infinite",
						"farmers(uint256)": "infinite",
						"getFarmers()": "infinite",
						"getSeedProducers()": "infinite",
						"register(string,string)": "infinite",
						"seed_producers(uint256)": "infinite"
					}
				},
				"methodIdentifiers": {
					"deregister(string,string)": "294b4860",
					"farmers(uint256)": "8afdd669",
					"getFarmers()": "789f8d40",
					"getSeedProducers()": "2549df8c",
					"register(string,string)": "3ffbd47f",
					"seed_producers(uint256)": "d863c000"
				}
			},
			"storageLayout": {
				"storage": [
					{
						"astId": 6,
						"contract": "contracts/Crop_Supply_Chain.sol:Crop_Supply_Chain",
						"label": "farmers",
						"offset": 0,
						"slot": "0",
						"type": "t_array(t_string_storage)dyn_storage"
					},
					{
						"astId": 9,
						"contract": "contracts/Crop_Supply_Chain.sol:Crop_Supply_Chain",
						"label": "seed_producers",
						"offset": 0,
						"slot": "1",
						"type": "t_array(t_string_storage)dyn_storage"
					}
				],
				"types": {
					"t_array(t_string_storage)dyn_storage": {
						"base": "t_string_storage",
						"encoding": "dynamic_array",
						"label": "string[]",
						"numberOfBytes": "32"
					},
					"t_string_storage": {
						"encoding": "bytes",
						"label": "string",
						"numberOfBytes": "32"
					}
				}
			},
			"userdoc": {
				"kind": "user",
				"methods": {},
				"version": 1
			}
		}
	}
}