{
	"data": {
		"bytecode": {
			"linkReferences": {},
			"object": "608060405234801561001057600080fd5b50610b54806100206000396000f3fe6080604052600436106100345760003560e01c80631b57b9f5146100395780631cb6ad9014610076578063a214b9e814610092575b600080fd5b34801561004557600080fd5b50610060600480360381019061005b91906104e3565b6100cf565b60405161006d919061066d565b60405180910390f35b610090600480360381019061008b919061068f565b6101c6565b005b34801561009e57600080fd5b506100b960048036038101906100b4919061068f565b61021b565b6040516100c69190610722565b60405180910390f35b60606000826040516100e19190610779565b9081526020016040518091039020805480602002602001604051908101604052809291908181526020016000905b828210156101bb57838290600052602060002001805461012e906107bf565b80601f016020809104026020016040519081016040528092919081815260200182805461015a906107bf565b80156101a75780601f1061017c576101008083540402835291602001916101a7565b820191906000526020600020905b81548152906001019060200180831161018a57829003601f168201915b50505050508152602001906001019061010f565b505050509050919050565b6000826040516101d69190610779565b90815260200160405180910390208190806001815401808255809150506001900390600052602060002001600090919091909150908161021691906109a6565b505050565b60008060008460405161022e9190610779565b9081526020016040518091039020805480602002602001604051908101604052809291908181526020016000905b8282101561030857838290600052602060002001805461027b906107bf565b80601f01602080910402602001604051908101604052809291908181526020018280546102a7906107bf565b80156102f45780601f106102c9576101008083540402835291602001916102f4565b820191906000526020600020905b8154815290600101906020018083116102d757829003601f168201915b50505050508152602001906001019061025c565b50505050905060005b81518110156103615761033e8282815181106103305761032f610a78565b5b60200260200101518561036e565b1561034e57600192505050610368565b808061035990610ad6565b915050610311565b5060009150505b92915050565b60008180519060200120838051906020012014905092915050565b6000604051905090565b600080fd5b600080fd5b600080fd5b600080fd5b6000601f19601f8301169050919050565b7f4e487b7100000000000000000000000000000000000000000000000000000000600052604160045260246000fd5b6103f0826103a7565b810181811067ffffffffffffffff8211171561040f5761040e6103b8565b5b80604052505050565b6000610422610389565b905061042e82826103e7565b919050565b600067ffffffffffffffff82111561044e5761044d6103b8565b5b610457826103a7565b9050602081019050919050565b82818337600083830152505050565b600061048661048184610433565b610418565b9050828152602081018484840111156104a2576104a16103a2565b5b6104ad848285610464565b509392505050565b600082601f8301126104ca576104c961039d565b5b81356104da848260208601610473565b91505092915050565b6000602082840312156104f9576104f8610393565b5b600082013567ffffffffffffffff81111561051757610516610398565b5b610523848285016104b5565b91505092915050565b600081519050919050565b600082825260208201905092915050565b6000819050602082019050919050565b600081519050919050565b600082825260208201905092915050565b60005b83811015610592578082015181840152602081019050610577565b60008484015250505050565b60006105a982610558565b6105b38185610563565b93506105c3818560208601610574565b6105cc816103a7565b840191505092915050565b60006105e3838361059e565b905092915050565b6000602082019050919050565b60006106038261052c565b61060d8185610537565b93508360208202850161061f85610548565b8060005b8581101561065b578484038952815161063c85826105d7565b9450610647836105eb565b925060208a01995050600181019050610623565b50829750879550505050505092915050565b6000602082019050818103600083015261068781846105f8565b905092915050565b600080604083850312156106a6576106a5610393565b5b600083013567ffffffffffffffff8111156106c4576106c3610398565b5b6106d0858286016104b5565b925050602083013567ffffffffffffffff8111156106f1576106f0610398565b5b6106fd858286016104b5565b9150509250929050565b60008115159050919050565b61071c81610707565b82525050565b60006020820190506107376000830184610713565b92915050565b600081905092915050565b600061075382610558565b61075d818561073d565b935061076d818560208601610574565b80840191505092915050565b60006107858284610748565b915081905092915050565b7f4e487b7100000000000000000000000000000000000000000000000000000000600052602260045260246000fd5b600060028204905060018216806107d757607f821691505b6020821081036107ea576107e9610790565b5b50919050565b60008190508160005260206000209050919050565b60006020601f8301049050919050565b600082821b905092915050565b6000600883026108527fffffffffffffffffffffffffffffffffffffffffffffffffffffffffffffffff82610815565b61085c8683610815565b95508019841693508086168417925050509392505050565b6000819050919050565b6000819050919050565b60006108a361089e61089984610874565b61087e565b610874565b9050919050565b6000819050919050565b6108bd83610888565b6108d16108c9826108aa565b848454610822565b825550505050565b600090565b6108e66108d9565b6108f18184846108b4565b505050565b5b818110156109155761090a6000826108de565b6001810190506108f7565b5050565b601f82111561095a5761092b816107f0565b61093484610805565b81016020851015610943578190505b61095761094f85610805565b8301826108f6565b50505b505050565b600082821c905092915050565b600061097d6000198460080261095f565b1980831691505092915050565b6000610996838361096c565b9150826002028217905092915050565b6109af82610558565b67ffffffffffffffff8111156109c8576109c76103b8565b5b6109d282546107bf565b6109dd828285610919565b600060209050601f831160018114610a1057600084156109fe578287015190505b610a08858261098a565b865550610a70565b601f198416610a1e866107f0565b60005b82811015610a4657848901518255600182019150602085019450602081019050610a21565b86831015610a635784890151610a5f601f89168261096c565b8355505b6001600288020188555050505b505050505050565b7f4e487b7100000000000000000000000000000000000000000000000000000000600052603260045260246000fd5b7f4e487b7100000000000000000000000000000000000000000000000000000000600052601160045260246000fd5b6000610ae182610874565b91507fffffffffffffffffffffffffffffffffffffffffffffffffffffffffffffffff8203610b1357610b12610aa7565b5b60018201905091905056fea26469706673582212203d02e0ee270e402ff409a8e286ad06a7f9678e375151200ceea3c9b6ac913f4a64736f6c63430008120033",
			"opcodes": "PUSH1 0x80 PUSH1 0x40 MSTORE CALLVALUE DUP1 ISZERO PUSH2 0x10 JUMPI PUSH1 0x0 DUP1 REVERT JUMPDEST POP PUSH2 0xB54 DUP1 PUSH2 0x20 PUSH1 0x0 CODECOPY PUSH1 0x0 RETURN INVALID PUSH1 0x80 PUSH1 0x40 MSTORE PUSH1 0x4 CALLDATASIZE LT PUSH2 0x34 JUMPI PUSH1 0x0 CALLDATALOAD PUSH1 0xE0 SHR DUP1 PUSH4 0x1B57B9F5 EQ PUSH2 0x39 JUMPI DUP1 PUSH4 0x1CB6AD90 EQ PUSH2 0x76 JUMPI DUP1 PUSH4 0xA214B9E8 EQ PUSH2 0x92 JUMPI JUMPDEST PUSH1 0x0 DUP1 REVERT JUMPDEST CALLVALUE DUP1 ISZERO PUSH2 0x45 JUMPI PUSH1 0x0 DUP1 REVERT JUMPDEST POP PUSH2 0x60 PUSH1 0x4 DUP1 CALLDATASIZE SUB DUP2 ADD SWAP1 PUSH2 0x5B SWAP2 SWAP1 PUSH2 0x4E3 JUMP JUMPDEST PUSH2 0xCF JUMP JUMPDEST PUSH1 0x40 MLOAD PUSH2 0x6D SWAP2 SWAP1 PUSH2 0x66D JUMP JUMPDEST PUSH1 0x40 MLOAD DUP1 SWAP2 SUB SWAP1 RETURN JUMPDEST PUSH2 0x90 PUSH1 0x4 DUP1 CALLDATASIZE SUB DUP2 ADD SWAP1 PUSH2 0x8B SWAP2 SWAP1 PUSH2 0x68F JUMP JUMPDEST PUSH2 0x1C6 JUMP JUMPDEST STOP JUMPDEST CALLVALUE DUP1 ISZERO PUSH2 0x9E JUMPI PUSH1 0x0 DUP1 REVERT JUMPDEST POP PUSH2 0xB9 PUSH1 0x4 DUP1 CALLDATASIZE SUB DUP2 ADD SWAP1 PUSH2 0xB4 SWAP2 SWAP1 PUSH2 0x68F JUMP JUMPDEST PUSH2 0x21B JUMP JUMPDEST PUSH1 0x40 MLOAD PUSH2 0xC6 SWAP2 SWAP1 PUSH2 0x722 JUMP JUMPDEST PUSH1 0x40 MLOAD DUP1 SWAP2 SUB SWAP1 RETURN JUMPDEST PUSH1 0x60 PUSH1 0x0 DUP3 PUSH1 0x40 MLOAD PUSH2 0xE1 SWAP2 SWAP1 PUSH2 0x779 JUMP JUMPDEST SWAP1 DUP2 MSTORE PUSH1 0x20 ADD PUSH1 0x40 MLOAD DUP1 SWAP2 SUB SWAP1 KECCAK256 DUP1 SLOAD DUP1 PUSH1 0x20 MUL PUSH1 0x20 ADD PUSH1 0x40 MLOAD SWAP1 DUP2 ADD PUSH1 0x40 MSTORE DUP1 SWAP3 SWAP2 SWAP1 DUP2 DUP2 MSTORE PUSH1 0x20 ADD PUSH1 0x0 SWAP1 JUMPDEST DUP3 DUP3 LT ISZERO PUSH2 0x1BB JUMPI DUP4 DUP3 SWAP1 PUSH1 0x0 MSTORE PUSH1 0x20 PUSH1 0x0 KECCAK256 ADD DUP1 SLOAD PUSH2 0x12E SWAP1 PUSH2 0x7BF JUMP JUMPDEST DUP1 PUSH1 0x1F ADD PUSH1 0x20 DUP1 SWAP2 DIV MUL PUSH1 0x20 ADD PUSH1 0x40 MLOAD SWAP1 DUP2 ADD PUSH1 0x40 MSTORE DUP1 SWAP3 SWAP2 SWAP1 DUP2 DUP2 MSTORE PUSH1 0x20 ADD DUP3 DUP1 SLOAD PUSH2 0x15A SWAP1 PUSH2 0x7BF JUMP JUMPDEST DUP1 ISZERO PUSH2 0x1A7 JUMPI DUP1 PUSH1 0x1F LT PUSH2 0x17C JUMPI PUSH2 0x100 DUP1 DUP4 SLOAD DIV MUL DUP4 MSTORE SWAP2 PUSH1 0x20 ADD SWAP2 PUSH2 0x1A7 JUMP JUMPDEST DUP3 ADD SWAP2 SWAP1 PUSH1 0x0 MSTORE PUSH1 0x20 PUSH1 0x0 KECCAK256 SWAP1 JUMPDEST DUP2 SLOAD DUP2 MSTORE SWAP1 PUSH1 0x1 ADD SWAP1 PUSH1 0x20 ADD DUP1 DUP4 GT PUSH2 0x18A JUMPI DUP3 SWAP1 SUB PUSH1 0x1F AND DUP3 ADD SWAP2 JUMPDEST POP POP POP POP POP DUP2 MSTORE PUSH1 0x20 ADD SWAP1 PUSH1 0x1 ADD SWAP1 PUSH2 0x10F JUMP JUMPDEST POP POP POP POP SWAP1 POP SWAP2 SWAP1 POP JUMP JUMPDEST PUSH1 0x0 DUP3 PUSH1 0x40 MLOAD PUSH2 0x1D6 SWAP2 SWAP1 PUSH2 0x779 JUMP JUMPDEST SWAP1 DUP2 MSTORE PUSH1 0x20 ADD PUSH1 0x40 MLOAD DUP1 SWAP2 SUB SWAP1 KECCAK256 DUP2 SWAP1 DUP1 PUSH1 0x1 DUP2 SLOAD ADD DUP1 DUP3 SSTORE DUP1 SWAP2 POP POP PUSH1 0x1 SWAP1 SUB SWAP1 PUSH1 0x0 MSTORE PUSH1 0x20 PUSH1 0x0 KECCAK256 ADD PUSH1 0x0 SWAP1 SWAP2 SWAP1 SWAP2 SWAP1 SWAP2 POP SWAP1 DUP2 PUSH2 0x216 SWAP2 SWAP1 PUSH2 0x9A6 JUMP JUMPDEST POP POP POP JUMP JUMPDEST PUSH1 0x0 DUP1 PUSH1 0x0 DUP5 PUSH1 0x40 MLOAD PUSH2 0x22E SWAP2 SWAP1 PUSH2 0x779 JUMP JUMPDEST SWAP1 DUP2 MSTORE PUSH1 0x20 ADD PUSH1 0x40 MLOAD DUP1 SWAP2 SUB SWAP1 KECCAK256 DUP1 SLOAD DUP1 PUSH1 0x20 MUL PUSH1 0x20 ADD PUSH1 0x40 MLOAD SWAP1 DUP2 ADD PUSH1 0x40 MSTORE DUP1 SWAP3 SWAP2 SWAP1 DUP2 DUP2 MSTORE PUSH1 0x20 ADD PUSH1 0x0 SWAP1 JUMPDEST DUP3 DUP3 LT ISZERO PUSH2 0x308 JUMPI DUP4 DUP3 SWAP1 PUSH1 0x0 MSTORE PUSH1 0x20 PUSH1 0x0 KECCAK256 ADD DUP1 SLOAD PUSH2 0x27B SWAP1 PUSH2 0x7BF JUMP JUMPDEST DUP1 PUSH1 0x1F ADD PUSH1 0x20 DUP1 SWAP2 DIV MUL PUSH1 0x20 ADD PUSH1 0x40 MLOAD SWAP1 DUP2 ADD PUSH1 0x40 MSTORE DUP1 SWAP3 SWAP2 SWAP1 DUP2 DUP2 MSTORE PUSH1 0x20 ADD DUP3 DUP1 SLOAD PUSH2 0x2A7 SWAP1 PUSH2 0x7BF JUMP JUMPDEST DUP1 ISZERO PUSH2 0x2F4 JUMPI DUP1 PUSH1 0x1F LT PUSH2 0x2C9 JUMPI PUSH2 0x100 DUP1 DUP4 SLOAD DIV MUL DUP4 MSTORE SWAP2 PUSH1 0x20 ADD SWAP2 PUSH2 0x2F4 JUMP JUMPDEST DUP3 ADD SWAP2 SWAP1 PUSH1 0x0 MSTORE PUSH1 0x20 PUSH1 0x0 KECCAK256 SWAP1 JUMPDEST DUP2 SLOAD DUP2 MSTORE SWAP1 PUSH1 0x1 ADD SWAP1 PUSH1 0x20 ADD DUP1 DUP4 GT PUSH2 0x2D7 JUMPI DUP3 SWAP1 SUB PUSH1 0x1F AND DUP3 ADD SWAP2 JUMPDEST POP POP POP POP POP DUP2 MSTORE PUSH1 0x20 ADD SWAP1 PUSH1 0x1 ADD SWAP1 PUSH2 0x25C JUMP JUMPDEST POP POP POP POP SWAP1 POP PUSH1 0x0 JUMPDEST DUP2 MLOAD DUP2 LT ISZERO PUSH2 0x361 JUMPI PUSH2 0x33E DUP3 DUP3 DUP2 MLOAD DUP2 LT PUSH2 0x330 JUMPI PUSH2 0x32F PUSH2 0xA78 JUMP JUMPDEST JUMPDEST PUSH1 0x20 MUL PUSH1 0x20 ADD ADD MLOAD DUP6 PUSH2 0x36E JUMP JUMPDEST ISZERO PUSH2 0x34E JUMPI PUSH1 0x1 SWAP3 POP POP POP PUSH2 0x368 JUMP JUMPDEST DUP1 DUP1 PUSH2 0x359 SWAP1 PUSH2 0xAD6 JUMP JUMPDEST SWAP2 POP POP PUSH2 0x311 JUMP JUMPDEST POP PUSH1 0x0 SWAP2 POP POP JUMPDEST SWAP3 SWAP2 POP POP JUMP JUMPDEST PUSH1 0x0 DUP2 DUP1 MLOAD SWAP1 PUSH1 0x20 ADD KECCAK256 DUP4 DUP1 MLOAD SWAP1 PUSH1 0x20 ADD KECCAK256 EQ SWAP1 POP SWAP3 SWAP2 POP POP JUMP JUMPDEST PUSH1 0x0 PUSH1 0x40 MLOAD SWAP1 POP SWAP1 JUMP JUMPDEST PUSH1 0x0 DUP1 REVERT JUMPDEST PUSH1 0x0 DUP1 REVERT JUMPDEST PUSH1 0x0 DUP1 REVERT JUMPDEST PUSH1 0x0 DUP1 REVERT JUMPDEST PUSH1 0x0 PUSH1 0x1F NOT PUSH1 0x1F DUP4 ADD AND SWAP1 POP SWAP2 SWAP1 POP JUMP JUMPDEST PUSH32 0x4E487B7100000000000000000000000000000000000000000000000000000000 PUSH1 0x0 MSTORE PUSH1 0x41 PUSH1 0x4 MSTORE PUSH1 0x24 PUSH1 0x0 REVERT JUMPDEST PUSH2 0x3F0 DUP3 PUSH2 0x3A7 JUMP JUMPDEST DUP2 ADD DUP2 DUP2 LT PUSH8 0xFFFFFFFFFFFFFFFF DUP3 GT OR ISZERO PUSH2 0x40F JUMPI PUSH2 0x40E PUSH2 0x3B8 JUMP JUMPDEST JUMPDEST DUP1 PUSH1 0x40 MSTORE POP POP POP JUMP JUMPDEST PUSH1 0x0 PUSH2 0x422 PUSH2 0x389 JUMP JUMPDEST SWAP1 POP PUSH2 0x42E DUP3 DUP3 PUSH2 0x3E7 JUMP JUMPDEST SWAP2 SWAP1 POP JUMP JUMPDEST PUSH1 0x0 PUSH8 0xFFFFFFFFFFFFFFFF DUP3 GT ISZERO PUSH2 0x44E JUMPI PUSH2 0x44D PUSH2 0x3B8 JUMP JUMPDEST JUMPDEST PUSH2 0x457 DUP3 PUSH2 0x3A7 JUMP JUMPDEST SWAP1 POP PUSH1 0x20 DUP2 ADD SWAP1 POP SWAP2 SWAP1 POP JUMP JUMPDEST DUP3 DUP2 DUP4 CALLDATACOPY PUSH1 0x0 DUP4 DUP4 ADD MSTORE POP POP POP JUMP JUMPDEST PUSH1 0x0 PUSH2 0x486 PUSH2 0x481 DUP5 PUSH2 0x433 JUMP JUMPDEST PUSH2 0x418 JUMP JUMPDEST SWAP1 POP DUP3 DUP2 MSTORE PUSH1 0x20 DUP2 ADD DUP5 DUP5 DUP5 ADD GT ISZERO PUSH2 0x4A2 JUMPI PUSH2 0x4A1 PUSH2 0x3A2 JUMP JUMPDEST JUMPDEST PUSH2 0x4AD DUP5 DUP3 DUP6 PUSH2 0x464 JUMP JUMPDEST POP SWAP4 SWAP3 POP POP POP JUMP JUMPDEST PUSH1 0x0 DUP3 PUSH1 0x1F DUP4 ADD SLT PUSH2 0x4CA JUMPI PUSH2 0x4C9 PUSH2 0x39D JUMP JUMPDEST JUMPDEST DUP2 CALLDATALOAD PUSH2 0x4DA DUP5 DUP3 PUSH1 0x20 DUP7 ADD PUSH2 0x473 JUMP JUMPDEST SWAP2 POP POP SWAP3 SWAP2 POP POP JUMP JUMPDEST PUSH1 0x0 PUSH1 0x20 DUP3 DUP5 SUB SLT ISZERO PUSH2 0x4F9 JUMPI PUSH2 0x4F8 PUSH2 0x393 JUMP JUMPDEST JUMPDEST PUSH1 0x0 DUP3 ADD CALLDATALOAD PUSH8 0xFFFFFFFFFFFFFFFF DUP2 GT ISZERO PUSH2 0x517 JUMPI PUSH2 0x516 PUSH2 0x398 JUMP JUMPDEST JUMPDEST PUSH2 0x523 DUP5 DUP3 DUP6 ADD PUSH2 0x4B5 JUMP JUMPDEST SWAP2 POP POP SWAP3 SWAP2 POP POP JUMP JUMPDEST PUSH1 0x0 DUP2 MLOAD SWAP1 POP SWAP2 SWAP1 POP JUMP JUMPDEST PUSH1 0x0 DUP3 DUP3 MSTORE PUSH1 0x20 DUP3 ADD SWAP1 POP SWAP3 SWAP2 POP POP JUMP JUMPDEST PUSH1 0x0 DUP2 SWAP1 POP PUSH1 0x20 DUP3 ADD SWAP1 POP SWAP2 SWAP1 POP JUMP JUMPDEST PUSH1 0x0 DUP2 MLOAD SWAP1 POP SWAP2 SWAP1 POP JUMP JUMPDEST PUSH1 0x0 DUP3 DUP3 MSTORE PUSH1 0x20 DUP3 ADD SWAP1 POP SWAP3 SWAP2 POP POP JUMP JUMPDEST PUSH1 0x0 JUMPDEST DUP4 DUP2 LT ISZERO PUSH2 0x592 JUMPI DUP1 DUP3 ADD MLOAD DUP2 DUP5 ADD MSTORE PUSH1 0x20 DUP2 ADD SWAP1 POP PUSH2 0x577 JUMP JUMPDEST PUSH1 0x0 DUP5 DUP5 ADD MSTORE POP POP POP POP JUMP JUMPDEST PUSH1 0x0 PUSH2 0x5A9 DUP3 PUSH2 0x558 JUMP JUMPDEST PUSH2 0x5B3 DUP2 DUP6 PUSH2 0x563 JUMP JUMPDEST SWAP4 POP PUSH2 0x5C3 DUP2 DUP6 PUSH1 0x20 DUP7 ADD PUSH2 0x574 JUMP JUMPDEST PUSH2 0x5CC DUP2 PUSH2 0x3A7 JUMP JUMPDEST DUP5 ADD SWAP2 POP POP SWAP3 SWAP2 POP POP JUMP JUMPDEST PUSH1 0x0 PUSH2 0x5E3 DUP4 DUP4 PUSH2 0x59E JUMP JUMPDEST SWAP1 POP SWAP3 SWAP2 POP POP JUMP JUMPDEST PUSH1 0x0 PUSH1 0x20 DUP3 ADD SWAP1 POP SWAP2 SWAP1 POP JUMP JUMPDEST PUSH1 0x0 PUSH2 0x603 DUP3 PUSH2 0x52C JUMP JUMPDEST PUSH2 0x60D DUP2 DUP6 PUSH2 0x537 JUMP JUMPDEST SWAP4 POP DUP4 PUSH1 0x20 DUP3 MUL DUP6 ADD PUSH2 0x61F DUP6 PUSH2 0x548 JUMP JUMPDEST DUP1 PUSH1 0x0 JUMPDEST DUP6 DUP2 LT ISZERO PUSH2 0x65B JUMPI DUP5 DUP5 SUB DUP10 MSTORE DUP2 MLOAD PUSH2 0x63C DUP6 DUP3 PUSH2 0x5D7 JUMP JUMPDEST SWAP5 POP PUSH2 0x647 DUP4 PUSH2 0x5EB JUMP JUMPDEST SWAP3 POP PUSH1 0x20 DUP11 ADD SWAP10 POP POP PUSH1 0x1 DUP2 ADD SWAP1 POP PUSH2 0x623 JUMP JUMPDEST POP DUP3 SWAP8 POP DUP8 SWAP6 POP POP POP POP POP POP SWAP3 SWAP2 POP POP JUMP JUMPDEST PUSH1 0x0 PUSH1 0x20 DUP3 ADD SWAP1 POP DUP2 DUP2 SUB PUSH1 0x0 DUP4 ADD MSTORE PUSH2 0x687 DUP2 DUP5 PUSH2 0x5F8 JUMP JUMPDEST SWAP1 POP SWAP3 SWAP2 POP POP JUMP JUMPDEST PUSH1 0x0 DUP1 PUSH1 0x40 DUP4 DUP6 SUB SLT ISZERO PUSH2 0x6A6 JUMPI PUSH2 0x6A5 PUSH2 0x393 JUMP JUMPDEST JUMPDEST PUSH1 0x0 DUP4 ADD CALLDATALOAD PUSH8 0xFFFFFFFFFFFFFFFF DUP2 GT ISZERO PUSH2 0x6C4 JUMPI PUSH2 0x6C3 PUSH2 0x398 JUMP JUMPDEST JUMPDEST PUSH2 0x6D0 DUP6 DUP3 DUP7 ADD PUSH2 0x4B5 JUMP JUMPDEST SWAP3 POP POP PUSH1 0x20 DUP4 ADD CALLDATALOAD PUSH8 0xFFFFFFFFFFFFFFFF DUP2 GT ISZERO PUSH2 0x6F1 JUMPI PUSH2 0x6F0 PUSH2 0x398 JUMP JUMPDEST JUMPDEST PUSH2 0x6FD DUP6 DUP3 DUP7 ADD PUSH2 0x4B5 JUMP JUMPDEST SWAP2 POP POP SWAP3 POP SWAP3 SWAP1 POP JUMP JUMPDEST PUSH1 0x0 DUP2 ISZERO ISZERO SWAP1 POP SWAP2 SWAP1 POP JUMP JUMPDEST PUSH2 0x71C DUP2 PUSH2 0x707 JUMP JUMPDEST DUP3 MSTORE POP POP JUMP JUMPDEST PUSH1 0x0 PUSH1 0x20 DUP3 ADD SWAP1 POP PUSH2 0x737 PUSH1 0x0 DUP4 ADD DUP5 PUSH2 0x713 JUMP JUMPDEST SWAP3 SWAP2 POP POP JUMP JUMPDEST PUSH1 0x0 DUP2 SWAP1 POP SWAP3 SWAP2 POP POP JUMP JUMPDEST PUSH1 0x0 PUSH2 0x753 DUP3 PUSH2 0x558 JUMP JUMPDEST PUSH2 0x75D DUP2 DUP6 PUSH2 0x73D JUMP JUMPDEST SWAP4 POP PUSH2 0x76D DUP2 DUP6 PUSH1 0x20 DUP7 ADD PUSH2 0x574 JUMP JUMPDEST DUP1 DUP5 ADD SWAP2 POP POP SWAP3 SWAP2 POP POP JUMP JUMPDEST PUSH1 0x0 PUSH2 0x785 DUP3 DUP5 PUSH2 0x748 JUMP JUMPDEST SWAP2 POP DUP2 SWAP1 POP SWAP3 SWAP2 POP POP JUMP JUMPDEST PUSH32 0x4E487B7100000000000000000000000000000000000000000000000000000000 PUSH1 0x0 MSTORE PUSH1 0x22 PUSH1 0x4 MSTORE PUSH1 0x24 PUSH1 0x0 REVERT JUMPDEST PUSH1 0x0 PUSH1 0x2 DUP3 DIV SWAP1 POP PUSH1 0x1 DUP3 AND DUP1 PUSH2 0x7D7 JUMPI PUSH1 0x7F DUP3 AND SWAP2 POP JUMPDEST PUSH1 0x20 DUP3 LT DUP2 SUB PUSH2 0x7EA JUMPI PUSH2 0x7E9 PUSH2 0x790 JUMP JUMPDEST JUMPDEST POP SWAP2 SWAP1 POP JUMP JUMPDEST PUSH1 0x0 DUP2 SWAP1 POP DUP2 PUSH1 0x0 MSTORE PUSH1 0x20 PUSH1 0x0 KECCAK256 SWAP1 POP SWAP2 SWAP1 POP JUMP JUMPDEST PUSH1 0x0 PUSH1 0x20 PUSH1 0x1F DUP4 ADD DIV SWAP1 POP SWAP2 SWAP1 POP JUMP JUMPDEST PUSH1 0x0 DUP3 DUP3 SHL SWAP1 POP SWAP3 SWAP2 POP POP JUMP JUMPDEST PUSH1 0x0 PUSH1 0x8 DUP4 MUL PUSH2 0x852 PUSH32 0xFFFFFFFFFFFFFFFFFFFFFFFFFFFFFFFFFFFFFFFFFFFFFFFFFFFFFFFFFFFFFFFF DUP3 PUSH2 0x815 JUMP JUMPDEST PUSH2 0x85C DUP7 DUP4 PUSH2 0x815 JUMP JUMPDEST SWAP6 POP DUP1 NOT DUP5 AND SWAP4 POP DUP1 DUP7 AND DUP5 OR SWAP3 POP POP POP SWAP4 SWAP3 POP POP POP JUMP JUMPDEST PUSH1 0x0 DUP2 SWAP1 POP SWAP2 SWAP1 POP JUMP JUMPDEST PUSH1 0x0 DUP2 SWAP1 POP SWAP2 SWAP1 POP JUMP JUMPDEST PUSH1 0x0 PUSH2 0x8A3 PUSH2 0x89E PUSH2 0x899 DUP5 PUSH2 0x874 JUMP JUMPDEST PUSH2 0x87E JUMP JUMPDEST PUSH2 0x874 JUMP JUMPDEST SWAP1 POP SWAP2 SWAP1 POP JUMP JUMPDEST PUSH1 0x0 DUP2 SWAP1 POP SWAP2 SWAP1 POP JUMP JUMPDEST PUSH2 0x8BD DUP4 PUSH2 0x888 JUMP JUMPDEST PUSH2 0x8D1 PUSH2 0x8C9 DUP3 PUSH2 0x8AA JUMP JUMPDEST DUP5 DUP5 SLOAD PUSH2 0x822 JUMP JUMPDEST DUP3 SSTORE POP POP POP POP JUMP JUMPDEST PUSH1 0x0 SWAP1 JUMP JUMPDEST PUSH2 0x8E6 PUSH2 0x8D9 JUMP JUMPDEST PUSH2 0x8F1 DUP2 DUP5 DUP5 PUSH2 0x8B4 JUMP JUMPDEST POP POP POP JUMP JUMPDEST JUMPDEST DUP2 DUP2 LT ISZERO PUSH2 0x915 JUMPI PUSH2 0x90A PUSH1 0x0 DUP3 PUSH2 0x8DE JUMP JUMPDEST PUSH1 0x1 DUP2 ADD SWAP1 POP PUSH2 0x8F7 JUMP JUMPDEST POP POP JUMP JUMPDEST PUSH1 0x1F DUP3 GT ISZERO PUSH2 0x95A JUMPI PUSH2 0x92B DUP2 PUSH2 0x7F0 JUMP JUMPDEST PUSH2 0x934 DUP5 PUSH2 0x805 JUMP JUMPDEST DUP2 ADD PUSH1 0x20 DUP6 LT ISZERO PUSH2 0x943 JUMPI DUP2 SWAP1 POP JUMPDEST PUSH2 0x957 PUSH2 0x94F DUP6 PUSH2 0x805 JUMP JUMPDEST DUP4 ADD DUP3 PUSH2 0x8F6 JUMP JUMPDEST POP POP JUMPDEST POP POP POP JUMP JUMPDEST PUSH1 0x0 DUP3 DUP3 SHR SWAP1 POP SWAP3 SWAP2 POP POP JUMP JUMPDEST PUSH1 0x0 PUSH2 0x97D PUSH1 0x0 NOT DUP5 PUSH1 0x8 MUL PUSH2 0x95F JUMP JUMPDEST NOT DUP1 DUP4 AND SWAP2 POP POP SWAP3 SWAP2 POP POP JUMP JUMPDEST PUSH1 0x0 PUSH2 0x996 DUP4 DUP4 PUSH2 0x96C JUMP JUMPDEST SWAP2 POP DUP3 PUSH1 0x2 MUL DUP3 OR SWAP1 POP SWAP3 SWAP2 POP POP JUMP JUMPDEST PUSH2 0x9AF DUP3 PUSH2 0x558 JUMP JUMPDEST PUSH8 0xFFFFFFFFFFFFFFFF DUP2 GT ISZERO PUSH2 0x9C8 JUMPI PUSH2 0x9C7 PUSH2 0x3B8 JUMP JUMPDEST JUMPDEST PUSH2 0x9D2 DUP3 SLOAD PUSH2 0x7BF JUMP JUMPDEST PUSH2 0x9DD DUP3 DUP3 DUP6 PUSH2 0x919 JUMP JUMPDEST PUSH1 0x0 PUSH1 0x20 SWAP1 POP PUSH1 0x1F DUP4 GT PUSH1 0x1 DUP2 EQ PUSH2 0xA10 JUMPI PUSH1 0x0 DUP5 ISZERO PUSH2 0x9FE JUMPI DUP3 DUP8 ADD MLOAD SWAP1 POP JUMPDEST PUSH2 0xA08 DUP6 DUP3 PUSH2 0x98A JUMP JUMPDEST DUP7 SSTORE POP PUSH2 0xA70 JUMP JUMPDEST PUSH1 0x1F NOT DUP5 AND PUSH2 0xA1E DUP7 PUSH2 0x7F0 JUMP JUMPDEST PUSH1 0x0 JUMPDEST DUP3 DUP2 LT ISZERO PUSH2 0xA46 JUMPI DUP5 DUP10 ADD MLOAD DUP3 SSTORE PUSH1 0x1 DUP3 ADD SWAP2 POP PUSH1 0x20 DUP6 ADD SWAP5 POP PUSH1 0x20 DUP2 ADD SWAP1 POP PUSH2 0xA21 JUMP JUMPDEST DUP7 DUP4 LT ISZERO PUSH2 0xA63 JUMPI DUP5 DUP10 ADD MLOAD PUSH2 0xA5F PUSH1 0x1F DUP10 AND DUP3 PUSH2 0x96C JUMP JUMPDEST DUP4 SSTORE POP JUMPDEST PUSH1 0x1 PUSH1 0x2 DUP9 MUL ADD DUP9 SSTORE POP POP POP JUMPDEST POP POP POP POP POP POP JUMP JUMPDEST PUSH32 0x4E487B7100000000000000000000000000000000000000000000000000000000 PUSH1 0x0 MSTORE PUSH1 0x32 PUSH1 0x4 MSTORE PUSH1 0x24 PUSH1 0x0 REVERT JUMPDEST PUSH32 0x4E487B7100000000000000000000000000000000000000000000000000000000 PUSH1 0x0 MSTORE PUSH1 0x11 PUSH1 0x4 MSTORE PUSH1 0x24 PUSH1 0x0 REVERT JUMPDEST PUSH1 0x0 PUSH2 0xAE1 DUP3 PUSH2 0x874 JUMP JUMPDEST SWAP2 POP PUSH32 0xFFFFFFFFFFFFFFFFFFFFFFFFFFFFFFFFFFFFFFFFFFFFFFFFFFFFFFFFFFFFFFFF DUP3 SUB PUSH2 0xB13 JUMPI PUSH2 0xB12 PUSH2 0xAA7 JUMP JUMPDEST JUMPDEST PUSH1 0x1 DUP3 ADD SWAP1 POP SWAP2 SWAP1 POP JUMP INVALID LOG2 PUSH5 0x6970667358 0x22 SLT KECCAK256 RETURNDATASIZE MUL 0xE0 0xEE 0x27 0xE BLOCKHASH 0x2F DELEGATECALL MULMOD 0xA8 0xE2 DUP7 0xAD MOD 0xA7 0xF9 PUSH8 0x8E375151200CEEA3 0xC9 0xB6 0xAC SWAP2 EXTCODEHASH 0x4A PUSH5 0x736F6C6343 STOP ADDMOD SLT STOP CALLER "
		},
		"gasEstimates": {
			"creation": {
				"codeDepositCost": "580000",
				"executionCost": "613",
				"totalCost": "580613"
			},
			"external": {
				"get_io_data(string)": "infinite",
				"upload_iot_data_hash(string,string)": "infinite",
				"verify_data_hash(string,string)": "infinite"
			},
			"internal": {
				"compare(string memory,string memory)": "infinite"
			}
		},
		"methodIdentifiers": {
			"get_io_data(string)": "1b57b9f5",
			"upload_iot_data_hash(string,string)": "1cb6ad90",
			"verify_data_hash(string,string)": "a214b9e8"
		}
	},
	"abi": [
		{
			"inputs": [
				{
					"internalType": "string",
					"name": "did_address",
					"type": "string"
				}
			],
			"name": "get_io_data",
			"outputs": [
				{
					"internalType": "string[]",
					"name": "",
					"type": "string[]"
				}
			],
			"stateMutability": "view",
			"type": "function"
		},
		{
			"inputs": [
				{
					"internalType": "string",
					"name": "did_address",
					"type": "string"
				},
				{
					"internalType": "string",
					"name": "ds_hash",
					"type": "string"
				}
			],
			"name": "upload_iot_data_hash",
			"outputs": [],
			"stateMutability": "payable",
			"type": "function"
		},
		{
			"inputs": [
				{
					"internalType": "string",
					"name": "did_address",
					"type": "string"
				},
				{
					"internalType": "string",
					"name": "ds_hash",
					"type": "string"
				}
			],
			"name": "verify_data_hash",
			"outputs": [
				{
					"internalType": "bool",
					"name": "",
					"type": "bool"
				}
			],
			"stateMutability": "view",
			"type": "function"
		}
	]
}